{
  "address": "0x92F1548e69d43E44F06aCaFdd6A5a951a1c1e055",
  "abi": [
    {
      "inputs": [
        {
          "internalType": "contract IRealitio",
          "name": "_realitio",
          "type": "address"
        },
        {
          "internalType": "string",
          "name": "_metadata",
          "type": "string"
        },
        {
          "internalType": "uint32",
          "name": "_foreignEid",
          "type": "uint32"
        },
        {
          "internalType": "address",
          "name": "_endpoint",
          "type": "address"
        }
      ],
      "stateMutability": "nonpayable",
      "type": "constructor"
    },
    {
      "inputs": [
        {
          "internalType": "uint256",
          "name": "required",
          "type": "uint256"
        },
        {
          "internalType": "uint256",
          "name": "available",
          "type": "uint256"
        }
      ],
      "name": "InsufficientFundsForLayerZero",
      "type": "error"
    },
    {
      "inputs": [],
      "name": "InvalidDelegate",
      "type": "error"
    },
    {
      "inputs": [],
      "name": "InvalidEndpointCall",
      "type": "error"
    },
    {
      "inputs": [
        {
          "internalType": "bytes",
          "name": "options",
          "type": "bytes"
        }
      ],
      "name": "InvalidOptions",
      "type": "error"
    },
    {
      "inputs": [],
      "name": "LzTokenUnavailable",
      "type": "error"
    },
    {
      "inputs": [
        {
          "internalType": "uint32",
          "name": "eid",
          "type": "uint32"
        }
      ],
      "name": "NoPeer",
      "type": "error"
    },
    {
      "inputs": [
        {
          "internalType": "uint256",
          "name": "msgValue",
          "type": "uint256"
        }
      ],
      "name": "NotEnoughNative",
      "type": "error"
    },
    {
      "inputs": [
        {
          "internalType": "address",
          "name": "addr",
          "type": "address"
        }
      ],
      "name": "OnlyEndpoint",
      "type": "error"
    },
    {
      "inputs": [
        {
          "internalType": "uint32",
          "name": "eid",
          "type": "uint32"
        },
        {
          "internalType": "bytes32",
          "name": "sender",
          "type": "bytes32"
        }
      ],
      "name": "OnlyPeer",
      "type": "error"
    },
    {
      "inputs": [
        {
          "internalType": "address",
          "name": "owner",
          "type": "address"
        }
      ],
      "name": "OwnableInvalidOwner",
      "type": "error"
    },
    {
      "inputs": [
        {
          "internalType": "address",
          "name": "account",
          "type": "address"
        }
      ],
      "name": "OwnableUnauthorizedAccount",
      "type": "error"
    },
    {
      "inputs": [
        {
          "internalType": "address",
          "name": "token",
          "type": "address"
        }
      ],
      "name": "SafeERC20FailedOperation",
      "type": "error"
    },
    {
      "anonymous": false,
      "inputs": [
        {
          "indexed": true,
          "internalType": "bytes32",
          "name": "_questionID",
          "type": "bytes32"
        },
        {
          "indexed": true,
          "internalType": "address",
          "name": "_requester",
          "type": "address"
        }
      ],
      "name": "ArbitrationFailed",
      "type": "event"
    },
    {
      "anonymous": false,
      "inputs": [
        {
          "indexed": true,
          "internalType": "bytes32",
          "name": "_questionID",
          "type": "bytes32"
        }
      ],
      "name": "ArbitrationFinished",
      "type": "event"
    },
    {
      "anonymous": false,
      "inputs": [
        {
          "indexed": true,
          "internalType": "bytes32",
          "name": "_questionID",
          "type": "bytes32"
        },
        {
          "indexed": false,
          "internalType": "bytes32",
          "name": "_answer",
          "type": "bytes32"
        }
      ],
      "name": "ArbitratorAnswered",
      "type": "event"
    },
    {
      "anonymous": false,
      "inputs": [
        {
          "components": [
            {
              "internalType": "uint32",
              "name": "eid",
              "type": "uint32"
            },
            {
              "internalType": "uint16",
              "name": "msgType",
              "type": "uint16"
            },
            {
              "internalType": "bytes",
              "name": "options",
              "type": "bytes"
            }
          ],
          "indexed": false,
          "internalType": "struct EnforcedOptionParam[]",
          "name": "_enforcedOptions",
          "type": "tuple[]"
        }
      ],
      "name": "EnforcedOptionSet",
      "type": "event"
    },
    {
      "anonymous": false,
      "inputs": [
        {
          "indexed": true,
          "internalType": "address",
          "name": "previousOwner",
          "type": "address"
        },
        {
          "indexed": true,
          "internalType": "address",
          "name": "newOwner",
          "type": "address"
        }
      ],
      "name": "OwnershipTransferred",
      "type": "event"
    },
    {
      "anonymous": false,
      "inputs": [
        {
          "indexed": false,
          "internalType": "uint32",
          "name": "eid",
          "type": "uint32"
        },
        {
          "indexed": false,
          "internalType": "bytes32",
          "name": "peer",
          "type": "bytes32"
        }
      ],
      "name": "PeerSet",
      "type": "event"
    },
    {
      "anonymous": false,
      "inputs": [
        {
          "indexed": true,
          "internalType": "bytes32",
          "name": "_questionID",
          "type": "bytes32"
        },
        {
          "indexed": true,
          "internalType": "address",
          "name": "_requester",
          "type": "address"
        }
      ],
      "name": "RequestAcknowledged",
      "type": "event"
    },
    {
      "anonymous": false,
      "inputs": [
        {
          "indexed": true,
          "internalType": "bytes32",
          "name": "_questionID",
          "type": "bytes32"
        },
        {
          "indexed": true,
          "internalType": "address",
          "name": "_requester",
          "type": "address"
        }
      ],
      "name": "RequestCanceled",
      "type": "event"
    },
    {
      "anonymous": false,
      "inputs": [
        {
          "indexed": true,
          "internalType": "bytes32",
          "name": "_questionID",
          "type": "bytes32"
        },
        {
          "indexed": true,
          "internalType": "address",
          "name": "_requester",
          "type": "address"
        },
        {
          "indexed": false,
          "internalType": "uint256",
          "name": "_maxPrevious",
          "type": "uint256"
        }
      ],
      "name": "RequestNotified",
      "type": "event"
    },
    {
      "anonymous": false,
      "inputs": [
        {
          "indexed": true,
          "internalType": "bytes32",
          "name": "_questionID",
          "type": "bytes32"
        },
        {
          "indexed": true,
          "internalType": "address",
          "name": "_requester",
          "type": "address"
        },
        {
          "indexed": false,
          "internalType": "uint256",
          "name": "_maxPrevious",
          "type": "uint256"
        },
        {
          "indexed": false,
          "internalType": "string",
          "name": "_reason",
          "type": "string"
        }
      ],
      "name": "RequestRejected",
      "type": "event"
    },
    {
      "inputs": [
        {
          "internalType": "bytes",
          "name": "_payload",
          "type": "bytes"
        }
      ],
      "name": "_decodeArbitrationAnswer",
      "outputs": [
        {
          "internalType": "bytes32",
          "name": "questionID",
          "type": "bytes32"
        },
        {
          "internalType": "bytes32",
          "name": "answer",
          "type": "bytes32"
        }
      ],
      "stateMutability": "pure",
      "type": "function"
    },
    {
      "inputs": [
        {
          "internalType": "bytes",
          "name": "_payload",
          "type": "bytes"
        }
      ],
      "name": "_decodeArbitrationFailure",
      "outputs": [
        {
          "internalType": "bytes32",
          "name": "questionID",
          "type": "bytes32"
        },
        {
          "internalType": "address",
          "name": "requester",
          "type": "address"
        }
      ],
      "stateMutability": "pure",
      "type": "function"
    },
    {
      "inputs": [
        {
          "internalType": "bytes",
          "name": "_payload",
          "type": "bytes"
        }
      ],
      "name": "_decodeArbitrationRequest",
      "outputs": [
        {
          "internalType": "bytes32",
          "name": "questionID",
          "type": "bytes32"
        },
        {
          "internalType": "address",
          "name": "requester",
          "type": "address"
        },
        {
          "internalType": "uint256",
          "name": "maxPrevious",
          "type": "uint256"
        }
      ],
      "stateMutability": "pure",
      "type": "function"
    },
    {
      "inputs": [
        {
          "internalType": "bytes",
          "name": "_message",
          "type": "bytes"
        }
      ],
      "name": "_decodeMessage",
      "outputs": [
        {
          "internalType": "uint16",
          "name": "msgType",
          "type": "uint16"
        },
        {
          "internalType": "bytes",
          "name": "payload",
          "type": "bytes"
        }
      ],
      "stateMutability": "pure",
      "type": "function"
    },
    {
      "inputs": [
        {
          "components": [
            {
              "internalType": "uint32",
              "name": "srcEid",
              "type": "uint32"
            },
            {
              "internalType": "bytes32",
              "name": "sender",
              "type": "bytes32"
            },
            {
              "internalType": "uint64",
              "name": "nonce",
              "type": "uint64"
            }
          ],
          "internalType": "struct Origin",
          "name": "origin",
          "type": "tuple"
        }
      ],
      "name": "allowInitializePath",
      "outputs": [
        {
          "internalType": "bool",
          "name": "",
          "type": "bool"
        }
      ],
      "stateMutability": "view",
      "type": "function"
    },
    {
      "inputs": [
        {
          "internalType": "uint32",
          "name": "_eid",
          "type": "uint32"
        },
        {
          "internalType": "uint16",
          "name": "_msgType",
          "type": "uint16"
        },
        {
          "internalType": "bytes",
          "name": "_extraOptions",
          "type": "bytes"
        }
      ],
      "name": "combineOptions",
      "outputs": [
        {
          "internalType": "bytes",
          "name": "",
          "type": "bytes"
        }
      ],
      "stateMutability": "view",
      "type": "function"
    },
    {
      "inputs": [],
      "name": "endpoint",
      "outputs": [
        {
          "internalType": "contract ILayerZeroEndpointV2",
          "name": "",
          "type": "address"
        }
      ],
      "stateMutability": "view",
      "type": "function"
    },
    {
      "inputs": [
        {
          "internalType": "uint32",
          "name": "eid",
          "type": "uint32"
        },
        {
          "internalType": "uint16",
          "name": "msgType",
          "type": "uint16"
        }
      ],
      "name": "enforcedOptions",
      "outputs": [
        {
          "internalType": "bytes",
          "name": "enforcedOption",
          "type": "bytes"
        }
      ],
      "stateMutability": "view",
      "type": "function"
    },
    {
      "inputs": [],
      "name": "foreignEid",
      "outputs": [
        {
          "internalType": "uint32",
          "name": "",
          "type": "uint32"
        }
      ],
      "stateMutability": "view",
      "type": "function"
    },
    {
      "inputs": [
        {
          "internalType": "bytes32",
          "name": "_questionID",
          "type": "bytes32"
        },
        {
          "internalType": "address",
          "name": "_requester",
          "type": "address"
        }
      ],
      "name": "handleNotifiedRequest",
      "outputs": [],
      "stateMutability": "nonpayable",
      "type": "function"
    },
    {
      "inputs": [
        {
          "internalType": "bytes32",
          "name": "_questionID",
          "type": "bytes32"
        },
        {
          "internalType": "address",
          "name": "_requester",
          "type": "address"
        }
      ],
      "name": "handleRejectedRequest",
      "outputs": [],
      "stateMutability": "nonpayable",
      "type": "function"
    },
    {
      "inputs": [
        {
          "components": [
            {
              "internalType": "uint32",
              "name": "srcEid",
              "type": "uint32"
            },
            {
              "internalType": "bytes32",
              "name": "sender",
              "type": "bytes32"
            },
            {
              "internalType": "uint64",
              "name": "nonce",
              "type": "uint64"
            }
          ],
          "internalType": "struct Origin",
          "name": "",
          "type": "tuple"
        },
        {
          "internalType": "bytes",
          "name": "",
          "type": "bytes"
        },
        {
          "internalType": "address",
          "name": "_sender",
          "type": "address"
        }
      ],
      "name": "isComposeMsgSender",
      "outputs": [
        {
          "internalType": "bool",
          "name": "",
          "type": "bool"
        }
      ],
      "stateMutability": "view",
      "type": "function"
    },
    {
      "inputs": [
        {
          "components": [
            {
              "internalType": "uint32",
              "name": "srcEid",
              "type": "uint32"
            },
            {
              "internalType": "bytes32",
              "name": "sender",
              "type": "bytes32"
            },
            {
              "internalType": "uint64",
              "name": "nonce",
              "type": "uint64"
            }
          ],
          "internalType": "struct Origin",
          "name": "_origin",
          "type": "tuple"
        },
        {
          "internalType": "bytes32",
          "name": "_guid",
          "type": "bytes32"
        },
        {
          "internalType": "bytes",
          "name": "_message",
          "type": "bytes"
        },
        {
          "internalType": "address",
          "name": "_executor",
          "type": "address"
        },
        {
          "internalType": "bytes",
          "name": "_extraData",
          "type": "bytes"
        }
      ],
      "name": "lzReceive",
      "outputs": [],
      "stateMutability": "payable",
      "type": "function"
    },
    {
      "inputs": [],
      "name": "metadata",
      "outputs": [
        {
          "internalType": "string",
          "name": "",
          "type": "string"
        }
      ],
      "stateMutability": "view",
      "type": "function"
    },
    {
      "inputs": [
        {
          "internalType": "uint32",
          "name": "",
          "type": "uint32"
        },
        {
          "internalType": "bytes32",
          "name": "",
          "type": "bytes32"
        }
      ],
      "name": "nextNonce",
      "outputs": [
        {
          "internalType": "uint64",
          "name": "nonce",
          "type": "uint64"
        }
      ],
      "stateMutability": "view",
      "type": "function"
    },
    {
      "inputs": [],
      "name": "oAppVersion",
      "outputs": [
        {
          "internalType": "uint64",
          "name": "senderVersion",
          "type": "uint64"
        },
        {
          "internalType": "uint64",
          "name": "receiverVersion",
          "type": "uint64"
        }
      ],
      "stateMutability": "pure",
      "type": "function"
    },
    {
      "inputs": [],
      "name": "owner",
      "outputs": [
        {
          "internalType": "address",
          "name": "",
          "type": "address"
        }
      ],
      "stateMutability": "view",
      "type": "function"
    },
    {
      "inputs": [
        {
          "internalType": "uint32",
          "name": "eid",
          "type": "uint32"
        }
      ],
      "name": "peers",
      "outputs": [
        {
          "internalType": "bytes32",
          "name": "peer",
          "type": "bytes32"
        }
      ],
      "stateMutability": "view",
      "type": "function"
    },
    {
      "inputs": [
        {
          "internalType": "bytes32",
          "name": "",
          "type": "bytes32"
        }
      ],
      "name": "questionIDToRequester",
      "outputs": [
        {
          "internalType": "address",
          "name": "",
          "type": "address"
        }
      ],
      "stateMutability": "view",
      "type": "function"
    },
    {
      "inputs": [],
      "name": "realitio",
      "outputs": [
        {
          "internalType": "contract IRealitio",
          "name": "",
          "type": "address"
        }
      ],
      "stateMutability": "view",
      "type": "function"
    },
    {
      "inputs": [
        {
          "internalType": "bytes32",
          "name": "_questionID",
          "type": "bytes32"
        },
        {
          "internalType": "bytes32",
          "name": "_answer",
          "type": "bytes32"
        }
      ],
      "name": "receiveArbitrationAnswer",
      "outputs": [],
      "stateMutability": "nonpayable",
      "type": "function"
    },
    {
      "inputs": [
        {
          "internalType": "bytes32",
          "name": "_questionID",
          "type": "bytes32"
        },
        {
          "internalType": "address",
          "name": "_requester",
          "type": "address"
        }
      ],
      "name": "receiveArbitrationFailure",
      "outputs": [],
      "stateMutability": "nonpayable",
      "type": "function"
    },
    {
      "inputs": [
        {
          "internalType": "bytes32",
          "name": "_questionID",
          "type": "bytes32"
        },
        {
          "internalType": "address",
          "name": "_requester",
          "type": "address"
        },
        {
          "internalType": "uint256",
          "name": "_maxPrevious",
          "type": "uint256"
        }
      ],
      "name": "receiveArbitrationRequest",
      "outputs": [],
      "stateMutability": "nonpayable",
      "type": "function"
    },
    {
      "inputs": [],
      "name": "renounceOwnership",
      "outputs": [],
      "stateMutability": "nonpayable",
      "type": "function"
    },
    {
      "inputs": [
        {
          "internalType": "bytes32",
          "name": "_questionID",
          "type": "bytes32"
        },
        {
          "internalType": "bytes32",
          "name": "_lastHistoryHash",
          "type": "bytes32"
        },
        {
          "internalType": "bytes32",
          "name": "_lastAnswerOrCommitmentID",
          "type": "bytes32"
        },
        {
          "internalType": "address",
          "name": "_lastAnswerer",
          "type": "address"
        }
      ],
      "name": "reportArbitrationAnswer",
      "outputs": [],
      "stateMutability": "nonpayable",
      "type": "function"
    },
    {
      "inputs": [
        {
          "internalType": "bytes32",
          "name": "",
          "type": "bytes32"
        },
        {
          "internalType": "address",
          "name": "",
          "type": "address"
        }
      ],
      "name": "requests",
      "outputs": [
        {
          "internalType": "enum RealitioHomeProxyLZ.Status",
          "name": "status",
          "type": "uint8"
        },
        {
          "internalType": "bytes32",
          "name": "arbitratorAnswer",
          "type": "bytes32"
        }
      ],
      "stateMutability": "view",
      "type": "function"
    },
    {
      "inputs": [
        {
          "internalType": "address",
          "name": "_delegate",
          "type": "address"
        }
      ],
      "name": "setDelegate",
      "outputs": [],
      "stateMutability": "nonpayable",
      "type": "function"
    },
    {
      "inputs": [
        {
          "components": [
            {
              "internalType": "uint32",
              "name": "eid",
              "type": "uint32"
            },
            {
              "internalType": "uint16",
              "name": "msgType",
              "type": "uint16"
            },
            {
              "internalType": "bytes",
              "name": "options",
              "type": "bytes"
            }
          ],
          "internalType": "struct EnforcedOptionParam[]",
          "name": "_enforcedOptions",
          "type": "tuple[]"
        }
      ],
      "name": "setEnforcedOptions",
      "outputs": [],
      "stateMutability": "nonpayable",
      "type": "function"
    },
    {
      "inputs": [
        {
          "internalType": "uint32",
          "name": "_eid",
          "type": "uint32"
        },
        {
          "internalType": "bytes32",
          "name": "_peer",
          "type": "bytes32"
        }
      ],
      "name": "setPeer",
      "outputs": [],
      "stateMutability": "nonpayable",
      "type": "function"
    },
    {
      "inputs": [
        {
          "internalType": "address",
          "name": "newOwner",
          "type": "address"
        }
      ],
      "name": "transferOwnership",
      "outputs": [],
      "stateMutability": "nonpayable",
      "type": "function"
    },
    {
      "inputs": [
        {
          "internalType": "uint256",
          "name": "_amount",
          "type": "uint256"
        }
      ],
      "name": "withdrawETH",
      "outputs": [],
      "stateMutability": "nonpayable",
      "type": "function"
    },
    {
      "stateMutability": "payable",
      "type": "receive"
    }
  ],
  "transactionHash": "0x91c751cc8e99058bbc19adf12a4b0ff7cb10ffe4931bece0e0a071575e7b7428",
  "args": [
    "0xaf33DcB6E8c5c4D9dDF579f53031b514d19449CA",
    "",
    40231,
    "0x6EDCE65403992e310A62460808c4b910D972f10f"
  ],
  "numDeployments": 1,
  "solcInputHash": "1fb4d79f53fec48585f0415760569758",
  "bytecode": "0x60e06040523480156200001157600080fd5b506040516200348d3803806200348d8339810160408190526200003491620001d6565b8033818180806200005f57604051631e4fbdf760e01b81526000600482015260240160405180910390fd5b6200006a8162000130565b506001600160a01b0380831660805281166200009957604051632d618d8160e21b815260040160405180910390fd5b60805160405163ca5eb5e160e01b81526001600160a01b0383811660048301529091169063ca5eb5e190602401600060405180830381600087803b158015620000e157600080fd5b505af1158015620000f6573d6000803e3d6000fd5b505050506001600160a01b03881660a05250600392506200011c91508590508262000377565b505063ffffffff1660c05250620004439050565b600080546001600160a01b038381166001600160a01b0319831681178455604051919092169283917f8be0079c531659141344cd1fd0a4f28419497f9722a3daafe3b4186f6b6457e09190a35050565b6001600160a01b03811681146200019657600080fd5b50565b634e487b7160e01b600052604160045260246000fd5b805163ffffffff81168114620001c457600080fd5b919050565b8051620001c48162000180565b60008060008060808587031215620001ed57600080fd5b8451620001fa8162000180565b602086810151919550906001600160401b03808211156200021a57600080fd5b818801915088601f8301126200022f57600080fd5b81518181111562000244576200024462000199565b604051601f8201601f19908116603f011681019083821181831017156200026f576200026f62000199565b816040528281528b868487010111156200028857600080fd5b600093505b82841015620002ac57848401860151818501870152928501926200028d565b6000868483010152809850505050505050620002cb60408601620001af565b9150620002db60608601620001c9565b905092959194509250565b600181811c90821680620002fb57607f821691505b6020821081036200031c57634e487b7160e01b600052602260045260246000fd5b50919050565b601f82111562000372576000816000526020600020601f850160051c810160208610156200034d5750805b601f850160051c820191505b818110156200036e5782815560010162000359565b5050505b505050565b81516001600160401b0381111562000393576200039362000199565b620003ab81620003a48454620002e6565b8462000322565b602080601f831160018114620003e35760008415620003ca5750858301515b600019600386901b1c1916600185901b1785556200036e565b600085815260208120601f198616915b828110156200041457888601518255948401946001909101908401620003f3565b5085821015620004335787850151600019600388901b60f8161c191681555b5050505050600190811b01905550565b60805160a05160c051612fb1620004dc6000396000818161048601528181610b7c01528181610bf701528181610c5501528181610f7f01528181610ffa015261105801526000818161056a015281816108da01528181611b250152611cdb0152600081816103b40152818161071601528181611100015281816117210152818161181f01528181611fd8015261208f0152612fb16000f3fe6080604052600436106101dc5760003560e01c8063902f841311610102578063c77cccc911610095578063e809173c11610064578063e809173c1461067f578063f14210a6146106b4578063f2fde38b146106d4578063ff7bd03d146106f457600080fd5b8063c77cccc9146105ff578063ca5eb5e11461061f578063ccd6e8d21461063f578063d75a86e01461065f57600080fd5b8063bc70b354116100d1578063bc70b35414610538578063bc8802a214610558578063bf6569e01461058c578063c510faf7146105ac57600080fd5b8063902f84131461047457806391602fd7146104bd578063b98bd070146104dd578063bb0b6a53146104fd57600080fd5b8063392f37e91161017a578063715018a611610149578063715018a6146103d65780637d25a05e146103eb57806382413eac146104265780638da5cb5b1461045657600080fd5b8063392f37e91461031d578063452052951461033f5780635535d461146103825780635e280f11146103a257600080fd5b80631ec8b4e8116101b65780631ec8b4e814610272578063241a9f82146102af57806324fd4c05146102cf5780633400288b146102fd57600080fd5b806313137d65146101e857806317442b70146101fd5780631865fed11461022457600080fd5b366101e357005b600080fd5b6101fb6101f6366004612225565b610714565b005b34801561020957600080fd5b50604080516001815260026020820152015b60405180910390f35b34801561023057600080fd5b5061025a61023f3660046122c4565b6005602052600090815260409020546001600160a01b031681565b6040516001600160a01b03909116815260200161021b565b34801561027e57600080fd5b5061029261028d3660046123c7565b6107d4565b604080519283526001600160a01b0390911660208301520161021b565b3480156102bb57600080fd5b506101fb6102ca3660046123fb565b6107f4565b3480156102db57600080fd5b506102ef6102ea36600461243c565b610969565b60405161021b9291906124cd565b34801561030957600080fd5b506101fb610318366004612503565b610985565b34801561032957600080fd5b5061033261099b565b60405161021b919061252d565b34801561034b57600080fd5b5061035f61035a3660046123c7565b610a29565b604080519384526001600160a01b0390921660208401529082015260600161021b565b34801561038e57600080fd5b5061033261039d366004612557565b610a4f565b3480156103ae57600080fd5b5061025a7f000000000000000000000000000000000000000000000000000000000000000081565b3480156103e257600080fd5b506101fb610a73565b3480156103f757600080fd5b5061040e610406366004612503565b600092915050565b6040516001600160401b03909116815260200161021b565b34801561043257600080fd5b5061044661044136600461258e565b610a87565b604051901515815260200161021b565b34801561046257600080fd5b506000546001600160a01b031661025a565b34801561048057600080fd5b506104a87f000000000000000000000000000000000000000000000000000000000000000081565b60405163ffffffff909116815260200161021b565b3480156104c957600080fd5b506101fb6104d83660046125e9565b610a9c565b3480156104e957600080fd5b506101fb6104f836600461260e565b610cd6565b34801561050957600080fd5b5061052a610518366004612682565b60016020526000908152604090205481565b60405190815260200161021b565b34801561054457600080fd5b5061033261055336600461269d565b610cf0565b34801561056457600080fd5b5061025a7f000000000000000000000000000000000000000000000000000000000000000081565b34801561059857600080fd5b506101fb6105a73660046125e9565b610e98565b3480156105b857600080fd5b506105f16105c73660046125e9565b60046020908152600092835260408084209091529082529020805460019091015460ff9091169082565b60405161021b929190612715565b34801561060b57600080fd5b506101fb61061a3660046125e9565b610ea2565b34801561062b57600080fd5b506101fb61063a366004612741565b6110d9565b34801561064b57600080fd5b506101fb61065a36600461275e565b61115f565b34801561066b57600080fd5b506101fb61067a366004612796565b61116f565b34801561068b57600080fd5b5061069f61069a3660046123c7565b611179565b6040805192835260208301919091520161021b565b3480156106c057600080fd5b506101fb6106cf3660046122c4565b611190565b3480156106e057600080fd5b506101fb6106ef366004612741565b611218565b34801561070057600080fd5b5061044661070f3660046127b8565b611256565b7f00000000000000000000000000000000000000000000000000000000000000006001600160a01b03163314610764576040516391ac5e4f60e01b81523360048201526024015b60405180910390fd5b6020870180359061077e90610779908a612682565b61128c565b146107bc576107906020880188612682565b60405163309afaf360e21b815263ffffffff90911660048201526020880135602482015260440161075b565b6107cb878787878787876112ce565b50505050505050565b600080828060200190518101906107eb91906127d4565b91509150915091565b60008481526005602090815260408083205460048084528285206001600160a01b0390921680865291909352922090815460ff166005811115610839576108396126ff565b146108865760405162461bcd60e51b815260206004820152601c60248201527f41726269747261746f7220686173206e6f742072756c65642079657400000000604482015260640161075b565b805460ff1916600517815560018101546040516335138a4f60e21b81526004810188905260248101919091526001600160a01b038381166044830152606482018790526084820186905284811660a48301527f0000000000000000000000000000000000000000000000000000000000000000169063d44e293c9060c401600060405180830381600087803b15801561091e57600080fd5b505af1158015610932573d6000803e3d6000fd5b50506040518892507f2abf2fd86256e4607561adae782a4853682b6c0b976995a9a45c5fc3a17573869150600090a2505050505050565b60006060610979838501856127f9565b915091505b9250929050565b61098d611639565b6109978282611666565b5050565b600380546109a890612848565b80601f01602080910402602001604051908101604052809291908181526020018280546109d490612848565b8015610a215780601f106109f657610100808354040283529160200191610a21565b820191906000526020600020905b815481529060010190602001808311610a0457829003601f168201915b505050505081565b600080600083806020019051810190610a42919061287c565b9250925092509193909250565b6002602090815260009283526040808420909152908252902080546109a890612848565b610a7b611639565b610a8560006116bb565b565b6001600160a01b03811630145b949350505050565b60008281526004602090815260408083206001600160a01b038516845290915290206002815460ff166005811115610ad657610ad66126ff565b14610af35760405162461bcd60e51b815260040161075b906128b5565b805460ff1916600317815560408051600260208201529081018490526001600160a01b038316606082015260009060800160405160208183030381529060405290506000600162030d40604051602001610b4e9291906128e5565b60408051601f1981840301815290829052632f1c2cd560e21b82529150600090309063bc70b35490610ba9907f0000000000000000000000000000000000000000000000000000000000000000906002908790600401612918565b600060405180830381865afa158015610bc6573d6000803e3d6000fd5b505050506040513d6000823e601f3d908101601f19168201604052610bee9190810190612990565b90506000610c1f7f00000000000000000000000000000000000000000000000000000000000000008584600061170b565b8051909150471015610c505780516040516334b2107560e11b8152600481019190915247602482015260440161075b565b610c967f000000000000000000000000000000000000000000000000000000000000000085846040518060400160405280866000015181526020016000815250306117ec565b506040516001600160a01b0387169088907fff09615c531ab8799ea1c67a0952ddbef1c864ef91d390995d0dc07656f4210f90600090a350505050505050565b610cde611639565b610997610ceb82846129c4565b6118f7565b63ffffffff8416600090815260026020908152604080832061ffff87168452909152812080546060929190610d2490612848565b80601f0160208091040260200160405190810160405280929190818152602001828054610d5090612848565b8015610d9d5780601f10610d7257610100808354040283529160200191610d9d565b820191906000526020600020905b815481529060010190602001808311610d8057829003601f168201915b505050505090508051600003610ded5783838080601f016020809104026020016040519081016040528093929190818152602001838380828437600092019190915250929450610a949350505050565b6000839003610dfd579050610a94565b60028310610e7b57610e4484848080601f016020809104026020016040519081016040528093929190818152602001838380828437600092019190915250611a0992505050565b80610e528460028188612a9f565b604051602001610e6493929190612ac9565b604051602081830303815290604052915050610a94565b8383604051639a6d49cd60e01b815260040161075b929190612af1565b6109978282611a35565b60008281526004602090815260408083206001600160a01b038516845290915290206001815460ff166005811115610edc57610edc6126ff565b14610ef95760405162461bcd60e51b815260040161075b906128b5565b805460ff1916815560408051600360208201529081018490526001600160a01b0383166060820152600090608001604051602081830303815290604052905060006001620249f0604051602001610f519291906128e5565b60408051601f1981840301815290829052632f1c2cd560e21b82529150600090309063bc70b35490610fac907f0000000000000000000000000000000000000000000000000000000000000000906003908790600401612918565b600060405180830381865afa158015610fc9573d6000803e3d6000fd5b505050506040513d6000823e601f3d908101601f19168201604052610ff19190810190612990565b905060006110227f00000000000000000000000000000000000000000000000000000000000000008584600061170b565b80519091504710156110535780516040516334b2107560e11b8152600481019190915247602482015260440161075b565b6110997f000000000000000000000000000000000000000000000000000000000000000085846040518060400160405280866000015181526020016000815250306117ec565b506040516001600160a01b0387169088907ff313a768599b60b7f8aedb7757d867d09463365b79b55b86ed3c961e6da5a24990600090a350505050505050565b6110e1611639565b60405163ca5eb5e160e01b81526001600160a01b0382811660048301527f0000000000000000000000000000000000000000000000000000000000000000169063ca5eb5e190602401600060405180830381600087803b15801561114457600080fd5b505af1158015611158573d6000803e3d6000fd5b5050505050565b61116a838383611bbc565b505050565b6109978282611e86565b600080828060200190518101906107eb9190612b20565b611198611639565b478111156111df5760405162461bcd60e51b8152602060048201526014602482015273496e73756666696369656e742062616c616e636560601b604482015260640161075b565b600080546040516001600160a01b039091169183156108fc02918491818181858888f19350505050158015610997573d6000803e3d6000fd5b611220611639565b6001600160a01b03811661124a57604051631e4fbdf760e01b81526000600482015260240161075b565b611253816116bb565b50565b600060208201803590600190839061126e9086612682565b63ffffffff1681526020810191909152604001600020541492915050565b63ffffffff8116600090815260016020526040812054806112c85760405163f6ff4fb760e01b815263ffffffff8416600482015260240161075b565b92915050565b6040516324fd4c0560e01b815260009060609030906324fd4c05906112f9908a908a90600401612af1565b600060405180830381865afa92505050801561133757506040513d6000823e601f3d908101601f191682016040526113349190810190612b44565b60015b61137c5760405162461bcd60e51b8152602060048201526016602482015275125b9d985b1a59081b595cdcd859d948199bdc9b585d60521b604482015260640161075b565b909250905060001961ffff83160161145557604051634520529560e01b815230906345205295906113b190849060040161252d565b606060405180830381865afa9250505080156113ea575060408051601f3d908101601f191682019092526113e79181019061287c565b60015b6114425760405162461bcd60e51b815260206004820152602360248201527f496e76616c6964206172626974726174696f6e2072657175657374207061796c6044820152621bd85960ea1b606482015260840161075b565b61144d838383611bbc565b50505061162e565b60031961ffff831601611526576040516303d9169d60e31b81523090631ec8b4e89061148590849060040161252d565b6040805180830381865afa9250505080156114bd575060408051601f3d908101601f191682019092526114ba918101906127d4565b60015b6115155760405162461bcd60e51b815260206004820152602360248201527f496e76616c6964206172626974726174696f6e206661696c757265207061796c6044820152621bd85960ea1b606482015260840161075b565b61151f8282611a35565b505061162e565b60041961ffff8316016115ef57604051633a0245cf60e21b8152309063e809173c9061155690849060040161252d565b6040805180830381865afa92505050801561158e575060408051601f3d908101601f1916820190925261158b91810190612b20565b60015b6115e55760405162461bcd60e51b815260206004820152602260248201527f496e76616c6964206172626974726174696f6e20616e73776572207061796c6f604482015261185960f21b606482015260840161075b565b61151f8282611e86565b60405162461bcd60e51b8152602060048201526014602482015273556e6b6e6f776e206d657373616765207479706560601b604482015260640161075b565b505050505050505050565b6000546001600160a01b03163314610a855760405163118cdaa760e01b815233600482015260240161075b565b63ffffffff8216600081815260016020908152604091829020849055815192835282018390527f238399d427b947898edb290f5ff0f9109849b1c3ba196a42e35f00c50a54b98b910160405180910390a15050565b600080546001600160a01b038381166001600160a01b0319831681178455604051919092169283917f8be0079c531659141344cd1fd0a4f28419497f9722a3daafe3b4186f6b6457e09190a35050565b60408051808201909152600080825260208201527f00000000000000000000000000000000000000000000000000000000000000006001600160a01b031663ddc28c586040518060a001604052808863ffffffff16815260200161176e8961128c565b8152602001878152602001868152602001851515815250306040518363ffffffff1660e01b81526004016117a3929190612b8a565b6040805180830381865afa1580156117bf573d6000803e3d6000fd5b505050506040513d601f19601f820116820180604052508101906117e39190612c51565b95945050505050565b6117f4612170565b60006118038460000151611fac565b60208501519091501561181d5761181d8460200151611fd4565b7f00000000000000000000000000000000000000000000000000000000000000006001600160a01b0316632637a450826040518060a001604052808b63ffffffff16815260200161186d8c61128c565b81526020018a815260200189815260200160008960200151111515815250866040518463ffffffff1660e01b81526004016118a9929190612b8a565b60806040518083038185885af11580156118c7573d6000803e3d6000fd5b50505050506040513d601f19601f820116820180604052508101906118ec9190612c6d565b979650505050505050565b60005b81518110156119ce5761192982828151811061191857611918612cc7565b602002602001015160400151611a09565b81818151811061193b5761193b612cc7565b6020026020010151604001516002600084848151811061195d5761195d612cc7565b60200260200101516000015163ffffffff1663ffffffff168152602001908152602001600020600084848151811061199757611997612cc7565b60200260200101516020015161ffff1661ffff16815260200190815260200160002090816119c59190612d2d565b506001016118fa565b507fbe4864a8e820971c0247f5992e2da559595f7bf076a21cb5928d443d2a13b674816040516119fe9190612dec565b60405180910390a150565b600281015161ffff81166003146109975781604051639a6d49cd60e01b815260040161075b919061252d565b81611a525760405162461bcd60e51b815260040161075b90612e69565b6001600160a01b038116611aa85760405162461bcd60e51b815260206004820181905260248201527f5265717565737465722063616e6e6f74206265207a65726f2061646472657373604482015260640161075b565b60008281526004602090815260408083206001600160a01b038516845290915290206003815460ff166005811115611ae257611ae26126ff565b14611aff5760405162461bcd60e51b815260040161075b906128b5565b805460ff19168155604051630ebbdd2b60e41b8152600481018490526001600160a01b037f0000000000000000000000000000000000000000000000000000000000000000169063ebbdd2b090602401600060405180830381600087803b158015611b6957600080fd5b505af1158015611b7d573d6000803e3d6000fd5b50506040516001600160a01b03851692508591507f9beda0c81abc1c65da7685f113195974dfddb781dfde6263e5a1b13a5356ffad90600090a3505050565b82611bd95760405162461bcd60e51b815260040161075b90612e69565b6001600160a01b038216611c2f5760405162461bcd60e51b815260206004820181905260248201527f5265717565737465722063616e6e6f74206265207a65726f2061646472657373604482015260640161075b565b60008381526004602090815260408083206001600160a01b0386168452909152812090815460ff166005811115611c6857611c686126ff565b14611cae5760405162461bcd60e51b81526020600482015260166024820152755265717565737420616c72656164792065786973747360501b604482015260640161075b565b60405163f6a94ecb60e01b8152600481018590526001600160a01b038481166024830152604482018490527f0000000000000000000000000000000000000000000000000000000000000000169063f6a94ecb90606401600060405180830381600087803b158015611d1f57600080fd5b505af1925050508015611d30575060015b611e1357611d3c612ea0565b806308c379a003611db35750611d50612ebc565b80611d5b5750611db5565b815460ff191660011782556040516001600160a01b0385169086907ff677e762f2ddc710deec335dd0cfa8a65cc9c9c351b268243be8629f2e8d1b5f90611da59087908690612f45565b60405180910390a350611e80565b505b805460ff19166001178155604080518381526020810182905260008183015290516001600160a01b0385169186917ff677e762f2ddc710deec335dd0cfa8a65cc9c9c351b268243be8629f2e8d1b5f916060908290030190a3611e80565b805460ff1916600217815560008481526005602090815260409182902080546001600160a01b0387166001600160a01b03199091168117909155915184815286917ff56e18fc84dbd66db78337b5bd0973943fa70c9b52243a540bdac79274f6682d910160405180910390a35b50505050565b81611ea35760405162461bcd60e51b815260040161075b90612e69565b6000828152600560205260409020546001600160a01b031680611f085760405162461bcd60e51b815260206004820152601f60248201527f4e6f2072657175657374657220666f756e6420666f72207175657374696f6e00604482015260640161075b565b60008381526004602090815260408083206001600160a01b038516845290915290206003815460ff166005811115611f4257611f426126ff565b14611f5f5760405162461bcd60e51b815260040161075b906128b5565b805460ff191660041781556001810183905560405183815284907f1813d15d8cef51cff8bbd419a8e13e0655c1babea320dea4174d5e7bc40c42949060200160405180910390a250505050565b6000813414611fd0576040516304fb820960e51b815234600482015260240161075b565b5090565b60007f00000000000000000000000000000000000000000000000000000000000000006001600160a01b031663e4fe1d946040518163ffffffff1660e01b8152600401602060405180830381865afa158015612034573d6000803e3d6000fd5b505050506040513d601f19601f820116820180604052508101906120589190612f5e565b90506001600160a01b038116612081576040516329b99a9560e11b815260040160405180910390fd5b6040805133602482018190527f00000000000000000000000000000000000000000000000000000000000000006001600160a01b0381811660448501526064808501889052855180860390910181526084909401909452602080840180516001600160e01b03166323b872dd60e01b1781528451610997968816958993611e8093889360009283929091839182885af180612122576040513d6000823e3d81fd5b50506000513d9150811561213a578060011415612147565b6001600160a01b0384163b155b15611e8057604051635274afe760e01b81526001600160a01b038516600482015260240161075b565b60405180606001604052806000801916815260200160006001600160401b031681526020016121b2604051806040016040528060008152602001600081525090565b905290565b6000606082840312156121c957600080fd5b50919050565b60008083601f8401126121e157600080fd5b5081356001600160401b038111156121f857600080fd5b60208301915083602082850101111561097e57600080fd5b6001600160a01b038116811461125357600080fd5b600080600080600080600060e0888a03121561224057600080fd5b61224a89896121b7565b96506060880135955060808801356001600160401b038082111561226d57600080fd5b6122798b838c016121cf565b909750955060a08a0135915061228e82612210565b90935060c089013590808211156122a457600080fd5b506122b18a828b016121cf565b989b979a50959850939692959293505050565b6000602082840312156122d657600080fd5b5035919050565b634e487b7160e01b600052604160045260246000fd5b606081018181106001600160401b0382111715612312576123126122dd565b60405250565b601f8201601f191681016001600160401b038111828210171561233d5761233d6122dd565b6040525050565b60006001600160401b0382111561235d5761235d6122dd565b50601f01601f191660200190565b600082601f83011261237c57600080fd5b813561238781612344565b6040516123948282612318565b8281528560208487010111156123a957600080fd5b82602086016020830137600092810160200192909252509392505050565b6000602082840312156123d957600080fd5b81356001600160401b038111156123ef57600080fd5b610a948482850161236b565b6000806000806080858703121561241157600080fd5b843593506020850135925060408501359150606085013561243181612210565b939692955090935050565b6000806020838503121561244f57600080fd5b82356001600160401b0381111561246557600080fd5b612471858286016121cf565b90969095509350505050565b60005b83811015612498578181015183820152602001612480565b50506000910152565b600081518084526124b981602086016020860161247d565b601f01601f19169290920160200192915050565b61ffff83168152604060208201526000610a9460408301846124a1565b803563ffffffff811681146124fe57600080fd5b919050565b6000806040838503121561251657600080fd5b61251f836124ea565b946020939093013593505050565b60208152600061254060208301846124a1565b9392505050565b61ffff8116811461125357600080fd5b6000806040838503121561256a57600080fd5b612573836124ea565b9150602083013561258381612547565b809150509250929050565b60008060008060a085870312156125a457600080fd5b6125ae86866121b7565b935060608501356001600160401b038111156125c957600080fd5b6125d5878288016121cf565b909450925050608085013561243181612210565b600080604083850312156125fc57600080fd5b82359150602083013561258381612210565b6000806020838503121561262157600080fd5b82356001600160401b038082111561263857600080fd5b818501915085601f83011261264c57600080fd5b81358181111561265b57600080fd5b8660208260051b850101111561267057600080fd5b60209290920196919550909350505050565b60006020828403121561269457600080fd5b612540826124ea565b600080600080606085870312156126b357600080fd5b6126bc856124ea565b935060208501356126cc81612547565b925060408501356001600160401b038111156126e757600080fd5b6126f3878288016121cf565b95989497509550505050565b634e487b7160e01b600052602160045260246000fd5b604081016006841061273757634e487b7160e01b600052602160045260246000fd5b9281526020015290565b60006020828403121561275357600080fd5b813561254081612210565b60008060006060848603121561277357600080fd5b83359250602084013561278581612210565b929592945050506040919091013590565b600080604083850312156127a957600080fd5b50508035926020909101359150565b6000606082840312156127ca57600080fd5b61254083836121b7565b600080604083850312156127e757600080fd5b82519150602083015161258381612210565b6000806040838503121561280c57600080fd5b823561281781612547565b915060208301356001600160401b0381111561283257600080fd5b61283e8582860161236b565b9150509250929050565b600181811c9082168061285c57607f821691505b6020821081036121c957634e487b7160e01b600052602260045260246000fd5b60008060006060848603121561289157600080fd5b8351925060208401516128a381612210565b80925050604084015190509250925092565b602080825260169082015275496e76616c696420726571756573742073746174757360501b604082015260600190565b60f09290921b6001600160f01b031916825260801b6fffffffffffffffffffffffffffffffff1916600282015260120190565b63ffffffff8416815261ffff831660208201526060604082015260006117e360608301846124a1565b600082601f83011261295257600080fd5b815161295d81612344565b60405161296a8282612318565b82815285602084870101111561297f57600080fd5b6117e383602083016020880161247d565b6000602082840312156129a257600080fd5b81516001600160401b038111156129b857600080fd5b610a9484828501612941565b60006001600160401b03808411156129de576129de6122dd565b8360051b6020604080516129f483850182612318565b8781529286019282810136851115612a0b57600080fd5b875b85811015612a9157803587811115612a255760008081fd5b89016060368290031215612a395760008081fd5b8451612a44816122f3565b612a4d826124ea565b815286820135612a5c81612547565b818801528186013589811115612a725760008081fd5b612a7e3682850161236b565b8288015250835250908401908401612a0d565b509098975050505050505050565b60008085851115612aaf57600080fd5b83861115612abc57600080fd5b5050820193919092039150565b60008451612adb81846020890161247d565b8201838582376000930192835250909392505050565b60208152816020820152818360408301376000818301604090810191909152601f909201601f19160101919050565b60008060408385031215612b3357600080fd5b505080516020909101519092909150565b60008060408385031215612b5757600080fd5b8251612b6281612547565b60208401519092506001600160401b03811115612b7e57600080fd5b61283e85828601612941565b6040815263ffffffff8351166040820152602083015160608201526000604084015160a06080840152612bc060e08401826124a1565b90506060850151603f198483030160a0850152612bdd82826124a1565b60809690960151151560c08501525050506001600160a01b039190911660209091015290565b600060408284031215612c1557600080fd5b604051604081018181106001600160401b0382111715612c3757612c376122dd565b604052825181526020928301519281019290925250919050565b600060408284031215612c6357600080fd5b6125408383612c03565b600060808284031215612c7f57600080fd5b604051612c8b816122f3565b8251815260208301516001600160401b0381168114612ca957600080fd5b6020820152612cbb8460408501612c03565b60408201529392505050565b634e487b7160e01b600052603260045260246000fd5b601f82111561116a576000816000526020600020601f850160051c81016020861015612d065750805b601f850160051c820191505b81811015612d2557828155600101612d12565b505050505050565b81516001600160401b03811115612d4657612d466122dd565b612d5a81612d548454612848565b84612cdd565b602080601f831160018114612d8f5760008415612d775750858301515b600019600386901b1c1916600185901b178555612d25565b600085815260208120601f198616915b82811015612dbe57888601518255948401946001909101908401612d9f565b5085821015612ddc5787850151600019600388901b60f8161c191681555b5050505050600190811b01905550565b600060208083018184528085518083526040925060408601915060408160051b87010184880160005b83811015612a9157888303603f190185528151805163ffffffff1684528781015161ffff16888501528601516060878501819052612e55818601836124a1565b968901969450505090860190600101612e15565b6020808252601b908201527f5175657374696f6e2049442063616e6e6f7420626520656d7074790000000000604082015260600190565b600060033d1115612eb95760046000803e5060005160e01c5b90565b600060443d1015612eca5790565b6040516003193d81016004833e81513d6001600160401b038160248401118184111715612ef957505050505090565b8285019150815181811115612f115750505050505090565b843d8701016020828501011115612f2b5750505050505090565b612f3a60208286010187612318565b509095945050505050565b828152604060208201526000610a9460408301846124a1565b600060208284031215612f7057600080fd5b81516125408161221056fea2646970667358221220743ff78afedd4012f4c1ecac10c0674fe0c25671cd82b1404ad82df39998940764736f6c63430008180033",
  "devdoc": {
    "details": "This contract is meant to be deployed to side-chains in which Reality.eth is deployed.",
    "errors": {
      "OwnableInvalidOwner(address)": [
        {
          "details": "The owner is not a valid owner account. (eg. `address(0)`)"
        }
      ],
      "OwnableUnauthorizedAccount(address)": [
        {
          "details": "The caller account is not authorized to perform an operation."
        }
      ],
      "SafeERC20FailedOperation(address)": [
        {
          "details": "An operation with an ERC-20 token failed."
        }
      ]
    },
    "events": {
      "ArbitrationFailed(bytes32,address)": {
        "details": "This will happen if the arbitration fee increases in between the arbitration request and acknowledgement.",
        "params": {
          "_questionID": "The ID of the question.",
          "_requester": "The address of the arbitration requester."
        }
      },
      "ArbitrationFinished(bytes32)": {
        "params": {
          "_questionID": "The ID of the question."
        }
      },
      "ArbitratorAnswered(bytes32,bytes32)": {
        "params": {
          "_answer": "The answer from the arbitrator.",
          "_questionID": "The ID of the question."
        }
      },
      "RequestAcknowledged(bytes32,address)": {
        "params": {
          "_questionID": "The ID of the question.",
          "_requester": "The address of the arbitration requester."
        }
      },
      "RequestCanceled(bytes32,address)": {
        "params": {
          "_questionID": "The ID of the question.",
          "_requester": "The address of the arbitration requester."
        }
      },
      "RequestNotified(bytes32,address,uint256)": {
        "params": {
          "_maxPrevious": "The maximum value of the previous bond for the question.",
          "_questionID": "The ID of the question.",
          "_requester": "The address of the arbitration requester."
        }
      },
      "RequestRejected(bytes32,address,uint256,string)": {
        "details": "This can happen if the current bond for the question is higher than maxPrevious or if the question is already finalized.",
        "params": {
          "_maxPrevious": "The maximum value of the current bond for the question.",
          "_questionID": "The ID of the question.",
          "_reason": "The reason why the request was rejected.",
          "_requester": "The address of the arbitration requester."
        }
      }
    },
    "kind": "dev",
    "methods": {
      "_decodeMessage(bytes)": {
        "details": "These are marked external to be called via try/catch for error handling."
      },
      "allowInitializePath((uint32,bytes32,uint64))": {
        "details": "This indicates to the endpoint that the OApp has enabled msgs for this particular path to be received.This defaults to assuming if a peer has been set, its initialized. Can be overridden by the OApp if there is other logic to determine this.",
        "params": {
          "origin": "The origin information containing the source endpoint and sender address."
        },
        "returns": {
          "_0": "Whether the path has been initialized."
        }
      },
      "combineOptions(uint32,uint16,bytes)": {
        "details": "If there is an enforced lzReceive option: - {gasLimit: 200k, msg.value: 1 ether} AND a caller supplies a lzReceive option: {gasLimit: 100k, msg.value: 0.5 ether} - The resulting options will be {gasLimit: 300k, msg.value: 1.5 ether} when the message is executed on the remote lzReceive() function.This presence of duplicated options is handled off-chain in the verifier/executor.",
        "params": {
          "_eid": "The endpoint ID.",
          "_extraOptions": "Additional options passed by the caller.",
          "_msgType": "The OAPP message type."
        },
        "returns": {
          "_0": "options The combination of caller specified options AND enforced options."
        }
      },
      "constructor": {
        "params": {
          "_endpoint": "The LayerZero endpoint address.",
          "_foreignEid": "The endpoint ID where the foreign proxy is deployed.",
          "_metadata": "Metadata for Realitio.",
          "_realitio": "Realitio contract address."
        }
      },
      "handleNotifiedRequest(bytes32,address)": {
        "details": "This method exists because `receiveArbitrationRequest` is called by the AMB and cannot send messages back to it.",
        "params": {
          "_questionID": "The ID of the question.",
          "_requester": "The address of the user that requested arbitration."
        }
      },
      "handleRejectedRequest(bytes32,address)": {
        "details": "This method exists because `receiveArbitrationRequest` is called by the AMB and cannot send messages back to it. Reasons why the request might be rejected:  - The question does not exist  - The question was not answered yet  - The question bond value changed while the arbitration was being requested  - Another request was already accepted",
        "params": {
          "_questionID": "The ID of the question.",
          "_requester": "The address of the user that requested arbitration."
        }
      },
      "isComposeMsgSender((uint32,bytes32,uint64),bytes,address)": {
        "details": "_origin The origin information containing the source endpoint and sender address.  - srcEid: The source chain endpoint ID.  - sender: The sender address on the src chain.  - nonce: The nonce of the message._message The lzReceive payload.Applications can optionally choose to implement separate composeMsg senders that are NOT the bridging layer.The default sender IS the OAppReceiver implementer.",
        "params": {
          "_sender": "The sender address."
        },
        "returns": {
          "_0": "isSender Is a valid sender."
        }
      },
      "lzReceive((uint32,bytes32,uint64),bytes32,bytes,address,bytes)": {
        "details": "Entry point for receiving messages or packets from the endpoint.Entry point for receiving msg/packet from the LayerZero endpoint.",
        "params": {
          "_executor": "The address of the executor for the received message.",
          "_extraData": "Additional arbitrary data provided by the corresponding executor.",
          "_guid": "The unique identifier for the received LayerZero message.",
          "_message": "The payload of the received message.",
          "_origin": "The origin information containing the source endpoint and sender address.  - srcEid: The source chain endpoint ID.  - sender: The sender address on the src chain.  - nonce: The nonce of the message."
        }
      },
      "nextNonce(uint32,bytes32)": {
        "details": "_srcEid The source endpoint ID._sender The sender address.The path nonce starts from 1. If 0 is returned it means that there is NO nonce ordered enforcement.Is required by the off-chain executor to determine the OApp expects msg execution is ordered.This is also enforced by the OApp.By default this is NOT enabled. ie. nextNonce is hardcoded to return 0.",
        "returns": {
          "nonce": "The next nonce."
        }
      },
      "oAppVersion()": {
        "returns": {
          "receiverVersion": "The version of the OAppReceiver.sol implementation.",
          "senderVersion": "The version of the OAppSender.sol implementation."
        }
      },
      "owner()": {
        "details": "Returns the address of the current owner."
      },
      "receiveArbitrationAnswer(bytes32,bytes32)": {
        "params": {
          "_answer": "The answer from the arbitrator.",
          "_questionID": "The ID of the question."
        }
      },
      "receiveArbitrationFailure(bytes32,address)": {
        "details": "Currently this can happen only if the arbitration cost increased.",
        "params": {
          "_questionID": "The ID of the question.",
          "_requester": "The address of the user that requested arbitration."
        }
      },
      "receiveArbitrationRequest(bytes32,address,uint256)": {
        "details": "Receives the requested arbitration for a question. TRUSTED.",
        "params": {
          "_maxPrevious": "The maximum value of the previous bond for the question.",
          "_questionID": "The ID of the question.",
          "_requester": "The address of the user that requested arbitration."
        }
      },
      "renounceOwnership()": {
        "details": "Leaves the contract without owner. It will not be possible to call `onlyOwner` functions. Can only be called by the current owner. NOTE: Renouncing ownership will leave the contract without an owner, thereby disabling any functionality that is only available to the owner."
      },
      "reportArbitrationAnswer(bytes32,bytes32,bytes32,address)": {
        "details": "The Realitio contract validates the input parameters passed to this method, so making this publicly accessible is safe.",
        "params": {
          "_lastAnswerOrCommitmentID": "The last answer given, or its commitment ID if it was a commitment, to the question in the Realitio contract.",
          "_lastAnswerer": "The last answerer to the question in the Realitio contract.",
          "_lastHistoryHash": "The history hash given with the last answer to the question in the Realitio contract.",
          "_questionID": "The ID of the question."
        }
      },
      "setDelegate(address)": {
        "details": "Only the owner/admin of the OApp can call this function.Provides the ability for a delegate to set configs, on behalf of the OApp, directly on the Endpoint contract.",
        "params": {
          "_delegate": "The address of the delegate to be set."
        }
      },
      "setEnforcedOptions((uint32,uint16,bytes)[])": {
        "details": "Sets the enforced options for specific endpoint and message type combinations.Only the owner/admin of the OApp can call this function.Provides a way for the OApp to enforce things like paying for PreCrime, AND/OR minimum dst lzReceive gas amounts etc.These enforced options can vary as the potential options/execution on the remote may differ as per the msgType. eg. Amount of lzReceive() gas necessary to deliver a lzCompose() message adds overhead you dont want to pay if you are only making a standard LayerZero message ie. lzReceive() WITHOUT sendCompose().",
        "params": {
          "_enforcedOptions": "An array of EnforcedOptionParam structures specifying enforced options."
        }
      },
      "setPeer(uint32,bytes32)": {
        "details": "Only the owner/admin of the OApp can call this function.Indicates that the peer is trusted to send LayerZero messages to this OApp.Set this to bytes32(0) to remove the peer address.Peer is a bytes32 to accommodate non-evm chains.",
        "params": {
          "_eid": "The endpoint ID.",
          "_peer": "The address of the peer to be associated with the corresponding endpoint."
        }
      },
      "transferOwnership(address)": {
        "details": "Transfers ownership of the contract to a new account (`newOwner`). Can only be called by the current owner."
      },
      "withdrawETH(uint256)": {
        "params": {
          "_amount": "The amount of ETH to withdraw."
        }
      }
    },
    "stateVariables": {
      "foreignEid": {
        "details": "The endpoint ID where the foreign proxy is deployed."
      },
      "metadata": {
        "details": "Metadata for Realitio interface."
      },
      "questionIDToRequester": {
        "details": "Associates a question ID with the requester who succeeded in requesting arbitration. questionIDToRequester[questionID]"
      },
      "realitio": {
        "details": "The address of the Realitio contract (v2.1+ required). TRUSTED."
      },
      "requests": {
        "details": "Associates an arbitration request with a question ID and a requester address. requests[questionID][requester]"
      }
    },
    "title": "Arbitration proxy for Realitio on the Oracle side (A.K.A. the Home Chain).",
    "version": 1
  },
  "userdoc": {
    "events": {
      "ArbitrationFailed(bytes32,address)": {
        "notice": "To be emitted when the dispute could not be created on the Foreign Chain."
      },
      "ArbitrationFinished(bytes32)": {
        "notice": "To be emitted when reporting the arbitrator answer to Realitio."
      },
      "ArbitratorAnswered(bytes32,bytes32)": {
        "notice": "To be emitted when receiving the answer from the arbitrator."
      },
      "RequestAcknowledged(bytes32,address)": {
        "notice": "To be emitted when the arbitration request acknowledgement is sent to the Foreign Chain."
      },
      "RequestCanceled(bytes32,address)": {
        "notice": "To be emitted when the arbitration request is canceled."
      },
      "RequestNotified(bytes32,address,uint256)": {
        "notice": "To be emitted when the Realitio contract has been notified of an arbitration request."
      },
      "RequestRejected(bytes32,address,uint256,string)": {
        "notice": "To be emitted when arbitration request is rejected."
      }
    },
    "kind": "user",
    "methods": {
      "_decodeMessage(bytes)": {
        "notice": "External decoder functions for safe message parsing."
      },
      "allowInitializePath((uint32,bytes32,uint64))": {
        "notice": "Checks if the path initialization is allowed based on the provided origin."
      },
      "combineOptions(uint32,uint16,bytes)": {
        "notice": "Combines options for a given endpoint and message type."
      },
      "constructor": {
        "notice": "Creates an arbitration proxy on the home chain."
      },
      "endpoint()": {
        "notice": "Retrieves the LayerZero endpoint associated with the OApp."
      },
      "handleNotifiedRequest(bytes32,address)": {
        "notice": "Handles arbitration request after it has been notified to Realitio for a given question."
      },
      "handleRejectedRequest(bytes32,address)": {
        "notice": "Handles arbitration request after it has been rejected."
      },
      "isComposeMsgSender((uint32,bytes32,uint64),bytes,address)": {
        "notice": "Indicates whether an address is an approved composeMsg sender to the Endpoint."
      },
      "nextNonce(uint32,bytes32)": {
        "notice": "Retrieves the next nonce for a given source endpoint and sender address."
      },
      "oAppVersion()": {
        "notice": "Retrieves the OApp version information."
      },
      "peers(uint32)": {
        "notice": "Retrieves the peer (OApp) associated with a corresponding endpoint."
      },
      "receiveArbitrationAnswer(bytes32,bytes32)": {
        "notice": "Receives an answer to a specified question. TRUSTED."
      },
      "receiveArbitrationFailure(bytes32,address)": {
        "notice": "Receives a failed attempt to request arbitration. TRUSTED."
      },
      "reportArbitrationAnswer(bytes32,bytes32,bytes32,address)": {
        "notice": "Reports the answer provided by the arbitrator to a specified question."
      },
      "setDelegate(address)": {
        "notice": "Sets the delegate address for the OApp."
      },
      "setPeer(uint32,bytes32)": {
        "notice": "Sets the peer address (OApp instance) for a corresponding endpoint."
      },
      "withdrawETH(uint256)": {
        "notice": "Allows the owner to withdraw ETH from the contract."
      }
    },
    "version": 1
  },
  "storageLayout": {
    "storage": [
      {
        "astId": 1694,
        "contract": "src/RealitioHomeProxyLZ.sol:RealitioHomeProxyLZ",
        "label": "_owner",
        "offset": 0,
        "slot": "0",
        "type": "t_address"
      },
      {
        "astId": 946,
        "contract": "src/RealitioHomeProxyLZ.sol:RealitioHomeProxyLZ",
        "label": "peers",
        "offset": 0,
        "slot": "1",
        "type": "t_mapping(t_uint32,t_bytes32)"
      },
      {
        "astId": 1542,
        "contract": "src/RealitioHomeProxyLZ.sol:RealitioHomeProxyLZ",
        "label": "enforcedOptions",
        "offset": 0,
        "slot": "2",
        "type": "t_mapping(t_uint32,t_mapping(t_uint16,t_bytes_storage))"
      },
      {
        "astId": 3979,
        "contract": "src/RealitioHomeProxyLZ.sol:RealitioHomeProxyLZ",
        "label": "metadata",
        "offset": 0,
        "slot": "3",
        "type": "t_string_storage"
      },
      {
        "astId": 4000,
        "contract": "src/RealitioHomeProxyLZ.sol:RealitioHomeProxyLZ",
        "label": "requests",
        "offset": 0,
        "slot": "4",
        "type": "t_mapping(t_bytes32,t_mapping(t_address,t_struct(Request)3992_storage))"
      },
      {
        "astId": 4005,
        "contract": "src/RealitioHomeProxyLZ.sol:RealitioHomeProxyLZ",
        "label": "questionIDToRequester",
        "offset": 0,
        "slot": "5",
        "type": "t_mapping(t_bytes32,t_address)"
      }
    ],
    "types": {
      "t_address": {
        "encoding": "inplace",
        "label": "address",
        "numberOfBytes": "20"
      },
      "t_bytes32": {
        "encoding": "inplace",
        "label": "bytes32",
        "numberOfBytes": "32"
      },
      "t_bytes_storage": {
        "encoding": "bytes",
        "label": "bytes",
        "numberOfBytes": "32"
      },
      "t_enum(Status)3986": {
        "encoding": "inplace",
        "label": "enum RealitioHomeProxyLZ.Status",
        "numberOfBytes": "1"
      },
      "t_mapping(t_address,t_struct(Request)3992_storage)": {
        "encoding": "mapping",
        "key": "t_address",
        "label": "mapping(address => struct RealitioHomeProxyLZ.Request)",
        "numberOfBytes": "32",
        "value": "t_struct(Request)3992_storage"
      },
      "t_mapping(t_bytes32,t_address)": {
        "encoding": "mapping",
        "key": "t_bytes32",
        "label": "mapping(bytes32 => address)",
        "numberOfBytes": "32",
        "value": "t_address"
      },
      "t_mapping(t_bytes32,t_mapping(t_address,t_struct(Request)3992_storage))": {
        "encoding": "mapping",
        "key": "t_bytes32",
        "label": "mapping(bytes32 => mapping(address => struct RealitioHomeProxyLZ.Request))",
        "numberOfBytes": "32",
        "value": "t_mapping(t_address,t_struct(Request)3992_storage)"
      },
      "t_mapping(t_uint16,t_bytes_storage)": {
        "encoding": "mapping",
        "key": "t_uint16",
        "label": "mapping(uint16 => bytes)",
        "numberOfBytes": "32",
        "value": "t_bytes_storage"
      },
      "t_mapping(t_uint32,t_bytes32)": {
        "encoding": "mapping",
        "key": "t_uint32",
        "label": "mapping(uint32 => bytes32)",
        "numberOfBytes": "32",
        "value": "t_bytes32"
      },
      "t_mapping(t_uint32,t_mapping(t_uint16,t_bytes_storage))": {
        "encoding": "mapping",
        "key": "t_uint32",
        "label": "mapping(uint32 => mapping(uint16 => bytes))",
        "numberOfBytes": "32",
        "value": "t_mapping(t_uint16,t_bytes_storage)"
      },
      "t_string_storage": {
        "encoding": "bytes",
        "label": "string",
        "numberOfBytes": "32"
      },
      "t_struct(Request)3992_storage": {
        "encoding": "inplace",
        "label": "struct RealitioHomeProxyLZ.Request",
        "members": [
          {
            "astId": 3989,
            "contract": "src/RealitioHomeProxyLZ.sol:RealitioHomeProxyLZ",
            "label": "status",
            "offset": 0,
            "slot": "0",
            "type": "t_enum(Status)3986"
          },
          {
            "astId": 3991,
            "contract": "src/RealitioHomeProxyLZ.sol:RealitioHomeProxyLZ",
            "label": "arbitratorAnswer",
            "offset": 0,
            "slot": "1",
            "type": "t_bytes32"
          }
        ],
        "numberOfBytes": "64"
      },
      "t_uint16": {
        "encoding": "inplace",
        "label": "uint16",
        "numberOfBytes": "2"
      },
      "t_uint32": {
        "encoding": "inplace",
        "label": "uint32",
        "numberOfBytes": "4"
      }
    }
  }
}