{
  "address": "0x4D1B911801c4d100Ad49DD0161Abb50Bab288E3F",
  "abi": [
    {
      "inputs": [
        {
          "internalType": "contract IRealitio",
          "name": "_realitio",
          "type": "address"
        },
        {
          "internalType": "string",
          "name": "_metadata",
          "type": "string"
        },
        {
          "internalType": "uint32",
          "name": "_foreignEid",
          "type": "uint32"
        },
        {
          "internalType": "address",
          "name": "_endpoint",
          "type": "address"
        }
      ],
      "stateMutability": "nonpayable",
      "type": "constructor"
    },
    {
      "inputs": [
        {
          "internalType": "uint256",
          "name": "required",
          "type": "uint256"
        },
        {
          "internalType": "uint256",
          "name": "available",
          "type": "uint256"
        }
      ],
      "name": "InsufficientFundsForLayerZero",
      "type": "error"
    },
    {
      "inputs": [],
      "name": "InvalidDelegate",
      "type": "error"
    },
    {
      "inputs": [],
      "name": "InvalidEndpointCall",
      "type": "error"
    },
    {
      "inputs": [
        {
          "internalType": "uint16",
          "name": "optionType",
          "type": "uint16"
        }
      ],
      "name": "InvalidOptionType",
      "type": "error"
    },
    {
      "inputs": [
        {
          "internalType": "bytes",
          "name": "options",
          "type": "bytes"
        }
      ],
      "name": "InvalidOptions",
      "type": "error"
    },
    {
      "inputs": [],
      "name": "LzTokenUnavailable",
      "type": "error"
    },
    {
      "inputs": [
        {
          "internalType": "uint32",
          "name": "eid",
          "type": "uint32"
        }
      ],
      "name": "NoPeer",
      "type": "error"
    },
    {
      "inputs": [
        {
          "internalType": "uint256",
          "name": "msgValue",
          "type": "uint256"
        }
      ],
      "name": "NotEnoughNative",
      "type": "error"
    },
    {
      "inputs": [
        {
          "internalType": "address",
          "name": "addr",
          "type": "address"
        }
      ],
      "name": "OnlyEndpoint",
      "type": "error"
    },
    {
      "inputs": [
        {
          "internalType": "uint32",
          "name": "eid",
          "type": "uint32"
        },
        {
          "internalType": "bytes32",
          "name": "sender",
          "type": "bytes32"
        }
      ],
      "name": "OnlyPeer",
      "type": "error"
    },
    {
      "inputs": [
        {
          "internalType": "address",
          "name": "owner",
          "type": "address"
        }
      ],
      "name": "OwnableInvalidOwner",
      "type": "error"
    },
    {
      "inputs": [
        {
          "internalType": "address",
          "name": "account",
          "type": "address"
        }
      ],
      "name": "OwnableUnauthorizedAccount",
      "type": "error"
    },
    {
      "inputs": [
        {
          "internalType": "uint8",
          "name": "bits",
          "type": "uint8"
        },
        {
          "internalType": "uint256",
          "name": "value",
          "type": "uint256"
        }
      ],
      "name": "SafeCastOverflowedUintDowncast",
      "type": "error"
    },
    {
      "inputs": [
        {
          "internalType": "address",
          "name": "token",
          "type": "address"
        }
      ],
      "name": "SafeERC20FailedOperation",
      "type": "error"
    },
    {
      "anonymous": false,
      "inputs": [
        {
          "indexed": true,
          "internalType": "bytes32",
          "name": "_questionID",
          "type": "bytes32"
        },
        {
          "indexed": true,
          "internalType": "address",
          "name": "_requester",
          "type": "address"
        }
      ],
      "name": "ArbitrationFailed",
      "type": "event"
    },
    {
      "anonymous": false,
      "inputs": [
        {
          "indexed": true,
          "internalType": "bytes32",
          "name": "_questionID",
          "type": "bytes32"
        }
      ],
      "name": "ArbitrationFinished",
      "type": "event"
    },
    {
      "anonymous": false,
      "inputs": [
        {
          "indexed": true,
          "internalType": "bytes32",
          "name": "_questionID",
          "type": "bytes32"
        },
        {
          "indexed": false,
          "internalType": "bytes32",
          "name": "_answer",
          "type": "bytes32"
        }
      ],
      "name": "ArbitratorAnswered",
      "type": "event"
    },
    {
      "anonymous": false,
      "inputs": [
        {
          "components": [
            {
              "internalType": "uint32",
              "name": "eid",
              "type": "uint32"
            },
            {
              "internalType": "uint16",
              "name": "msgType",
              "type": "uint16"
            },
            {
              "internalType": "bytes",
              "name": "options",
              "type": "bytes"
            }
          ],
          "indexed": false,
          "internalType": "struct EnforcedOptionParam[]",
          "name": "_enforcedOptions",
          "type": "tuple[]"
        }
      ],
      "name": "EnforcedOptionSet",
      "type": "event"
    },
    {
      "anonymous": false,
      "inputs": [
        {
          "indexed": true,
          "internalType": "address",
          "name": "previousOwner",
          "type": "address"
        },
        {
          "indexed": true,
          "internalType": "address",
          "name": "newOwner",
          "type": "address"
        }
      ],
      "name": "OwnershipTransferred",
      "type": "event"
    },
    {
      "anonymous": false,
      "inputs": [
        {
          "indexed": false,
          "internalType": "uint32",
          "name": "eid",
          "type": "uint32"
        },
        {
          "indexed": false,
          "internalType": "bytes32",
          "name": "peer",
          "type": "bytes32"
        }
      ],
      "name": "PeerSet",
      "type": "event"
    },
    {
      "anonymous": false,
      "inputs": [
        {
          "indexed": true,
          "internalType": "bytes32",
          "name": "_questionID",
          "type": "bytes32"
        },
        {
          "indexed": true,
          "internalType": "address",
          "name": "_requester",
          "type": "address"
        }
      ],
      "name": "RequestAcknowledged",
      "type": "event"
    },
    {
      "anonymous": false,
      "inputs": [
        {
          "indexed": true,
          "internalType": "bytes32",
          "name": "_questionID",
          "type": "bytes32"
        },
        {
          "indexed": true,
          "internalType": "address",
          "name": "_requester",
          "type": "address"
        }
      ],
      "name": "RequestCanceled",
      "type": "event"
    },
    {
      "anonymous": false,
      "inputs": [
        {
          "indexed": true,
          "internalType": "bytes32",
          "name": "_questionID",
          "type": "bytes32"
        },
        {
          "indexed": true,
          "internalType": "address",
          "name": "_requester",
          "type": "address"
        },
        {
          "indexed": false,
          "internalType": "uint256",
          "name": "_maxPrevious",
          "type": "uint256"
        }
      ],
      "name": "RequestNotified",
      "type": "event"
    },
    {
      "anonymous": false,
      "inputs": [
        {
          "indexed": true,
          "internalType": "bytes32",
          "name": "_questionID",
          "type": "bytes32"
        },
        {
          "indexed": true,
          "internalType": "address",
          "name": "_requester",
          "type": "address"
        },
        {
          "indexed": false,
          "internalType": "uint256",
          "name": "_maxPrevious",
          "type": "uint256"
        },
        {
          "indexed": false,
          "internalType": "string",
          "name": "_reason",
          "type": "string"
        }
      ],
      "name": "RequestRejected",
      "type": "event"
    },
    {
      "inputs": [
        {
          "internalType": "bytes",
          "name": "_payload",
          "type": "bytes"
        }
      ],
      "name": "_decodeArbitrationAnswer",
      "outputs": [
        {
          "internalType": "bytes32",
          "name": "questionID",
          "type": "bytes32"
        },
        {
          "internalType": "bytes32",
          "name": "answer",
          "type": "bytes32"
        }
      ],
      "stateMutability": "pure",
      "type": "function"
    },
    {
      "inputs": [
        {
          "internalType": "bytes",
          "name": "_payload",
          "type": "bytes"
        }
      ],
      "name": "_decodeArbitrationFailure",
      "outputs": [
        {
          "internalType": "bytes32",
          "name": "questionID",
          "type": "bytes32"
        },
        {
          "internalType": "address",
          "name": "requester",
          "type": "address"
        }
      ],
      "stateMutability": "pure",
      "type": "function"
    },
    {
      "inputs": [
        {
          "internalType": "bytes",
          "name": "_payload",
          "type": "bytes"
        }
      ],
      "name": "_decodeArbitrationRequest",
      "outputs": [
        {
          "internalType": "bytes32",
          "name": "questionID",
          "type": "bytes32"
        },
        {
          "internalType": "address",
          "name": "requester",
          "type": "address"
        },
        {
          "internalType": "uint256",
          "name": "maxPrevious",
          "type": "uint256"
        }
      ],
      "stateMutability": "pure",
      "type": "function"
    },
    {
      "inputs": [
        {
          "internalType": "bytes",
          "name": "_message",
          "type": "bytes"
        }
      ],
      "name": "_decodeMessage",
      "outputs": [
        {
          "internalType": "uint16",
          "name": "msgType",
          "type": "uint16"
        },
        {
          "internalType": "bytes",
          "name": "payload",
          "type": "bytes"
        }
      ],
      "stateMutability": "pure",
      "type": "function"
    },
    {
      "inputs": [
        {
          "components": [
            {
              "internalType": "uint32",
              "name": "srcEid",
              "type": "uint32"
            },
            {
              "internalType": "bytes32",
              "name": "sender",
              "type": "bytes32"
            },
            {
              "internalType": "uint64",
              "name": "nonce",
              "type": "uint64"
            }
          ],
          "internalType": "struct Origin",
          "name": "origin",
          "type": "tuple"
        }
      ],
      "name": "allowInitializePath",
      "outputs": [
        {
          "internalType": "bool",
          "name": "",
          "type": "bool"
        }
      ],
      "stateMutability": "view",
      "type": "function"
    },
    {
      "inputs": [
        {
          "internalType": "uint32",
          "name": "_eid",
          "type": "uint32"
        },
        {
          "internalType": "uint16",
          "name": "_msgType",
          "type": "uint16"
        },
        {
          "internalType": "bytes",
          "name": "_extraOptions",
          "type": "bytes"
        }
      ],
      "name": "combineOptions",
      "outputs": [
        {
          "internalType": "bytes",
          "name": "",
          "type": "bytes"
        }
      ],
      "stateMutability": "view",
      "type": "function"
    },
    {
      "inputs": [],
      "name": "endpoint",
      "outputs": [
        {
          "internalType": "contract ILayerZeroEndpointV2",
          "name": "",
          "type": "address"
        }
      ],
      "stateMutability": "view",
      "type": "function"
    },
    {
      "inputs": [
        {
          "internalType": "uint32",
          "name": "eid",
          "type": "uint32"
        },
        {
          "internalType": "uint16",
          "name": "msgType",
          "type": "uint16"
        }
      ],
      "name": "enforcedOptions",
      "outputs": [
        {
          "internalType": "bytes",
          "name": "enforcedOption",
          "type": "bytes"
        }
      ],
      "stateMutability": "view",
      "type": "function"
    },
    {
      "inputs": [],
      "name": "foreignEid",
      "outputs": [
        {
          "internalType": "uint32",
          "name": "",
          "type": "uint32"
        }
      ],
      "stateMutability": "view",
      "type": "function"
    },
    {
      "inputs": [
        {
          "internalType": "bytes32",
          "name": "_questionID",
          "type": "bytes32"
        },
        {
          "internalType": "address",
          "name": "_requester",
          "type": "address"
        }
      ],
      "name": "handleNotifiedRequest",
      "outputs": [],
      "stateMutability": "nonpayable",
      "type": "function"
    },
    {
      "inputs": [
        {
          "internalType": "bytes32",
          "name": "_questionID",
          "type": "bytes32"
        },
        {
          "internalType": "address",
          "name": "_requester",
          "type": "address"
        }
      ],
      "name": "handleRejectedRequest",
      "outputs": [],
      "stateMutability": "nonpayable",
      "type": "function"
    },
    {
      "inputs": [
        {
          "components": [
            {
              "internalType": "uint32",
              "name": "srcEid",
              "type": "uint32"
            },
            {
              "internalType": "bytes32",
              "name": "sender",
              "type": "bytes32"
            },
            {
              "internalType": "uint64",
              "name": "nonce",
              "type": "uint64"
            }
          ],
          "internalType": "struct Origin",
          "name": "",
          "type": "tuple"
        },
        {
          "internalType": "bytes",
          "name": "",
          "type": "bytes"
        },
        {
          "internalType": "address",
          "name": "_sender",
          "type": "address"
        }
      ],
      "name": "isComposeMsgSender",
      "outputs": [
        {
          "internalType": "bool",
          "name": "",
          "type": "bool"
        }
      ],
      "stateMutability": "view",
      "type": "function"
    },
    {
      "inputs": [
        {
          "components": [
            {
              "internalType": "uint32",
              "name": "srcEid",
              "type": "uint32"
            },
            {
              "internalType": "bytes32",
              "name": "sender",
              "type": "bytes32"
            },
            {
              "internalType": "uint64",
              "name": "nonce",
              "type": "uint64"
            }
          ],
          "internalType": "struct Origin",
          "name": "_origin",
          "type": "tuple"
        },
        {
          "internalType": "bytes32",
          "name": "_guid",
          "type": "bytes32"
        },
        {
          "internalType": "bytes",
          "name": "_message",
          "type": "bytes"
        },
        {
          "internalType": "address",
          "name": "_executor",
          "type": "address"
        },
        {
          "internalType": "bytes",
          "name": "_extraData",
          "type": "bytes"
        }
      ],
      "name": "lzReceive",
      "outputs": [],
      "stateMutability": "payable",
      "type": "function"
    },
    {
      "inputs": [],
      "name": "metadata",
      "outputs": [
        {
          "internalType": "string",
          "name": "",
          "type": "string"
        }
      ],
      "stateMutability": "view",
      "type": "function"
    },
    {
      "inputs": [
        {
          "internalType": "uint32",
          "name": "",
          "type": "uint32"
        },
        {
          "internalType": "bytes32",
          "name": "",
          "type": "bytes32"
        }
      ],
      "name": "nextNonce",
      "outputs": [
        {
          "internalType": "uint64",
          "name": "nonce",
          "type": "uint64"
        }
      ],
      "stateMutability": "view",
      "type": "function"
    },
    {
      "inputs": [],
      "name": "oAppVersion",
      "outputs": [
        {
          "internalType": "uint64",
          "name": "senderVersion",
          "type": "uint64"
        },
        {
          "internalType": "uint64",
          "name": "receiverVersion",
          "type": "uint64"
        }
      ],
      "stateMutability": "pure",
      "type": "function"
    },
    {
      "inputs": [],
      "name": "owner",
      "outputs": [
        {
          "internalType": "address",
          "name": "",
          "type": "address"
        }
      ],
      "stateMutability": "view",
      "type": "function"
    },
    {
      "inputs": [
        {
          "internalType": "uint32",
          "name": "eid",
          "type": "uint32"
        }
      ],
      "name": "peers",
      "outputs": [
        {
          "internalType": "bytes32",
          "name": "peer",
          "type": "bytes32"
        }
      ],
      "stateMutability": "view",
      "type": "function"
    },
    {
      "inputs": [
        {
          "internalType": "bytes32",
          "name": "",
          "type": "bytes32"
        }
      ],
      "name": "questionIDToRequester",
      "outputs": [
        {
          "internalType": "address",
          "name": "",
          "type": "address"
        }
      ],
      "stateMutability": "view",
      "type": "function"
    },
    {
      "inputs": [],
      "name": "realitio",
      "outputs": [
        {
          "internalType": "contract IRealitio",
          "name": "",
          "type": "address"
        }
      ],
      "stateMutability": "view",
      "type": "function"
    },
    {
      "inputs": [
        {
          "internalType": "bytes32",
          "name": "_questionID",
          "type": "bytes32"
        },
        {
          "internalType": "bytes32",
          "name": "_answer",
          "type": "bytes32"
        }
      ],
      "name": "receiveArbitrationAnswer",
      "outputs": [],
      "stateMutability": "nonpayable",
      "type": "function"
    },
    {
      "inputs": [
        {
          "internalType": "bytes32",
          "name": "_questionID",
          "type": "bytes32"
        },
        {
          "internalType": "address",
          "name": "_requester",
          "type": "address"
        }
      ],
      "name": "receiveArbitrationFailure",
      "outputs": [],
      "stateMutability": "nonpayable",
      "type": "function"
    },
    {
      "inputs": [
        {
          "internalType": "bytes32",
          "name": "_questionID",
          "type": "bytes32"
        },
        {
          "internalType": "address",
          "name": "_requester",
          "type": "address"
        },
        {
          "internalType": "uint256",
          "name": "_maxPrevious",
          "type": "uint256"
        }
      ],
      "name": "receiveArbitrationRequest",
      "outputs": [],
      "stateMutability": "nonpayable",
      "type": "function"
    },
    {
      "inputs": [],
      "name": "renounceOwnership",
      "outputs": [],
      "stateMutability": "nonpayable",
      "type": "function"
    },
    {
      "inputs": [
        {
          "internalType": "bytes32",
          "name": "_questionID",
          "type": "bytes32"
        },
        {
          "internalType": "bytes32",
          "name": "_lastHistoryHash",
          "type": "bytes32"
        },
        {
          "internalType": "bytes32",
          "name": "_lastAnswerOrCommitmentID",
          "type": "bytes32"
        },
        {
          "internalType": "address",
          "name": "_lastAnswerer",
          "type": "address"
        }
      ],
      "name": "reportArbitrationAnswer",
      "outputs": [],
      "stateMutability": "nonpayable",
      "type": "function"
    },
    {
      "inputs": [
        {
          "internalType": "bytes32",
          "name": "",
          "type": "bytes32"
        },
        {
          "internalType": "address",
          "name": "",
          "type": "address"
        }
      ],
      "name": "requests",
      "outputs": [
        {
          "internalType": "enum RealitioHomeProxyLZ.Status",
          "name": "status",
          "type": "uint8"
        },
        {
          "internalType": "bytes32",
          "name": "arbitratorAnswer",
          "type": "bytes32"
        }
      ],
      "stateMutability": "view",
      "type": "function"
    },
    {
      "inputs": [
        {
          "internalType": "address",
          "name": "_delegate",
          "type": "address"
        }
      ],
      "name": "setDelegate",
      "outputs": [],
      "stateMutability": "nonpayable",
      "type": "function"
    },
    {
      "inputs": [
        {
          "components": [
            {
              "internalType": "uint32",
              "name": "eid",
              "type": "uint32"
            },
            {
              "internalType": "uint16",
              "name": "msgType",
              "type": "uint16"
            },
            {
              "internalType": "bytes",
              "name": "options",
              "type": "bytes"
            }
          ],
          "internalType": "struct EnforcedOptionParam[]",
          "name": "_enforcedOptions",
          "type": "tuple[]"
        }
      ],
      "name": "setEnforcedOptions",
      "outputs": [],
      "stateMutability": "nonpayable",
      "type": "function"
    },
    {
      "inputs": [
        {
          "internalType": "uint32",
          "name": "_eid",
          "type": "uint32"
        },
        {
          "internalType": "bytes32",
          "name": "_peer",
          "type": "bytes32"
        }
      ],
      "name": "setPeer",
      "outputs": [],
      "stateMutability": "nonpayable",
      "type": "function"
    },
    {
      "inputs": [
        {
          "internalType": "address",
          "name": "newOwner",
          "type": "address"
        }
      ],
      "name": "transferOwnership",
      "outputs": [],
      "stateMutability": "nonpayable",
      "type": "function"
    },
    {
      "inputs": [
        {
          "internalType": "uint256",
          "name": "_amount",
          "type": "uint256"
        }
      ],
      "name": "withdrawETH",
      "outputs": [],
      "stateMutability": "nonpayable",
      "type": "function"
    },
    {
      "stateMutability": "payable",
      "type": "receive"
    }
  ],
  "transactionHash": "0x8c2a712fc686af68882ec400c5722a9e28ccbf5f60669ea36fbb33903a59aeca",
  "args": [
    "0xaf33DcB6E8c5c4D9dDF579f53031b514d19449CA",
    "",
    40231,
    "0x6EDCE65403992e310A62460808c4b910D972f10f"
  ],
  "numDeployments": 1,
  "solcInputHash": "2fc5a3ad29f8a3b6b7fab5b4cc69b09d",
  "bytecode": "0x60e06040523480156200001157600080fd5b5060405162003702380380620037028339810160408190526200003491620001d6565b8033818180806200005f57604051631e4fbdf760e01b81526000600482015260240160405180910390fd5b6200006a8162000130565b506001600160a01b0380831660805281166200009957604051632d618d8160e21b815260040160405180910390fd5b60805160405163ca5eb5e160e01b81526001600160a01b0383811660048301529091169063ca5eb5e190602401600060405180830381600087803b158015620000e157600080fd5b505af1158015620000f6573d6000803e3d6000fd5b505050506001600160a01b03881660a05250600392506200011c91508590508262000377565b505063ffffffff1660c05250620004439050565b600080546001600160a01b038381166001600160a01b0319831681178455604051919092169283917f8be0079c531659141344cd1fd0a4f28419497f9722a3daafe3b4186f6b6457e09190a35050565b6001600160a01b03811681146200019657600080fd5b50565b634e487b7160e01b600052604160045260246000fd5b805163ffffffff81168114620001c457600080fd5b919050565b8051620001c48162000180565b60008060008060808587031215620001ed57600080fd5b8451620001fa8162000180565b602086810151919550906001600160401b03808211156200021a57600080fd5b818801915088601f8301126200022f57600080fd5b81518181111562000244576200024462000199565b604051601f8201601f19908116603f011681019083821181831017156200026f576200026f62000199565b816040528281528b868487010111156200028857600080fd5b600093505b82841015620002ac57848401860151818501870152928501926200028d565b6000868483010152809850505050505050620002cb60408601620001af565b9150620002db60608601620001c9565b905092959194509250565b600181811c90821680620002fb57607f821691505b6020821081036200031c57634e487b7160e01b600052602260045260246000fd5b50919050565b601f82111562000372576000816000526020600020601f850160051c810160208610156200034d5750805b601f850160051c820191505b818110156200036e5782815560010162000359565b5050505b505050565b81516001600160401b0381111562000393576200039362000199565b620003ab81620003a48454620002e6565b8462000322565b602080601f831160018114620003e35760008415620003ca5750858301515b600019600386901b1c1916600185901b1785556200036e565b600085815260208120601f198616915b828110156200041457888601518255948401946001909101908401620003f3565b5085821015620004335787850151600019600388901b60f8161c191681555b5050505050600190811b01905550565b60805160a05160c051613226620004dc6000396000818161048301528181610b9201528181610c0d01528181610c6b01528181610f940152818161100f015261106d015260008181610567015281816108d701528181611b9c0152611d520152600081816103b4015281816107130152818161111501528181611798015281816118960152818161219a015261225301526132266000f3fe6080604052600436106101dc5760003560e01c8063902f841311610102578063c77cccc911610095578063e809173c11610064578063e809173c1461067c578063f14210a6146106b1578063f2fde38b146106d1578063ff7bd03d146106f157600080fd5b8063c77cccc9146105fc578063ca5eb5e11461061c578063ccd6e8d21461063c578063d75a86e01461065c57600080fd5b8063bc70b354116100d1578063bc70b35414610535578063bc8802a214610555578063bf6569e014610589578063c510faf7146105a957600080fd5b8063902f84131461047157806391602fd7146104ba578063b98bd070146104da578063bb0b6a53146104fa57600080fd5b8063392f37e91161017a578063715018a611610149578063715018a6146103d65780637d25a05e146103eb57806382413eac146104235780638da5cb5b1461045357600080fd5b8063392f37e91461031d578063452052951461033f5780635535d461146103825780635e280f11146103a257600080fd5b80631ec8b4e8116101b65780631ec8b4e814610272578063241a9f82146102af57806324fd4c05146102cf5780633400288b146102fd57600080fd5b806313137d65146101e857806317442b70146101fd5780631865fed11461022457600080fd5b366101e357005b600080fd5b6101fb6101f6366004612422565b610711565b005b34801561020957600080fd5b50604080516001815260026020820152015b60405180910390f35b34801561023057600080fd5b5061025a61023f3660046124c1565b6005602052600090815260409020546001600160a01b031681565b6040516001600160a01b03909116815260200161021b565b34801561027e57600080fd5b5061029261028d3660046125c4565b6107d1565b604080519283526001600160a01b0390911660208301520161021b565b3480156102bb57600080fd5b506101fb6102ca3660046125f8565b6107f1565b3480156102db57600080fd5b506102ef6102ea366004612639565b610966565b60405161021b9291906126ca565b34801561030957600080fd5b506101fb610318366004612700565b610982565b34801561032957600080fd5b50610332610998565b60405161021b919061272a565b34801561034b57600080fd5b5061035f61035a3660046125c4565b610a26565b604080519384526001600160a01b0390921660208401529082015260600161021b565b34801561038e57600080fd5b5061033261039d36600461274d565b610a4c565b3480156103ae57600080fd5b5061025a7f000000000000000000000000000000000000000000000000000000000000000081565b3480156103e257600080fd5b506101fb610a70565b3480156103f757600080fd5b5061040b610406366004612700565b610a84565b6040516001600160401b03909116815260200161021b565b34801561042f57600080fd5b5061044361043e366004612784565b610a8d565b604051901515815260200161021b565b34801561045f57600080fd5b506000546001600160a01b031661025a565b34801561047d57600080fd5b506104a57f000000000000000000000000000000000000000000000000000000000000000081565b60405163ffffffff909116815260200161021b565b3480156104c657600080fd5b506101fb6104d53660046127df565b610aa2565b3480156104e657600080fd5b506101fb6104f5366004612804565b610cec565b34801561050657600080fd5b50610527610515366004612878565b60016020526000908152604090205481565b60405190815260200161021b565b34801561054157600080fd5b50610332610550366004612893565b610d06565b34801561056157600080fd5b5061025a7f000000000000000000000000000000000000000000000000000000000000000081565b34801561059557600080fd5b506101fb6105a43660046127df565b610eae565b3480156105b557600080fd5b506105ee6105c43660046127df565b60046020908152600092835260408084209091529082529020805460019091015460ff9091169082565b60405161021b92919061290b565b34801561060857600080fd5b506101fb6106173660046127df565b610eb8565b34801561062857600080fd5b506101fb610637366004612937565b6110ee565b34801561064857600080fd5b506101fb610657366004612954565b611174565b34801561066857600080fd5b506101fb61067736600461298c565b611184565b34801561068857600080fd5b5061069c6106973660046125c4565b61118e565b6040805192835260208301919091520161021b565b3480156106bd57600080fd5b506101fb6106cc3660046124c1565b6111a5565b3480156106dd57600080fd5b506101fb6106ec366004612937565b61122d565b3480156106fd57600080fd5b5061044361070c3660046129ae565b61126b565b7f00000000000000000000000000000000000000000000000000000000000000006001600160a01b03163314610761576040516391ac5e4f60e01b81523360048201526024015b60405180910390fd5b6020870180359061077b90610776908a612878565b6112a1565b146107b95761078d6020880188612878565b60405163309afaf360e21b815263ffffffff909116600482015260208801356024820152604401610758565b6107c8878787878787876112dd565b50505050505050565b600080828060200190518101906107e891906129ca565b91509150915091565b60008481526005602090815260408083205460048084528285206001600160a01b0390921680865291909352922090815460ff166005811115610836576108366128f5565b146108835760405162461bcd60e51b815260206004820152601c60248201527f41726269747261746f7220686173206e6f742072756c656420796574000000006044820152606401610758565b805460ff1916600517815560018101546040516335138a4f60e21b81526004810188905260248101919091526001600160a01b038381166044830152606482018790526084820186905284811660a48301527f0000000000000000000000000000000000000000000000000000000000000000169063d44e293c9060c401600060405180830381600087803b15801561091b57600080fd5b505af115801561092f573d6000803e3d6000fd5b50506040518892507f2abf2fd86256e4607561adae782a4853682b6c0b976995a9a45c5fc3a17573869150600090a2505050505050565b60006060610976838501856129ef565b915091505b9250929050565b61098a611648565b6109948282611675565b5050565b600380546109a590612a3e565b80601f01602080910402602001604051908101604052809291908181526020018280546109d190612a3e565b8015610a1e5780601f106109f357610100808354040283529160200191610a1e565b820191906000526020600020905b815481529060010190602001808311610a0157829003601f168201915b505050505081565b600080600083806020019051810190610a3f9190612a72565b9250925092509193909250565b6002602090815260009283526040808420909152908252902080546109a590612a3e565b610a78611648565b610a8260006116ca565b565b60005b92915050565b6001600160a01b03811630145b949350505050565b60008281526004602090815260408083206001600160a01b038516845290915290206002815460ff166005811115610adc57610adc6128f5565b14610af95760405162461bcd60e51b815260040161075890612aab565b805460ff1916600317815560408051600260208201529081018490526001600160a01b038316606082015260009060800160405160208183030381529060405290506000610b71610b6660408051600360f01b602082015281516002818303018152602290910190915290565b620f4240600061171a565b604051632f1c2cd560e21b8152909150600090309063bc70b35490610bbf907f0000000000000000000000000000000000000000000000000000000000000000906002908790600401612adb565b600060405180830381865afa158015610bdc573d6000803e3d6000fd5b505050506040513d6000823e601f3d908101601f19168201604052610c049190810190612b53565b90506000610c357f000000000000000000000000000000000000000000000000000000000000000085846000611782565b8051909150471015610c665780516040516334b2107560e11b81526004810191909152476024820152604401610758565b610cac7f00000000000000000000000000000000000000000000000000000000000000008584604051806040016040528086600001518152602001600081525030611863565b506040516001600160a01b0387169088907fff09615c531ab8799ea1c67a0952ddbef1c864ef91d390995d0dc07656f4210f90600090a350505050505050565b610cf4611648565b610994610d018284612b87565b61196e565b63ffffffff8416600090815260026020908152604080832061ffff87168452909152812080546060929190610d3a90612a3e565b80601f0160208091040260200160405190810160405280929190818152602001828054610d6690612a3e565b8015610db35780601f10610d8857610100808354040283529160200191610db3565b820191906000526020600020905b815481529060010190602001808311610d9657829003601f168201915b505050505090508051600003610e035783838080601f016020809104026020016040519081016040528093929190818152602001838380828437600092019190915250929450610a9a9350505050565b6000839003610e13579050610a9a565b60028310610e9157610e5a84848080601f016020809104026020016040519081016040528093929190818152602001838380828437600092019190915250611a8092505050565b80610e688460028188612c62565b604051602001610e7a93929190612c8c565b604051602081830303815290604052915050610a9a565b8383604051639a6d49cd60e01b8152600401610758929190612cb4565b6109948282611aac565b60008281526004602090815260408083206001600160a01b038516845290915290206001815460ff166005811115610ef257610ef26128f5565b14610f0f5760405162461bcd60e51b815260040161075890612aab565b805460ff1916815560408051600360208201528082018590526001600160a01b03841660608083019190915282518083039091018152608082018352600360f01b60a08301528251608281840301815260a2909201909252600090610f7390610b66565b604051632f1c2cd560e21b8152909150600090309063bc70b35490610fc1907f0000000000000000000000000000000000000000000000000000000000000000906003908790600401612adb565b600060405180830381865afa158015610fde573d6000803e3d6000fd5b505050506040513d6000823e601f3d908101601f191682016040526110069190810190612b53565b905060006110377f000000000000000000000000000000000000000000000000000000000000000085846000611782565b80519091504710156110685780516040516334b2107560e11b81526004810191909152476024820152604401610758565b6110ae7f00000000000000000000000000000000000000000000000000000000000000008584604051806040016040528086600001518152602001600081525030611863565b506040516001600160a01b0387169088907ff313a768599b60b7f8aedb7757d867d09463365b79b55b86ed3c961e6da5a24990600090a350505050505050565b6110f6611648565b60405163ca5eb5e160e01b81526001600160a01b0382811660048301527f0000000000000000000000000000000000000000000000000000000000000000169063ca5eb5e190602401600060405180830381600087803b15801561115957600080fd5b505af115801561116d573d6000803e3d6000fd5b5050505050565b61117f838383611c33565b505050565b6109948282611efd565b600080828060200190518101906107e89190612ce3565b6111ad611648565b478111156111f45760405162461bcd60e51b8152602060048201526014602482015273496e73756666696369656e742062616c616e636560601b6044820152606401610758565b600080546040516001600160a01b039091169183156108fc02918491818181858888f19350505050158015610994573d6000803e3d6000fd5b611235611648565b6001600160a01b03811661125f57604051631e4fbdf760e01b815260006004820152602401610758565b611268816116ca565b50565b60006020820180359060019083906112839086612878565b63ffffffff1681526020810191909152604001600020541492915050565b63ffffffff811660009081526001602052604081205480610a875760405163f6ff4fb760e01b815263ffffffff84166004820152602401610758565b6040516324fd4c0560e01b815260009060609030906324fd4c0590611308908a908a90600401612cb4565b600060405180830381865afa92505050801561134657506040513d6000823e601f3d908101601f191682016040526113439190810190612d07565b60015b61138b5760405162461bcd60e51b8152602060048201526016602482015275125b9d985b1a59081b595cdcd859d948199bdc9b585d60521b6044820152606401610758565b909250905060001961ffff83160161146457604051634520529560e01b815230906345205295906113c090849060040161272a565b606060405180830381865afa9250505080156113f9575060408051601f3d908101601f191682019092526113f691810190612a72565b60015b6114515760405162461bcd60e51b815260206004820152602360248201527f496e76616c6964206172626974726174696f6e2072657175657374207061796c6044820152621bd85960ea1b6064820152608401610758565b61145c838383611c33565b50505061163d565b60031961ffff831601611535576040516303d9169d60e31b81523090631ec8b4e89061149490849060040161272a565b6040805180830381865afa9250505080156114cc575060408051601f3d908101601f191682019092526114c9918101906129ca565b60015b6115245760405162461bcd60e51b815260206004820152602360248201527f496e76616c6964206172626974726174696f6e206661696c757265207061796c6044820152621bd85960ea1b6064820152608401610758565b61152e8282611aac565b505061163d565b60041961ffff8316016115fe57604051633a0245cf60e21b8152309063e809173c9061156590849060040161272a565b6040805180830381865afa92505050801561159d575060408051601f3d908101601f1916820190925261159a91810190612ce3565b60015b6115f45760405162461bcd60e51b815260206004820152602260248201527f496e76616c6964206172626974726174696f6e20616e73776572207061796c6f604482015261185960f21b6064820152608401610758565b61152e8282611efd565b60405162461bcd60e51b8152602060048201526014602482015273556e6b6e6f776e206d657373616765207479706560601b6044820152606401610758565b505050505050505050565b6000546001600160a01b03163314610a825760405163118cdaa760e01b8152336004820152602401610758565b63ffffffff8216600081815260016020908152604091829020849055815192835282018390527f238399d427b947898edb290f5ff0f9109849b1c3ba196a42e35f00c50a54b98b910160405180910390a15050565b600080546001600160a01b038381166001600160a01b0319831681178455604051919092169283917f8be0079c531659141344cd1fd0a4f28419497f9722a3daafe3b4186f6b6457e09190a35050565b606083600361172a826000612023565b61ffff161461175e5761173e816000612023565b604051633a51740d60e01b815261ffff9091166004820152602401610758565b600061176a8585612080565b905061177886600183612102565b9695505050505050565b60408051808201909152600080825260208201527f00000000000000000000000000000000000000000000000000000000000000006001600160a01b031663ddc28c586040518060a001604052808863ffffffff1681526020016117e5896112a1565b8152602001878152602001868152602001851515815250306040518363ffffffff1660e01b815260040161181a929190612d4d565b6040805180830381865afa158015611836573d6000803e3d6000fd5b505050506040513d601f19601f8201168201806040525081019061185a9190612e14565b95945050505050565b61186b61236d565b600061187a846000015161216d565b602085015190915015611894576118948460200151612196565b7f00000000000000000000000000000000000000000000000000000000000000006001600160a01b0316632637a450826040518060a001604052808b63ffffffff1681526020016118e48c6112a1565b81526020018a815260200189815260200160008960200151111515815250866040518463ffffffff1660e01b8152600401611920929190612d4d565b60806040518083038185885af115801561193e573d6000803e3d6000fd5b50505050506040513d601f19601f820116820180604052508101906119639190612e30565b979650505050505050565b60005b8151811015611a45576119a082828151811061198f5761198f612e8a565b602002602001015160400151611a80565b8181815181106119b2576119b2612e8a565b602002602001015160400151600260008484815181106119d4576119d4612e8a565b60200260200101516000015163ffffffff1663ffffffff1681526020019081526020016000206000848481518110611a0e57611a0e612e8a565b60200260200101516020015161ffff1661ffff1681526020019081526020016000209081611a3c9190612ef0565b50600101611971565b507fbe4864a8e820971c0247f5992e2da559595f7bf076a21cb5928d443d2a13b67481604051611a759190612faf565b60405180910390a150565b600281015161ffff81166003146109945781604051639a6d49cd60e01b8152600401610758919061272a565b81611ac95760405162461bcd60e51b81526004016107589061302c565b6001600160a01b038116611b1f5760405162461bcd60e51b815260206004820181905260248201527f5265717565737465722063616e6e6f74206265207a65726f20616464726573736044820152606401610758565b60008281526004602090815260408083206001600160a01b038516845290915290206003815460ff166005811115611b5957611b596128f5565b14611b765760405162461bcd60e51b815260040161075890612aab565b805460ff19168155604051630ebbdd2b60e41b8152600481018490526001600160a01b037f0000000000000000000000000000000000000000000000000000000000000000169063ebbdd2b090602401600060405180830381600087803b158015611be057600080fd5b505af1158015611bf4573d6000803e3d6000fd5b50506040516001600160a01b03851692508591507f9beda0c81abc1c65da7685f113195974dfddb781dfde6263e5a1b13a5356ffad90600090a3505050565b82611c505760405162461bcd60e51b81526004016107589061302c565b6001600160a01b038216611ca65760405162461bcd60e51b815260206004820181905260248201527f5265717565737465722063616e6e6f74206265207a65726f20616464726573736044820152606401610758565b60008381526004602090815260408083206001600160a01b0386168452909152812090815460ff166005811115611cdf57611cdf6128f5565b14611d255760405162461bcd60e51b81526020600482015260166024820152755265717565737420616c72656164792065786973747360501b6044820152606401610758565b60405163f6a94ecb60e01b8152600481018590526001600160a01b038481166024830152604482018490527f0000000000000000000000000000000000000000000000000000000000000000169063f6a94ecb90606401600060405180830381600087803b158015611d9657600080fd5b505af1925050508015611da7575060015b611e8a57611db3613063565b806308c379a003611e2a5750611dc761307f565b80611dd25750611e2c565b815460ff191660011782556040516001600160a01b0385169086907ff677e762f2ddc710deec335dd0cfa8a65cc9c9c351b268243be8629f2e8d1b5f90611e1c9087908690613108565b60405180910390a350611ef7565b505b805460ff19166001178155604080518381526020810182905260008183015290516001600160a01b0385169186917ff677e762f2ddc710deec335dd0cfa8a65cc9c9c351b268243be8629f2e8d1b5f916060908290030190a3611ef7565b805460ff1916600217815560008481526005602090815260409182902080546001600160a01b0387166001600160a01b03199091168117909155915184815286917ff56e18fc84dbd66db78337b5bd0973943fa70c9b52243a540bdac79274f6682d910160405180910390a35b50505050565b81611f1a5760405162461bcd60e51b81526004016107589061302c565b6000828152600560205260409020546001600160a01b031680611f7f5760405162461bcd60e51b815260206004820152601f60248201527f4e6f2072657175657374657220666f756e6420666f72207175657374696f6e006044820152606401610758565b60008381526004602090815260408083206001600160a01b038516845290915290206003815460ff166005811115611fb957611fb96128f5565b14611fd65760405162461bcd60e51b815260040161075890612aab565b805460ff191660041781556001810183905560405183815284907f1813d15d8cef51cff8bbd419a8e13e0655c1babea320dea4174d5e7bc40c42949060200160405180910390a250505050565b6000612030826002613137565b835110156120775760405162461bcd60e51b8152602060048201526014602482015273746f55696e7431365f6f75744f66426f756e647360601b6044820152606401610758565b50016002015190565b60606fffffffffffffffffffffffffffffffff8216156120d157604080516001600160801b0319608086811b8216602084015285901b166030820152016040516020818303038152906040526120fb565b6040516001600160801b0319608085901b1660208201526030016040516020818303038152906040525b9392505050565b6060836003612112826000612023565b61ffff16146121265761173e816000612023565b8460016121338551612278565b61213e90600161314a565b868660405160200161215495949392919061316c565b6040516020818303038152906040529150509392505050565b600081471015612192576040516304fb820960e51b8152476004820152602401610758565b5090565b60007f00000000000000000000000000000000000000000000000000000000000000006001600160a01b031663e4fe1d946040518163ffffffff1660e01b8152600401602060405180830381865afa1580156121f6573d6000803e3d6000fd5b505050506040513d601f19601f8201168201806040525081019061221a91906131d3565b90506001600160a01b038116612243576040516329b99a9560e11b815260040160405180910390fd5b6109946001600160a01b038216337f0000000000000000000000000000000000000000000000000000000000000000856122a7565b600061ffff821115612192576040516306dfcc6560e41b81526010600482015260248101839052604401610758565b604080516001600160a01b038581166024830152841660448201526064808201849052825180830390910181526084909101909152602080820180516001600160e01b03166323b872dd60e01b1781528251611ef7938893909260009283929183919082885af18061231f576040513d6000823e3d81fd5b50506000513d91508115612337578060011415612344565b6001600160a01b0384163b155b15611ef757604051635274afe760e01b81526001600160a01b0385166004820152602401610758565b60405180606001604052806000801916815260200160006001600160401b031681526020016123af604051806040016040528060008152602001600081525090565b905290565b6000606082840312156123c657600080fd5b50919050565b60008083601f8401126123de57600080fd5b5081356001600160401b038111156123f557600080fd5b60208301915083602082850101111561097b57600080fd5b6001600160a01b038116811461126857600080fd5b600080600080600080600060e0888a03121561243d57600080fd5b61244789896123b4565b96506060880135955060808801356001600160401b038082111561246a57600080fd5b6124768b838c016123cc565b909750955060a08a0135915061248b8261240d565b90935060c089013590808211156124a157600080fd5b506124ae8a828b016123cc565b989b979a50959850939692959293505050565b6000602082840312156124d357600080fd5b5035919050565b634e487b7160e01b600052604160045260246000fd5b606081018181106001600160401b038211171561250f5761250f6124da565b60405250565b601f8201601f191681016001600160401b038111828210171561253a5761253a6124da565b6040525050565b60006001600160401b0382111561255a5761255a6124da565b50601f01601f191660200190565b600082601f83011261257957600080fd5b813561258481612541565b6040516125918282612515565b8281528560208487010111156125a657600080fd5b82602086016020830137600092810160200192909252509392505050565b6000602082840312156125d657600080fd5b81356001600160401b038111156125ec57600080fd5b610a9a84828501612568565b6000806000806080858703121561260e57600080fd5b843593506020850135925060408501359150606085013561262e8161240d565b939692955090935050565b6000806020838503121561264c57600080fd5b82356001600160401b0381111561266257600080fd5b61266e858286016123cc565b90969095509350505050565b60005b8381101561269557818101518382015260200161267d565b50506000910152565b600081518084526126b681602086016020860161267a565b601f01601f19169290920160200192915050565b61ffff83168152604060208201526000610a9a604083018461269e565b803563ffffffff811681146126fb57600080fd5b919050565b6000806040838503121561271357600080fd5b61271c836126e7565b946020939093013593505050565b6020815260006120fb602083018461269e565b61ffff8116811461126857600080fd5b6000806040838503121561276057600080fd5b612769836126e7565b915060208301356127798161273d565b809150509250929050565b60008060008060a0858703121561279a57600080fd5b6127a486866123b4565b935060608501356001600160401b038111156127bf57600080fd5b6127cb878288016123cc565b909450925050608085013561262e8161240d565b600080604083850312156127f257600080fd5b8235915060208301356127798161240d565b6000806020838503121561281757600080fd5b82356001600160401b038082111561282e57600080fd5b818501915085601f83011261284257600080fd5b81358181111561285157600080fd5b8660208260051b850101111561286657600080fd5b60209290920196919550909350505050565b60006020828403121561288a57600080fd5b6120fb826126e7565b600080600080606085870312156128a957600080fd5b6128b2856126e7565b935060208501356128c28161273d565b925060408501356001600160401b038111156128dd57600080fd5b6128e9878288016123cc565b95989497509550505050565b634e487b7160e01b600052602160045260246000fd5b604081016006841061292d57634e487b7160e01b600052602160045260246000fd5b9281526020015290565b60006020828403121561294957600080fd5b81356120fb8161240d565b60008060006060848603121561296957600080fd5b83359250602084013561297b8161240d565b929592945050506040919091013590565b6000806040838503121561299f57600080fd5b50508035926020909101359150565b6000606082840312156129c057600080fd5b6120fb83836123b4565b600080604083850312156129dd57600080fd5b8251915060208301516127798161240d565b60008060408385031215612a0257600080fd5b8235612a0d8161273d565b915060208301356001600160401b03811115612a2857600080fd5b612a3485828601612568565b9150509250929050565b600181811c90821680612a5257607f821691505b6020821081036123c657634e487b7160e01b600052602260045260246000fd5b600080600060608486031215612a8757600080fd5b835192506020840151612a998161240d565b80925050604084015190509250925092565b602080825260169082015275496e76616c696420726571756573742073746174757360501b604082015260600190565b63ffffffff8416815261ffff8316602082015260606040820152600061185a606083018461269e565b600082601f830112612b1557600080fd5b8151612b2081612541565b604051612b2d8282612515565b828152856020848701011115612b4257600080fd5b61185a83602083016020880161267a565b600060208284031215612b6557600080fd5b81516001600160401b03811115612b7b57600080fd5b610a9a84828501612b04565b60006001600160401b0380841115612ba157612ba16124da565b8360051b602060408051612bb783850182612515565b8781529286019282810136851115612bce57600080fd5b875b85811015612c5457803587811115612be85760008081fd5b89016060368290031215612bfc5760008081fd5b8451612c07816124f0565b612c10826126e7565b815286820135612c1f8161273d565b818801528186013589811115612c355760008081fd5b612c4136828501612568565b8288015250835250908401908401612bd0565b509098975050505050505050565b60008085851115612c7257600080fd5b83861115612c7f57600080fd5b5050820193919092039150565b60008451612c9e81846020890161267a565b8201838582376000930192835250909392505050565b60208152816020820152818360408301376000818301604090810191909152601f909201601f19160101919050565b60008060408385031215612cf657600080fd5b505080516020909101519092909150565b60008060408385031215612d1a57600080fd5b8251612d258161273d565b60208401519092506001600160401b03811115612d4157600080fd5b612a3485828601612b04565b6040815263ffffffff8351166040820152602083015160608201526000604084015160a06080840152612d8360e084018261269e565b90506060850151603f198483030160a0850152612da0828261269e565b60809690960151151560c08501525050506001600160a01b039190911660209091015290565b600060408284031215612dd857600080fd5b604051604081018181106001600160401b0382111715612dfa57612dfa6124da565b604052825181526020928301519281019290925250919050565b600060408284031215612e2657600080fd5b6120fb8383612dc6565b600060808284031215612e4257600080fd5b604051612e4e816124f0565b8251815260208301516001600160401b0381168114612e6c57600080fd5b6020820152612e7e8460408501612dc6565b60408201529392505050565b634e487b7160e01b600052603260045260246000fd5b601f82111561117f576000816000526020600020601f850160051c81016020861015612ec95750805b601f850160051c820191505b81811015612ee857828155600101612ed5565b505050505050565b81516001600160401b03811115612f0957612f096124da565b612f1d81612f178454612a3e565b84612ea0565b602080601f831160018114612f525760008415612f3a5750858301515b600019600386901b1c1916600185901b178555612ee8565b600085815260208120601f198616915b82811015612f8157888601518255948401946001909101908401612f62565b5085821015612f9f5787850151600019600388901b60f8161c191681555b5050505050600190811b01905550565b600060208083018184528085518083526040925060408601915060408160051b87010184880160005b83811015612c5457888303603f190185528151805163ffffffff1684528781015161ffff168885015286015160608785018190526130188186018361269e565b968901969450505090860190600101612fd8565b6020808252601b908201527f5175657374696f6e2049442063616e6e6f7420626520656d7074790000000000604082015260600190565b600060033d111561307c5760046000803e5060005160e01c5b90565b600060443d101561308d5790565b6040516003193d81016004833e81513d6001600160401b0381602484011181841117156130bc57505050505090565b82850191508151818111156130d45750505050505090565b843d87010160208285010111156130ee5750505050505090565b6130fd60208286010187612515565b509095945050505050565b828152604060208201526000610a9a604083018461269e565b634e487b7160e01b600052601160045260246000fd5b80820180821115610a8757610a87613121565b61ffff81811683821601908082111561316557613165613121565b5092915050565b6000865161317e818460208b0161267a565b6001600160f81b031960f888811b82169285019283526001600160f01b031960f089901b16600184015286901b16600382015283516131c481600484016020880161267a565b01600401979650505050505050565b6000602082840312156131e557600080fd5b81516120fb8161240d56fea2646970667358221220743911b22809288215de2a76e41d23d7ac5a6ce79e05c5efdc3531621d77369864736f6c63430008180033",
  "devdoc": {
    "details": "This contract is meant to be deployed to side-chains in which Reality.eth is deployed.",
    "errors": {
      "OwnableInvalidOwner(address)": [
        {
          "details": "The owner is not a valid owner account. (eg. `address(0)`)"
        }
      ],
      "OwnableUnauthorizedAccount(address)": [
        {
          "details": "The caller account is not authorized to perform an operation."
        }
      ],
      "SafeCastOverflowedUintDowncast(uint8,uint256)": [
        {
          "details": "Value doesn't fit in an uint of `bits` size."
        }
      ],
      "SafeERC20FailedOperation(address)": [
        {
          "details": "An operation with an ERC-20 token failed."
        }
      ]
    },
    "events": {
      "ArbitrationFailed(bytes32,address)": {
        "details": "This will happen if the arbitration fee increases in between the arbitration request and acknowledgement.",
        "params": {
          "_questionID": "The ID of the question.",
          "_requester": "The address of the arbitration requester."
        }
      },
      "ArbitrationFinished(bytes32)": {
        "params": {
          "_questionID": "The ID of the question."
        }
      },
      "ArbitratorAnswered(bytes32,bytes32)": {
        "params": {
          "_answer": "The answer from the arbitrator.",
          "_questionID": "The ID of the question."
        }
      },
      "RequestAcknowledged(bytes32,address)": {
        "params": {
          "_questionID": "The ID of the question.",
          "_requester": "The address of the arbitration requester."
        }
      },
      "RequestCanceled(bytes32,address)": {
        "params": {
          "_questionID": "The ID of the question.",
          "_requester": "The address of the arbitration requester."
        }
      },
      "RequestNotified(bytes32,address,uint256)": {
        "params": {
          "_maxPrevious": "The maximum value of the previous bond for the question.",
          "_questionID": "The ID of the question.",
          "_requester": "The address of the arbitration requester."
        }
      },
      "RequestRejected(bytes32,address,uint256,string)": {
        "details": "This can happen if the current bond for the question is higher than maxPrevious or if the question is already finalized.",
        "params": {
          "_maxPrevious": "The maximum value of the current bond for the question.",
          "_questionID": "The ID of the question.",
          "_reason": "The reason why the request was rejected.",
          "_requester": "The address of the arbitration requester."
        }
      }
    },
    "kind": "dev",
    "methods": {
      "_decodeMessage(bytes)": {
        "details": "These are marked external to be called via try/catch for error handling."
      },
      "allowInitializePath((uint32,bytes32,uint64))": {
        "details": "This indicates to the endpoint that the OApp has enabled msgs for this particular path to be received.This defaults to assuming if a peer has been set, its initialized. Can be overridden by the OApp if there is other logic to determine this.",
        "params": {
          "origin": "The origin information containing the source endpoint and sender address."
        },
        "returns": {
          "_0": "Whether the path has been initialized."
        }
      },
      "combineOptions(uint32,uint16,bytes)": {
        "details": "If there is an enforced lzReceive option: - {gasLimit: 200k, msg.value: 1 ether} AND a caller supplies a lzReceive option: {gasLimit: 100k, msg.value: 0.5 ether} - The resulting options will be {gasLimit: 300k, msg.value: 1.5 ether} when the message is executed on the remote lzReceive() function.This presence of duplicated options is handled off-chain in the verifier/executor.",
        "params": {
          "_eid": "The endpoint ID.",
          "_extraOptions": "Additional options passed by the caller.",
          "_msgType": "The OAPP message type."
        },
        "returns": {
          "_0": "options The combination of caller specified options AND enforced options."
        }
      },
      "constructor": {
        "params": {
          "_endpoint": "The LayerZero endpoint address.",
          "_foreignEid": "The endpoint ID where the foreign proxy is deployed.",
          "_metadata": "Metadata for Realitio.",
          "_realitio": "Realitio contract address."
        }
      },
      "handleNotifiedRequest(bytes32,address)": {
        "details": "This method exists because `receiveArbitrationRequest` is called by the AMB and cannot send messages back to it.",
        "params": {
          "_questionID": "The ID of the question.",
          "_requester": "The address of the user that requested arbitration."
        }
      },
      "handleRejectedRequest(bytes32,address)": {
        "details": "This method exists because `receiveArbitrationRequest` is called by the AMB and cannot send messages back to it. Reasons why the request might be rejected:  - The question does not exist  - The question was not answered yet  - The question bond value changed while the arbitration was being requested  - Another request was already accepted",
        "params": {
          "_questionID": "The ID of the question.",
          "_requester": "The address of the user that requested arbitration."
        }
      },
      "isComposeMsgSender((uint32,bytes32,uint64),bytes,address)": {
        "details": "_origin The origin information containing the source endpoint and sender address.  - srcEid: The source chain endpoint ID.  - sender: The sender address on the src chain.  - nonce: The nonce of the message._message The lzReceive payload.Applications can optionally choose to implement separate composeMsg senders that are NOT the bridging layer.The default sender IS the OAppReceiver implementer.",
        "params": {
          "_sender": "The sender address."
        },
        "returns": {
          "_0": "isSender Is a valid sender."
        }
      },
      "lzReceive((uint32,bytes32,uint64),bytes32,bytes,address,bytes)": {
        "details": "Entry point for receiving messages or packets from the endpoint.Entry point for receiving msg/packet from the LayerZero endpoint.",
        "params": {
          "_executor": "The address of the executor for the received message.",
          "_extraData": "Additional arbitrary data provided by the corresponding executor.",
          "_guid": "The unique identifier for the received LayerZero message.",
          "_message": "The payload of the received message.",
          "_origin": "The origin information containing the source endpoint and sender address.  - srcEid: The source chain endpoint ID.  - sender: The sender address on the src chain.  - nonce: The nonce of the message."
        }
      },
      "nextNonce(uint32,bytes32)": {
        "details": "_srcEid The source endpoint ID._sender The sender address.The path nonce starts from 1. If 0 is returned it means that there is NO nonce ordered enforcement.Is required by the off-chain executor to determine the OApp expects msg execution is ordered.This is also enforced by the OApp.By default this is NOT enabled. ie. nextNonce is hardcoded to return 0.",
        "returns": {
          "nonce": "The next nonce."
        }
      },
      "oAppVersion()": {
        "returns": {
          "receiverVersion": "The version of the OAppReceiver.sol implementation.",
          "senderVersion": "The version of the OAppSender.sol implementation."
        }
      },
      "owner()": {
        "details": "Returns the address of the current owner."
      },
      "receiveArbitrationAnswer(bytes32,bytes32)": {
        "params": {
          "_answer": "The answer from the arbitrator.",
          "_questionID": "The ID of the question."
        }
      },
      "receiveArbitrationFailure(bytes32,address)": {
        "details": "Currently this can happen only if the arbitration cost increased.",
        "params": {
          "_questionID": "The ID of the question.",
          "_requester": "The address of the user that requested arbitration."
        }
      },
      "receiveArbitrationRequest(bytes32,address,uint256)": {
        "details": "Receives the requested arbitration for a question. TRUSTED.",
        "params": {
          "_maxPrevious": "The maximum value of the previous bond for the question.",
          "_questionID": "The ID of the question.",
          "_requester": "The address of the user that requested arbitration."
        }
      },
      "renounceOwnership()": {
        "details": "Leaves the contract without owner. It will not be possible to call `onlyOwner` functions. Can only be called by the current owner. NOTE: Renouncing ownership will leave the contract without an owner, thereby disabling any functionality that is only available to the owner."
      },
      "reportArbitrationAnswer(bytes32,bytes32,bytes32,address)": {
        "details": "The Realitio contract validates the input parameters passed to this method, so making this publicly accessible is safe.",
        "params": {
          "_lastAnswerOrCommitmentID": "The last answer given, or its commitment ID if it was a commitment, to the question in the Realitio contract.",
          "_lastAnswerer": "The last answerer to the question in the Realitio contract.",
          "_lastHistoryHash": "The history hash given with the last answer to the question in the Realitio contract.",
          "_questionID": "The ID of the question."
        }
      },
      "setDelegate(address)": {
        "details": "Only the owner/admin of the OApp can call this function.Provides the ability for a delegate to set configs, on behalf of the OApp, directly on the Endpoint contract.",
        "params": {
          "_delegate": "The address of the delegate to be set."
        }
      },
      "setEnforcedOptions((uint32,uint16,bytes)[])": {
        "details": "Sets the enforced options for specific endpoint and message type combinations.Only the owner/admin of the OApp can call this function.Provides a way for the OApp to enforce things like paying for PreCrime, AND/OR minimum dst lzReceive gas amounts etc.These enforced options can vary as the potential options/execution on the remote may differ as per the msgType. eg. Amount of lzReceive() gas necessary to deliver a lzCompose() message adds overhead you dont want to pay if you are only making a standard LayerZero message ie. lzReceive() WITHOUT sendCompose().",
        "params": {
          "_enforcedOptions": "An array of EnforcedOptionParam structures specifying enforced options."
        }
      },
      "setPeer(uint32,bytes32)": {
        "details": "Only the owner/admin of the OApp can call this function.Indicates that the peer is trusted to send LayerZero messages to this OApp.Set this to bytes32(0) to remove the peer address.Peer is a bytes32 to accommodate non-evm chains.",
        "params": {
          "_eid": "The endpoint ID.",
          "_peer": "The address of the peer to be associated with the corresponding endpoint."
        }
      },
      "transferOwnership(address)": {
        "details": "Transfers ownership of the contract to a new account (`newOwner`). Can only be called by the current owner."
      },
      "withdrawETH(uint256)": {
        "params": {
          "_amount": "The amount of ETH to withdraw."
        }
      }
    },
    "stateVariables": {
      "foreignEid": {
        "details": "The endpoint ID where the foreign proxy is deployed."
      },
      "metadata": {
        "details": "Metadata for Realitio interface."
      },
      "questionIDToRequester": {
        "details": "Associates a question ID with the requester who succeeded in requesting arbitration. questionIDToRequester[questionID]"
      },
      "realitio": {
        "details": "The address of the Realitio contract (v2.1+ required). TRUSTED."
      },
      "requests": {
        "details": "Associates an arbitration request with a question ID and a requester address. requests[questionID][requester]"
      }
    },
    "title": "Arbitration proxy for Realitio on the Oracle side (A.K.A. the Home Chain).",
    "version": 1
  },
  "userdoc": {
    "events": {
      "ArbitrationFailed(bytes32,address)": {
        "notice": "To be emitted when the dispute could not be created on the Foreign Chain."
      },
      "ArbitrationFinished(bytes32)": {
        "notice": "To be emitted when reporting the arbitrator answer to Realitio."
      },
      "ArbitratorAnswered(bytes32,bytes32)": {
        "notice": "To be emitted when receiving the answer from the arbitrator."
      },
      "RequestAcknowledged(bytes32,address)": {
        "notice": "To be emitted when the arbitration request acknowledgement is sent to the Foreign Chain."
      },
      "RequestCanceled(bytes32,address)": {
        "notice": "To be emitted when the arbitration request is canceled."
      },
      "RequestNotified(bytes32,address,uint256)": {
        "notice": "To be emitted when the Realitio contract has been notified of an arbitration request."
      },
      "RequestRejected(bytes32,address,uint256,string)": {
        "notice": "To be emitted when arbitration request is rejected."
      }
    },
    "kind": "user",
    "methods": {
      "_decodeMessage(bytes)": {
        "notice": "External decoder functions for safe message parsing."
      },
      "allowInitializePath((uint32,bytes32,uint64))": {
        "notice": "Checks if the path initialization is allowed based on the provided origin."
      },
      "combineOptions(uint32,uint16,bytes)": {
        "notice": "Combines options for a given endpoint and message type."
      },
      "constructor": {
        "notice": "Creates an arbitration proxy on the home chain."
      },
      "endpoint()": {
        "notice": "Retrieves the LayerZero endpoint associated with the OApp."
      },
      "handleNotifiedRequest(bytes32,address)": {
        "notice": "Handles arbitration request after it has been notified to Realitio for a given question."
      },
      "handleRejectedRequest(bytes32,address)": {
        "notice": "Handles arbitration request after it has been rejected."
      },
      "isComposeMsgSender((uint32,bytes32,uint64),bytes,address)": {
        "notice": "Indicates whether an address is an approved composeMsg sender to the Endpoint."
      },
      "nextNonce(uint32,bytes32)": {
        "notice": "Retrieves the next nonce for a given source endpoint and sender address."
      },
      "oAppVersion()": {
        "notice": "Retrieves the OApp version information."
      },
      "peers(uint32)": {
        "notice": "Retrieves the peer (OApp) associated with a corresponding endpoint."
      },
      "receiveArbitrationAnswer(bytes32,bytes32)": {
        "notice": "Receives an answer to a specified question. TRUSTED."
      },
      "receiveArbitrationFailure(bytes32,address)": {
        "notice": "Receives a failed attempt to request arbitration. TRUSTED."
      },
      "reportArbitrationAnswer(bytes32,bytes32,bytes32,address)": {
        "notice": "Reports the answer provided by the arbitrator to a specified question."
      },
      "setDelegate(address)": {
        "notice": "Sets the delegate address for the OApp."
      },
      "setPeer(uint32,bytes32)": {
        "notice": "Sets the peer address (OApp instance) for a corresponding endpoint."
      },
      "withdrawETH(uint256)": {
        "notice": "Allows the owner to withdraw ETH from the contract."
      }
    },
    "version": 1
  },
  "storageLayout": {
    "storage": [
      {
        "astId": 3226,
        "contract": "src/RealitioHomeProxyLZ.sol:RealitioHomeProxyLZ",
        "label": "_owner",
        "offset": 0,
        "slot": "0",
        "type": "t_address"
      },
      {
        "astId": 2070,
        "contract": "src/RealitioHomeProxyLZ.sol:RealitioHomeProxyLZ",
        "label": "peers",
        "offset": 0,
        "slot": "1",
        "type": "t_mapping(t_uint32,t_bytes32)"
      },
      {
        "astId": 2666,
        "contract": "src/RealitioHomeProxyLZ.sol:RealitioHomeProxyLZ",
        "label": "enforcedOptions",
        "offset": 0,
        "slot": "2",
        "type": "t_mapping(t_uint32,t_mapping(t_uint16,t_bytes_storage))"
      },
      {
        "astId": 7632,
        "contract": "src/RealitioHomeProxyLZ.sol:RealitioHomeProxyLZ",
        "label": "metadata",
        "offset": 0,
        "slot": "3",
        "type": "t_string_storage"
      },
      {
        "astId": 7653,
        "contract": "src/RealitioHomeProxyLZ.sol:RealitioHomeProxyLZ",
        "label": "requests",
        "offset": 0,
        "slot": "4",
        "type": "t_mapping(t_bytes32,t_mapping(t_address,t_struct(Request)7645_storage))"
      },
      {
        "astId": 7658,
        "contract": "src/RealitioHomeProxyLZ.sol:RealitioHomeProxyLZ",
        "label": "questionIDToRequester",
        "offset": 0,
        "slot": "5",
        "type": "t_mapping(t_bytes32,t_address)"
      }
    ],
    "types": {
      "t_address": {
        "encoding": "inplace",
        "label": "address",
        "numberOfBytes": "20"
      },
      "t_bytes32": {
        "encoding": "inplace",
        "label": "bytes32",
        "numberOfBytes": "32"
      },
      "t_bytes_storage": {
        "encoding": "bytes",
        "label": "bytes",
        "numberOfBytes": "32"
      },
      "t_enum(Status)7639": {
        "encoding": "inplace",
        "label": "enum RealitioHomeProxyLZ.Status",
        "numberOfBytes": "1"
      },
      "t_mapping(t_address,t_struct(Request)7645_storage)": {
        "encoding": "mapping",
        "key": "t_address",
        "label": "mapping(address => struct RealitioHomeProxyLZ.Request)",
        "numberOfBytes": "32",
        "value": "t_struct(Request)7645_storage"
      },
      "t_mapping(t_bytes32,t_address)": {
        "encoding": "mapping",
        "key": "t_bytes32",
        "label": "mapping(bytes32 => address)",
        "numberOfBytes": "32",
        "value": "t_address"
      },
      "t_mapping(t_bytes32,t_mapping(t_address,t_struct(Request)7645_storage))": {
        "encoding": "mapping",
        "key": "t_bytes32",
        "label": "mapping(bytes32 => mapping(address => struct RealitioHomeProxyLZ.Request))",
        "numberOfBytes": "32",
        "value": "t_mapping(t_address,t_struct(Request)7645_storage)"
      },
      "t_mapping(t_uint16,t_bytes_storage)": {
        "encoding": "mapping",
        "key": "t_uint16",
        "label": "mapping(uint16 => bytes)",
        "numberOfBytes": "32",
        "value": "t_bytes_storage"
      },
      "t_mapping(t_uint32,t_bytes32)": {
        "encoding": "mapping",
        "key": "t_uint32",
        "label": "mapping(uint32 => bytes32)",
        "numberOfBytes": "32",
        "value": "t_bytes32"
      },
      "t_mapping(t_uint32,t_mapping(t_uint16,t_bytes_storage))": {
        "encoding": "mapping",
        "key": "t_uint32",
        "label": "mapping(uint32 => mapping(uint16 => bytes))",
        "numberOfBytes": "32",
        "value": "t_mapping(t_uint16,t_bytes_storage)"
      },
      "t_string_storage": {
        "encoding": "bytes",
        "label": "string",
        "numberOfBytes": "32"
      },
      "t_struct(Request)7645_storage": {
        "encoding": "inplace",
        "label": "struct RealitioHomeProxyLZ.Request",
        "members": [
          {
            "astId": 7642,
            "contract": "src/RealitioHomeProxyLZ.sol:RealitioHomeProxyLZ",
            "label": "status",
            "offset": 0,
            "slot": "0",
            "type": "t_enum(Status)7639"
          },
          {
            "astId": 7644,
            "contract": "src/RealitioHomeProxyLZ.sol:RealitioHomeProxyLZ",
            "label": "arbitratorAnswer",
            "offset": 0,
            "slot": "1",
            "type": "t_bytes32"
          }
        ],
        "numberOfBytes": "64"
      },
      "t_uint16": {
        "encoding": "inplace",
        "label": "uint16",
        "numberOfBytes": "2"
      },
      "t_uint32": {
        "encoding": "inplace",
        "label": "uint32",
        "numberOfBytes": "4"
      }
    }
  }
}