{
  "address": "0xC0b752bc1e025748B92A18d5FF3E31853F528522",
  "abi": [
    {
      "inputs": [
        {
          "internalType": "address",
          "name": "_wNative",
          "type": "address"
        },
        {
          "internalType": "contract IArbitratorV2",
          "name": "_arbitrator",
          "type": "address"
        },
        {
          "internalType": "bytes",
          "name": "_arbitratorExtraData",
          "type": "bytes"
        },
        {
          "internalType": "contract IDisputeTemplateRegistry",
          "name": "_templateRegistry",
          "type": "address"
        },
        {
          "internalType": "string",
          "name": "_templateData",
          "type": "string"
        },
        {
          "internalType": "string",
          "name": "_templateDataMappings",
          "type": "string"
        },
        {
          "internalType": "uint32",
          "name": "_homeEid",
          "type": "uint32"
        },
        {
          "internalType": "address",
          "name": "_endpoint",
          "type": "address"
        }
      ],
      "stateMutability": "nonpayable",
      "type": "constructor"
    },
    {
      "inputs": [
        {
          "internalType": "uint256",
          "name": "required",
          "type": "uint256"
        },
        {
          "internalType": "uint256",
          "name": "available",
          "type": "uint256"
        }
      ],
      "name": "InsufficientFundsForLayerZero",
      "type": "error"
    },
    {
      "inputs": [],
      "name": "InvalidDelegate",
      "type": "error"
    },
    {
      "inputs": [],
      "name": "InvalidEndpointCall",
      "type": "error"
    },
    {
      "inputs": [
        {
          "internalType": "bytes",
          "name": "options",
          "type": "bytes"
        }
      ],
      "name": "InvalidOptions",
      "type": "error"
    },
    {
      "inputs": [],
      "name": "LzTokenUnavailable",
      "type": "error"
    },
    {
      "inputs": [
        {
          "internalType": "uint32",
          "name": "eid",
          "type": "uint32"
        }
      ],
      "name": "NoPeer",
      "type": "error"
    },
    {
      "inputs": [
        {
          "internalType": "uint256",
          "name": "msgValue",
          "type": "uint256"
        }
      ],
      "name": "NotEnoughNative",
      "type": "error"
    },
    {
      "inputs": [
        {
          "internalType": "address",
          "name": "addr",
          "type": "address"
        }
      ],
      "name": "OnlyEndpoint",
      "type": "error"
    },
    {
      "inputs": [
        {
          "internalType": "uint32",
          "name": "eid",
          "type": "uint32"
        },
        {
          "internalType": "bytes32",
          "name": "sender",
          "type": "bytes32"
        }
      ],
      "name": "OnlyPeer",
      "type": "error"
    },
    {
      "inputs": [
        {
          "internalType": "address",
          "name": "owner",
          "type": "address"
        }
      ],
      "name": "OwnableInvalidOwner",
      "type": "error"
    },
    {
      "inputs": [
        {
          "internalType": "address",
          "name": "account",
          "type": "address"
        }
      ],
      "name": "OwnableUnauthorizedAccount",
      "type": "error"
    },
    {
      "inputs": [
        {
          "internalType": "address",
          "name": "token",
          "type": "address"
        }
      ],
      "name": "SafeERC20FailedOperation",
      "type": "error"
    },
    {
      "anonymous": false,
      "inputs": [
        {
          "indexed": true,
          "internalType": "bytes32",
          "name": "_questionID",
          "type": "bytes32"
        },
        {
          "indexed": true,
          "internalType": "address",
          "name": "_requester",
          "type": "address"
        }
      ],
      "name": "ArbitrationCanceled",
      "type": "event"
    },
    {
      "anonymous": false,
      "inputs": [
        {
          "indexed": true,
          "internalType": "bytes32",
          "name": "_questionID",
          "type": "bytes32"
        },
        {
          "indexed": true,
          "internalType": "address",
          "name": "_requester",
          "type": "address"
        },
        {
          "indexed": true,
          "internalType": "uint256",
          "name": "_disputeID",
          "type": "uint256"
        }
      ],
      "name": "ArbitrationCreated",
      "type": "event"
    },
    {
      "anonymous": false,
      "inputs": [
        {
          "indexed": true,
          "internalType": "bytes32",
          "name": "_questionID",
          "type": "bytes32"
        },
        {
          "indexed": true,
          "internalType": "address",
          "name": "_requester",
          "type": "address"
        }
      ],
      "name": "ArbitrationFailed",
      "type": "event"
    },
    {
      "anonymous": false,
      "inputs": [
        {
          "indexed": true,
          "internalType": "bytes32",
          "name": "_questionID",
          "type": "bytes32"
        },
        {
          "indexed": true,
          "internalType": "address",
          "name": "_requester",
          "type": "address"
        },
        {
          "indexed": false,
          "internalType": "uint256",
          "name": "_maxPrevious",
          "type": "uint256"
        }
      ],
      "name": "ArbitrationRequested",
      "type": "event"
    },
    {
      "anonymous": false,
      "inputs": [
        {
          "indexed": true,
          "internalType": "contract IArbitratorV2",
          "name": "_arbitrator",
          "type": "address"
        },
        {
          "indexed": true,
          "internalType": "uint256",
          "name": "_arbitratorDisputeID",
          "type": "uint256"
        },
        {
          "indexed": false,
          "internalType": "uint256",
          "name": "_externalDisputeID",
          "type": "uint256"
        },
        {
          "indexed": false,
          "internalType": "uint256",
          "name": "_templateId",
          "type": "uint256"
        },
        {
          "indexed": false,
          "internalType": "string",
          "name": "_templateUri",
          "type": "string"
        }
      ],
      "name": "DisputeRequest",
      "type": "event"
    },
    {
      "anonymous": false,
      "inputs": [
        {
          "components": [
            {
              "internalType": "uint32",
              "name": "eid",
              "type": "uint32"
            },
            {
              "internalType": "uint16",
              "name": "msgType",
              "type": "uint16"
            },
            {
              "internalType": "bytes",
              "name": "options",
              "type": "bytes"
            }
          ],
          "indexed": false,
          "internalType": "struct EnforcedOptionParam[]",
          "name": "_enforcedOptions",
          "type": "tuple[]"
        }
      ],
      "name": "EnforcedOptionSet",
      "type": "event"
    },
    {
      "anonymous": false,
      "inputs": [
        {
          "indexed": true,
          "internalType": "address",
          "name": "previousOwner",
          "type": "address"
        },
        {
          "indexed": true,
          "internalType": "address",
          "name": "newOwner",
          "type": "address"
        }
      ],
      "name": "OwnershipTransferred",
      "type": "event"
    },
    {
      "anonymous": false,
      "inputs": [
        {
          "indexed": false,
          "internalType": "uint32",
          "name": "eid",
          "type": "uint32"
        },
        {
          "indexed": false,
          "internalType": "bytes32",
          "name": "peer",
          "type": "bytes32"
        }
      ],
      "name": "PeerSet",
      "type": "event"
    },
    {
      "anonymous": false,
      "inputs": [
        {
          "indexed": true,
          "internalType": "contract IArbitratorV2",
          "name": "_arbitrator",
          "type": "address"
        },
        {
          "indexed": true,
          "internalType": "uint256",
          "name": "_disputeID",
          "type": "uint256"
        },
        {
          "indexed": false,
          "internalType": "uint256",
          "name": "_ruling",
          "type": "uint256"
        }
      ],
      "name": "Ruling",
      "type": "event"
    },
    {
      "anonymous": false,
      "inputs": [
        {
          "indexed": false,
          "internalType": "bytes32",
          "name": "_questionID",
          "type": "bytes32"
        },
        {
          "indexed": false,
          "internalType": "bytes32",
          "name": "_ruling",
          "type": "bytes32"
        }
      ],
      "name": "RulingRelayed",
      "type": "event"
    },
    {
      "inputs": [],
      "name": "NUMBER_OF_CHOICES_FOR_ARBITRATOR",
      "outputs": [
        {
          "internalType": "uint256",
          "name": "",
          "type": "uint256"
        }
      ],
      "stateMutability": "view",
      "type": "function"
    },
    {
      "inputs": [],
      "name": "REFUSE_TO_ARBITRATE_REALITIO",
      "outputs": [
        {
          "internalType": "uint256",
          "name": "",
          "type": "uint256"
        }
      ],
      "stateMutability": "view",
      "type": "function"
    },
    {
      "inputs": [
        {
          "internalType": "bytes",
          "name": "_payload",
          "type": "bytes"
        }
      ],
      "name": "_decodeArbitrationAcknowledgement",
      "outputs": [
        {
          "internalType": "bytes32",
          "name": "questionID",
          "type": "bytes32"
        },
        {
          "internalType": "address",
          "name": "requester",
          "type": "address"
        }
      ],
      "stateMutability": "pure",
      "type": "function"
    },
    {
      "inputs": [
        {
          "internalType": "bytes",
          "name": "_payload",
          "type": "bytes"
        }
      ],
      "name": "_decodeArbitrationCancelation",
      "outputs": [
        {
          "internalType": "bytes32",
          "name": "questionID",
          "type": "bytes32"
        },
        {
          "internalType": "address",
          "name": "requester",
          "type": "address"
        }
      ],
      "stateMutability": "pure",
      "type": "function"
    },
    {
      "inputs": [
        {
          "internalType": "bytes",
          "name": "_message",
          "type": "bytes"
        }
      ],
      "name": "_decodeMessage",
      "outputs": [
        {
          "internalType": "uint16",
          "name": "msgType",
          "type": "uint16"
        },
        {
          "internalType": "bytes",
          "name": "payload",
          "type": "bytes"
        }
      ],
      "stateMutability": "pure",
      "type": "function"
    },
    {
      "inputs": [
        {
          "components": [
            {
              "internalType": "uint32",
              "name": "srcEid",
              "type": "uint32"
            },
            {
              "internalType": "bytes32",
              "name": "sender",
              "type": "bytes32"
            },
            {
              "internalType": "uint64",
              "name": "nonce",
              "type": "uint64"
            }
          ],
          "internalType": "struct Origin",
          "name": "origin",
          "type": "tuple"
        }
      ],
      "name": "allowInitializePath",
      "outputs": [
        {
          "internalType": "bool",
          "name": "",
          "type": "bool"
        }
      ],
      "stateMutability": "view",
      "type": "function"
    },
    {
      "inputs": [
        {
          "internalType": "uint256",
          "name": "",
          "type": "uint256"
        }
      ],
      "name": "arbitrationCreatedBlock",
      "outputs": [
        {
          "internalType": "uint256",
          "name": "",
          "type": "uint256"
        }
      ],
      "stateMutability": "view",
      "type": "function"
    },
    {
      "inputs": [
        {
          "internalType": "uint256",
          "name": "",
          "type": "uint256"
        }
      ],
      "name": "arbitrationIDToDisputeExists",
      "outputs": [
        {
          "internalType": "bool",
          "name": "",
          "type": "bool"
        }
      ],
      "stateMutability": "view",
      "type": "function"
    },
    {
      "inputs": [
        {
          "internalType": "uint256",
          "name": "",
          "type": "uint256"
        }
      ],
      "name": "arbitrationIDToRequester",
      "outputs": [
        {
          "internalType": "address",
          "name": "",
          "type": "address"
        }
      ],
      "stateMutability": "view",
      "type": "function"
    },
    {
      "inputs": [
        {
          "internalType": "uint256",
          "name": "",
          "type": "uint256"
        },
        {
          "internalType": "address",
          "name": "",
          "type": "address"
        }
      ],
      "name": "arbitrationRequests",
      "outputs": [
        {
          "internalType": "enum RealitioForeignProxyLZ.Status",
          "name": "status",
          "type": "uint8"
        },
        {
          "internalType": "uint248",
          "name": "deposit",
          "type": "uint248"
        },
        {
          "internalType": "uint256",
          "name": "disputeID",
          "type": "uint256"
        },
        {
          "internalType": "uint256",
          "name": "answer",
          "type": "uint256"
        }
      ],
      "stateMutability": "view",
      "type": "function"
    },
    {
      "inputs": [],
      "name": "arbitrator",
      "outputs": [
        {
          "internalType": "contract IArbitratorV2",
          "name": "",
          "type": "address"
        }
      ],
      "stateMutability": "view",
      "type": "function"
    },
    {
      "inputs": [],
      "name": "arbitratorExtraData",
      "outputs": [
        {
          "internalType": "bytes",
          "name": "",
          "type": "bytes"
        }
      ],
      "stateMutability": "view",
      "type": "function"
    },
    {
      "inputs": [
        {
          "internalType": "string",
          "name": "_templateData",
          "type": "string"
        },
        {
          "internalType": "string",
          "name": "_templateDataMappings",
          "type": "string"
        }
      ],
      "name": "changeDisputeTemplate",
      "outputs": [],
      "stateMutability": "nonpayable",
      "type": "function"
    },
    {
      "inputs": [
        {
          "internalType": "uint32",
          "name": "_eid",
          "type": "uint32"
        },
        {
          "internalType": "uint16",
          "name": "_msgType",
          "type": "uint16"
        },
        {
          "internalType": "bytes",
          "name": "_extraOptions",
          "type": "bytes"
        }
      ],
      "name": "combineOptions",
      "outputs": [
        {
          "internalType": "bytes",
          "name": "",
          "type": "bytes"
        }
      ],
      "stateMutability": "view",
      "type": "function"
    },
    {
      "inputs": [
        {
          "internalType": "uint256",
          "name": "",
          "type": "uint256"
        }
      ],
      "name": "disputeIDToDisputeDetails",
      "outputs": [
        {
          "internalType": "uint256",
          "name": "arbitrationID",
          "type": "uint256"
        },
        {
          "internalType": "address",
          "name": "requester",
          "type": "address"
        }
      ],
      "stateMutability": "view",
      "type": "function"
    },
    {
      "inputs": [],
      "name": "endpoint",
      "outputs": [
        {
          "internalType": "contract ILayerZeroEndpointV2",
          "name": "",
          "type": "address"
        }
      ],
      "stateMutability": "view",
      "type": "function"
    },
    {
      "inputs": [
        {
          "internalType": "uint32",
          "name": "eid",
          "type": "uint32"
        },
        {
          "internalType": "uint16",
          "name": "msgType",
          "type": "uint16"
        }
      ],
      "name": "enforcedOptions",
      "outputs": [
        {
          "internalType": "bytes",
          "name": "enforcedOption",
          "type": "bytes"
        }
      ],
      "stateMutability": "view",
      "type": "function"
    },
    {
      "inputs": [
        {
          "internalType": "uint256",
          "name": "_externalDisputeID",
          "type": "uint256"
        }
      ],
      "name": "externalIDtoLocalID",
      "outputs": [
        {
          "internalType": "uint256",
          "name": "",
          "type": "uint256"
        }
      ],
      "stateMutability": "view",
      "type": "function"
    },
    {
      "inputs": [
        {
          "internalType": "bytes32",
          "name": "",
          "type": "bytes32"
        }
      ],
      "name": "getDisputeFee",
      "outputs": [
        {
          "internalType": "uint256",
          "name": "",
          "type": "uint256"
        }
      ],
      "stateMutability": "view",
      "type": "function"
    },
    {
      "inputs": [
        {
          "internalType": "bytes32",
          "name": "_questionID",
          "type": "bytes32"
        },
        {
          "internalType": "address",
          "name": "_requester",
          "type": "address"
        }
      ],
      "name": "handleFailedDisputeCreation",
      "outputs": [],
      "stateMutability": "nonpayable",
      "type": "function"
    },
    {
      "inputs": [
        {
          "internalType": "bytes32",
          "name": "_questionID",
          "type": "bytes32"
        },
        {
          "internalType": "address",
          "name": "_requester",
          "type": "address"
        },
        {
          "internalType": "bytes",
          "name": "_options",
          "type": "bytes"
        }
      ],
      "name": "handleFailedDisputeCreationCustomParameters",
      "outputs": [],
      "stateMutability": "nonpayable",
      "type": "function"
    },
    {
      "inputs": [],
      "name": "homeEid",
      "outputs": [
        {
          "internalType": "uint32",
          "name": "",
          "type": "uint32"
        }
      ],
      "stateMutability": "view",
      "type": "function"
    },
    {
      "inputs": [
        {
          "components": [
            {
              "internalType": "uint32",
              "name": "srcEid",
              "type": "uint32"
            },
            {
              "internalType": "bytes32",
              "name": "sender",
              "type": "bytes32"
            },
            {
              "internalType": "uint64",
              "name": "nonce",
              "type": "uint64"
            }
          ],
          "internalType": "struct Origin",
          "name": "",
          "type": "tuple"
        },
        {
          "internalType": "bytes",
          "name": "",
          "type": "bytes"
        },
        {
          "internalType": "address",
          "name": "_sender",
          "type": "address"
        }
      ],
      "name": "isComposeMsgSender",
      "outputs": [
        {
          "internalType": "bool",
          "name": "",
          "type": "bool"
        }
      ],
      "stateMutability": "view",
      "type": "function"
    },
    {
      "inputs": [
        {
          "components": [
            {
              "internalType": "uint32",
              "name": "srcEid",
              "type": "uint32"
            },
            {
              "internalType": "bytes32",
              "name": "sender",
              "type": "bytes32"
            },
            {
              "internalType": "uint64",
              "name": "nonce",
              "type": "uint64"
            }
          ],
          "internalType": "struct Origin",
          "name": "_origin",
          "type": "tuple"
        },
        {
          "internalType": "bytes32",
          "name": "_guid",
          "type": "bytes32"
        },
        {
          "internalType": "bytes",
          "name": "_message",
          "type": "bytes"
        },
        {
          "internalType": "address",
          "name": "_executor",
          "type": "address"
        },
        {
          "internalType": "bytes",
          "name": "_extraData",
          "type": "bytes"
        }
      ],
      "name": "lzReceive",
      "outputs": [],
      "stateMutability": "payable",
      "type": "function"
    },
    {
      "inputs": [
        {
          "internalType": "uint32",
          "name": "",
          "type": "uint32"
        },
        {
          "internalType": "bytes32",
          "name": "",
          "type": "bytes32"
        }
      ],
      "name": "nextNonce",
      "outputs": [
        {
          "internalType": "uint64",
          "name": "nonce",
          "type": "uint64"
        }
      ],
      "stateMutability": "view",
      "type": "function"
    },
    {
      "inputs": [
        {
          "internalType": "uint256",
          "name": "",
          "type": "uint256"
        }
      ],
      "name": "numberOfRulingOptions",
      "outputs": [
        {
          "internalType": "uint256",
          "name": "",
          "type": "uint256"
        }
      ],
      "stateMutability": "pure",
      "type": "function"
    },
    {
      "inputs": [],
      "name": "oAppVersion",
      "outputs": [
        {
          "internalType": "uint64",
          "name": "senderVersion",
          "type": "uint64"
        },
        {
          "internalType": "uint64",
          "name": "receiverVersion",
          "type": "uint64"
        }
      ],
      "stateMutability": "pure",
      "type": "function"
    },
    {
      "inputs": [],
      "name": "owner",
      "outputs": [
        {
          "internalType": "address",
          "name": "",
          "type": "address"
        }
      ],
      "stateMutability": "view",
      "type": "function"
    },
    {
      "inputs": [
        {
          "internalType": "uint32",
          "name": "eid",
          "type": "uint32"
        }
      ],
      "name": "peers",
      "outputs": [
        {
          "internalType": "bytes32",
          "name": "peer",
          "type": "bytes32"
        }
      ],
      "stateMutability": "view",
      "type": "function"
    },
    {
      "inputs": [
        {
          "internalType": "bytes32",
          "name": "_questionID",
          "type": "bytes32"
        }
      ],
      "name": "questionIDToArbitrationID",
      "outputs": [
        {
          "internalType": "uint256",
          "name": "",
          "type": "uint256"
        }
      ],
      "stateMutability": "pure",
      "type": "function"
    },
    {
      "inputs": [
        {
          "internalType": "bytes32",
          "name": "_questionID",
          "type": "bytes32"
        },
        {
          "internalType": "address",
          "name": "_requester",
          "type": "address"
        }
      ],
      "name": "receiveArbitrationAcknowledgement",
      "outputs": [],
      "stateMutability": "nonpayable",
      "type": "function"
    },
    {
      "inputs": [
        {
          "internalType": "bytes32",
          "name": "_questionID",
          "type": "bytes32"
        },
        {
          "internalType": "address",
          "name": "_requester",
          "type": "address"
        }
      ],
      "name": "receiveArbitrationCancelation",
      "outputs": [],
      "stateMutability": "nonpayable",
      "type": "function"
    },
    {
      "inputs": [
        {
          "internalType": "bytes32",
          "name": "_questionID",
          "type": "bytes32"
        },
        {
          "internalType": "address",
          "name": "_requester",
          "type": "address"
        }
      ],
      "name": "relayRule",
      "outputs": [],
      "stateMutability": "nonpayable",
      "type": "function"
    },
    {
      "inputs": [
        {
          "internalType": "bytes32",
          "name": "_questionID",
          "type": "bytes32"
        },
        {
          "internalType": "address",
          "name": "_requester",
          "type": "address"
        },
        {
          "internalType": "bytes",
          "name": "_options",
          "type": "bytes"
        }
      ],
      "name": "relayRuleCustomParameters",
      "outputs": [],
      "stateMutability": "nonpayable",
      "type": "function"
    },
    {
      "inputs": [],
      "name": "renounceOwnership",
      "outputs": [],
      "stateMutability": "nonpayable",
      "type": "function"
    },
    {
      "inputs": [
        {
          "internalType": "bytes32",
          "name": "_questionID",
          "type": "bytes32"
        },
        {
          "internalType": "uint256",
          "name": "_maxPrevious",
          "type": "uint256"
        }
      ],
      "name": "requestArbitration",
      "outputs": [],
      "stateMutability": "payable",
      "type": "function"
    },
    {
      "inputs": [
        {
          "internalType": "bytes32",
          "name": "_questionID",
          "type": "bytes32"
        },
        {
          "internalType": "uint256",
          "name": "_maxPrevious",
          "type": "uint256"
        },
        {
          "internalType": "bytes",
          "name": "_options",
          "type": "bytes"
        }
      ],
      "name": "requestArbitrationCustomParameters",
      "outputs": [],
      "stateMutability": "payable",
      "type": "function"
    },
    {
      "inputs": [
        {
          "internalType": "uint256",
          "name": "_disputeID",
          "type": "uint256"
        },
        {
          "internalType": "uint256",
          "name": "_ruling",
          "type": "uint256"
        }
      ],
      "name": "rule",
      "outputs": [],
      "stateMutability": "nonpayable",
      "type": "function"
    },
    {
      "inputs": [
        {
          "internalType": "address",
          "name": "_delegate",
          "type": "address"
        }
      ],
      "name": "setDelegate",
      "outputs": [],
      "stateMutability": "nonpayable",
      "type": "function"
    },
    {
      "inputs": [
        {
          "components": [
            {
              "internalType": "uint32",
              "name": "eid",
              "type": "uint32"
            },
            {
              "internalType": "uint16",
              "name": "msgType",
              "type": "uint16"
            },
            {
              "internalType": "bytes",
              "name": "options",
              "type": "bytes"
            }
          ],
          "internalType": "struct EnforcedOptionParam[]",
          "name": "_enforcedOptions",
          "type": "tuple[]"
        }
      ],
      "name": "setEnforcedOptions",
      "outputs": [],
      "stateMutability": "nonpayable",
      "type": "function"
    },
    {
      "inputs": [
        {
          "internalType": "uint32",
          "name": "_eid",
          "type": "uint32"
        },
        {
          "internalType": "bytes32",
          "name": "_peer",
          "type": "bytes32"
        }
      ],
      "name": "setPeer",
      "outputs": [],
      "stateMutability": "nonpayable",
      "type": "function"
    },
    {
      "inputs": [],
      "name": "templateId",
      "outputs": [
        {
          "internalType": "uint256",
          "name": "",
          "type": "uint256"
        }
      ],
      "stateMutability": "view",
      "type": "function"
    },
    {
      "inputs": [],
      "name": "templateRegistry",
      "outputs": [
        {
          "internalType": "contract IDisputeTemplateRegistry",
          "name": "",
          "type": "address"
        }
      ],
      "stateMutability": "view",
      "type": "function"
    },
    {
      "inputs": [
        {
          "internalType": "address",
          "name": "newOwner",
          "type": "address"
        }
      ],
      "name": "transferOwnership",
      "outputs": [],
      "stateMutability": "nonpayable",
      "type": "function"
    },
    {
      "inputs": [],
      "name": "wNative",
      "outputs": [
        {
          "internalType": "address",
          "name": "",
          "type": "address"
        }
      ],
      "stateMutability": "view",
      "type": "function"
    },
    {
      "inputs": [
        {
          "internalType": "uint256",
          "name": "_amount",
          "type": "uint256"
        }
      ],
      "name": "withdrawETH",
      "outputs": [],
      "stateMutability": "nonpayable",
      "type": "function"
    },
    {
      "stateMutability": "payable",
      "type": "receive"
    }
  ],
  "transactionHash": "0xe537caf3c5c13369cd084a6cf901a8f32908e04a4b0dd157770e77778b0e2c1a",
  "args": [
    "0x2836ae2ea2c013acd38028fd0c77b92cccfa2ee4",
    "0xE8442307d36e9bf6aB27F1A009F95CE8E11C3479",
    "0x00000000000000000000000000000000000000000000000000000000000000010000000000000000000000000000000000000000000000000000000000000001",
    "0xe763d31Cb096B4bc7294012B78FC7F148324ebcb",
    "{\n    \"title\": \"A reality.eth question\",\n    \"description\": \"A reality.eth question has been raised to arbitration.\",\n    \"question\": \"{{ question }}\",\n    \"type\": \"{{ type }}\",\n    \"answers\": [\n      {{# answers }}\n      {\n        \"title\": \"{{ title }}\",\n        \"description\": \"{{ description }}\",\n        \"id\": \"{{ id }}\",\n        \"reserved\": {{ reserved }}\n      }{{^ last }},{{/ last }}\n      {{/ answers }}        \n    ],\n    \"policyURI\": \"/ipfs/QmZ5XaV2RVgBADq5qMpbuEwgCuPZdRgCeu8rhGtJWLV6yz\",\n    \"frontendUrl\": \"https://reality.eth.limo/app/#!/question/{{ realityAddress }}-{{ questionId }}\",\n    \"arbitratorChainID\": \"421614\",\n    \"arbitratorAddress\": \"0xE8442307d36e9bf6aB27F1A009F95CE8E11C3479\",\n    \"category\": \"Oracle\",\n    \"lang\": \"en_US\",\n    \"specification\": \"KIP99\",\n    \"version\": \"1.0\"\n}",
    "[\n  {\n    \"type\": \"json\",\n    \"value\": {\n      \"question\": \"**Kleros Moderate:** Did the user, **degenape6** (ID: 1554345080), break the Telegram group, ***[Kleros Trading Group]()*** (ID: -1001151472172), ***[rules](https://cdn.kleros.link/ipfs/Qme3Qbj9rKUNHUe9vj9rqCLnTVUCWKy2YfveQF8HiuWQSu/Kleros%20Moderate%20Community%20Rules.pdf)*** due to conduct related to the ***[message](https://t.me/c/1151472172/116662)*** (***[backup](https://cdn.kleros.link/ipfs/QmVbFrZR1bcyQzZjvLyXwL9ekDxrqHERykdreRxXrw4nqg/animations_file_23.mp4)***)?\",\n      \"type\": \"single-select\",\n      \"answers\": [\n        {\n          \"title\": \"Refuse to Arbitrate or Invalid\",\n          \"id\": \"0x00\",\n          \"reserved\": true\n        },\n        {\n          \"title\": \"Yes\",\n          \"description\": \"The user broke the rules.\",\n          \"id\": \"0x01\",\n          \"reserved\": false\n        },\n        {\n          \"title\": \"No\",\n          \"description\": \"The user didnt break the rules.\",\n          \"id\": \"0x02\",\n          \"reserved\": false\n        },\n        {\n          \"id\": \"0xFFFFFFFFFFFFFFFFFFFFFFFFFFFFFFFFFFFFFFFFFFFFFFFFFFFFFFFFFFFFFFFF\",\n          \"title\": \"Answered Too Soon\",\n          \"reserved\": true,\n          \"last\": true\n        }\n      ],\n      \"questionId\": \"0xe2a3bd38e3ad4e22336ac35b221bbbdd808d716209f84014c7bc3bf62f8e3b39\",\n      \"realityAddress\": \"0x14a6748192aBC6E10CA694Ae07bDd4327D6c7A51\"\n    },\n    \"seek\": [\n      \"question\",\n      \"type\",\n      \"answers\",\n      \"questionId\",\n      \"realityAddress\"\n    ],\n    \"populate\": [\n      \"question\",\n      \"type\",\n      \"answers\",\n      \"questionId\",\n      \"realityAddress\"\n    ]\n  }\n]",
    40161,
    "0x6EDCE65403992e310A62460808c4b910D972f10f"
  ],
  "numDeployments": 1,
  "solcInputHash": "1fb4d79f53fec48585f0415760569758",
  "bytecode": "0x6101206040523480156200001257600080fd5b506040516200403238038062004032833981016040819052620000359162000308565b8033818180806200006057604051631e4fbdf760e01b81526000600482015260240160405180910390fd5b6200006b81620001b9565b506001600160a01b0380831660805281166200009a57604051632d618d8160e21b815260040160405180910390fd5b60805160405163ca5eb5e160e01b81526001600160a01b0383811660048301529091169063ca5eb5e190602401600060405180830381600087803b158015620000e257600080fd5b505af1158015620000f7573d6000803e3d6000fd5b505050506001600160a01b038c811660a0528b1660c05250600392506200012391508890508262000489565b506001600160a01b03851660e08190526040516312a6505d60e21b8152634a9941749062000158908790879060040162000583565b6020604051808303816000875af115801562000178573d6000803e3d6000fd5b505050506040513d601f19601f820116820180604052508101906200019e9190620005c3565b6005555063ffffffff166101005250620005dd945050505050565b600080546001600160a01b038381166001600160a01b0319831681178455604051919092169283917f8be0079c531659141344cd1fd0a4f28419497f9722a3daafe3b4186f6b6457e09190a35050565b80516001600160a01b03811681146200022157600080fd5b919050565b634e487b7160e01b600052604160045260246000fd5b60005b83811015620002595781810151838201526020016200023f565b50506000910152565b600082601f8301126200027457600080fd5b81516001600160401b038082111562000291576200029162000226565b604051601f8301601f19908116603f01168101908282118183101715620002bc57620002bc62000226565b81604052838152866020858801011115620002d657600080fd5b620002e98460208301602089016200023c565b9695505050505050565b805163ffffffff811681146200022157600080fd5b600080600080600080600080610100898b0312156200032657600080fd5b620003318962000209565b97506200034160208a0162000209565b60408a01519097506001600160401b03808211156200035f57600080fd5b6200036d8c838d0162000262565b97506200037d60608c0162000209565b965060808b01519150808211156200039457600080fd5b620003a28c838d0162000262565b955060a08b0151915080821115620003b957600080fd5b50620003c88b828c0162000262565b935050620003d960c08a01620002f3565b9150620003e960e08a0162000209565b90509295985092959890939650565b600181811c908216806200040d57607f821691505b6020821081036200042e57634e487b7160e01b600052602260045260246000fd5b50919050565b601f82111562000484576000816000526020600020601f850160051c810160208610156200045f5750805b601f850160051c820191505b8181101562000480578281556001016200046b565b5050505b505050565b81516001600160401b03811115620004a557620004a562000226565b620004bd81620004b68454620003f8565b8462000434565b602080601f831160018114620004f55760008415620004dc5750858301515b600019600386901b1c1916600185901b17855562000480565b600085815260208120601f198616915b82811015620005265788860151825594840194600190910190840162000505565b5085821015620005455787850151600019600388901b60f8161c191681555b5050505050600190811b01905550565b600081518084526200056f8160208601602086016200023c565b601f01601f19169290920160200192915050565b6060815260006060820152608060208201526000620005a6608083018562000555565b8281036040840152620005ba818562000555565b95945050505050565b600060208284031215620005d657600080fd5b5051919050565b60805160a05160c05160e0516101005161395a620006d860003960008181610670015281816115d801528181611652015281816116eb01528181611a2101528181611a9c01528181611bad01528181611d8a01528181611e050152611e630152600081816106b9015261102c01526000818161052301528181610b6701528181610c2e01528181610dc0015281816119550152818161231b015281816123c2015261258c015260008181610373015281816116c2015281816121a4015261252d01526000818161047201528181610a0a015281816110d40152818161266d0152818161284d015281816129510152612a08015261395a6000f3fe6080604052600436106102815760003560e01c80638b7495261161014f578063bb163782116100c1578063ca5eb5e11161007a578063ca5eb5e114610870578063e742e2ed14610890578063edabc474146108b0578063f14210a61461091a578063f2fde38b1461093a578063ff7bd03d1461095a57600080fd5b8063bb16378214610788578063bc70b354146107a6578063bde80ca7146107c6578063be26fc8814610803578063c21ae06114610823578063c5d552881461085057600080fd5b8063a22352e211610113578063a22352e2146106db578063a829c3d1146106fb578063aba980eb1461070e578063b85cb85214610494578063b98bd0701461073b578063bb0b6a531461075b57600080fd5b80638b749526146105fe5780638d8b2d7e1461061e5780638da5cb5b14610640578063983dfb451461065e578063a0af81f0146106a757600080fd5b80635535d461116101f3578063715018a6116101ac578063715018a614610545578063756804c01461055a5780637a710491146102b85780637aa77f29146105905780637d25a05e146105a657806382413eac146105de57600080fd5b80635535d4611461042d5780635e1416d11461044d5780635e280f111461046057806360fedaae1461049457806368cb30f5146104d15780636cc6cde11461051157600080fd5b80632659070e116102455780632659070e146103415780632d68efc914610361578063311a6c56146103ad5780633400288b146103cd5780634aa6a1e4146103ed5780635082a7991461040d57600080fd5b80630c7ac7b61461028d5780630fa8c7ce146102b857806313137d65146102dc57806317442b70146102f157806324fd4c051461031357600080fd5b3661028857005b600080fd5b34801561029957600080fd5b506102a261097a565b6040516102af9190612b80565b60405180910390f35b3480156102c457600080fd5b506102ce60001981565b6040519081526020016102af565b6102ef6102ea366004612c08565b610a08565b005b3480156102fd57600080fd5b50604080516001815260026020820152016102af565b34801561031f57600080fd5b5061033361032e366004612ca7565b610ac8565b6040516102af929190612ce8565b34801561034d57600080fd5b506102ef61035c366004612d05565b610ae4565b34801561036d57600080fd5b506103957f000000000000000000000000000000000000000000000000000000000000000081565b6040516001600160a01b0390911681526020016102af565b3480156103b957600080fd5b506102ef6103c8366004612d60565b610b2b565b3480156103d957600080fd5b506102ef6103e8366004612d9b565b610c84565b3480156103f957600080fd5b506102ef610408366004612dc5565b610c9a565b34801561041957600080fd5b506102ef610428366004612dc5565b610ca4565b34801561043957600080fd5b506102a2610448366004612e05565b610cae565b6102ef61045b366004612e31565b610cd2565b34801561046c57600080fd5b506103957f000000000000000000000000000000000000000000000000000000000000000081565b3480156104a057600080fd5b506104b46104af366004612f56565b610d13565b604080519283526001600160a01b039091166020830152016102af565b3480156104dd57600080fd5b506105016104ec366004612f8a565b60076020526000908152604090205460ff1681565b60405190151581526020016102af565b34801561051d57600080fd5b506103957f000000000000000000000000000000000000000000000000000000000000000081565b34801561055157600080fd5b506102ef610d33565b34801561056657600080fd5b50610395610575366004612f8a565b6008602052600090815260409020546001600160a01b031681565b34801561059c57600080fd5b506102ce60055481565b3480156105b257600080fd5b506105c66105c1366004612d9b565b610d47565b6040516001600160401b0390911681526020016102af565b3480156105ea57600080fd5b506105016105f9366004612fa3565b610d50565b34801561060a57600080fd5b506102ef610619366004612d05565b610d65565b34801561062a57600080fd5b506102ce610639366004612f8a565b5060001990565b34801561064c57600080fd5b506000546001600160a01b0316610395565b34801561066a57600080fd5b506106927f000000000000000000000000000000000000000000000000000000000000000081565b60405163ffffffff90911681526020016102af565b3480156106b357600080fd5b506103957f000000000000000000000000000000000000000000000000000000000000000081565b3480156106e757600080fd5b506102ce6106f6366004612f8a565b610da6565b6102ef610709366004612d60565b610e37565b34801561071a57600080fd5b506102ce610729366004612f8a565b60096020526000908152604090205481565b34801561074757600080fd5b506102ef610756366004613009565b610e41565b34801561076757600080fd5b506102ce61077636600461307d565b60016020526000908152604090205481565b34801561079457600080fd5b506102ce6107a3366004612f8a565b90565b3480156107b257600080fd5b506102a26107c1366004613098565b610e5b565b3480156107d257600080fd5b506104b46107e1366004612f8a565b600660205260009081526040902080546001909101546001600160a01b031682565b34801561080f57600080fd5b506102ef61081e366004612dc5565b611003565b34801561082f57600080fd5b506102ce61083e366004612f8a565b60009081526006602052604090205490565b34801561085c57600080fd5b506102ef61086b3660046130c7565b61100d565b34801561087c57600080fd5b506102ef61088b36600461312a565b6110ad565b34801561089c57600080fd5b506102ef6108ab366004612dc5565b611133565b3480156108bc57600080fd5b5061090a6108cb366004612dc5565b600460209081526000928352604080842090915290825290208054600182015460029092015460ff8216926101009092046001600160f81b0316919084565b6040516102af949392919061315d565b34801561092657600080fd5b506102ef610935366004612f8a565b61113d565b34801561094657600080fd5b506102ef61095536600461312a565b6111c5565b34801561096657600080fd5b506105016109753660046131a4565b611203565b60038054610987906131c0565b80601f01602080910402602001604051908101604052809291908181526020018280546109b3906131c0565b8015610a005780601f106109d557610100808354040283529160200191610a00565b820191906000526020600020905b8154815290600101906020018083116109e357829003601f168201915b505050505081565b7f00000000000000000000000000000000000000000000000000000000000000006001600160a01b03163314610a58576040516391ac5e4f60e01b81523360048201526024015b60405180910390fd5b60208701803590610a7290610a6d908a61307d565b611239565b14610ab057610a84602088018861307d565b60405163309afaf360e21b815263ffffffff909116600482015260208801356024820152604401610a4f565b610abf87878787878787611275565b50505050505050565b60006060610ad8838501856131f4565b915091505b9250929050565b610b25848484848080601f01602080910402602001604051908101604052809392919081815260200183838082843760009201919091525061151992505050565b50505050565b600082815260066020908152604080832080546001820154818652600485528386206001600160a01b03918216808852955292909420909392917f0000000000000000000000000000000000000000000000000000000000000000163314610bd55760405162461bcd60e51b815260206004820152601760248201527f4f6e6c792061726269747261746f7220616c6c6f7765640000000000000000006044820152606401610a4f565b6002815460ff166005811115610bed57610bed613147565b14610c0a5760405162461bcd60e51b8152600401610a4f90613239565b60028101859055805460ff1916600317815560405185815286906001600160a01b037f000000000000000000000000000000000000000000000000000000000000000016907f394027a5fa6e098a1191094d1719d6929b9abc535fcc0c8f448d6a4e756222769060200160405180910390a3505050505050565b610c8c61176e565b610c96828261179b565b5050565b610c9682826117f0565b610c96828261182a565b600260209081526000928352604080842090915290825290208054610987906131c0565b610b25848484848080601f01602080910402602001604051908101604052809392919081815260200183838082843760009201919091525061185f92505050565b60008082806020019051810190610d2a9190613270565b91509150915091565b610d3b61176e565b610d456000611c19565b565b60005b92915050565b6001600160a01b03811630145b949350505050565b610b25848484848080601f016020809104026020016040519081016040528093929190818152602001838380828437600092019190915250611c6992505050565b60405163f7434ea960e01b81526000906001600160a01b037f0000000000000000000000000000000000000000000000000000000000000000169063f7434ea990610df690600390600401613312565b602060405180830381865afa158015610e13573d6000803e3d6000fd5b505050506040513d601f19601f82011682018060405250810190610d4a9190613325565b610c968282611ee9565b610e4961176e565b610c96610e56828461333e565b611f1e565b63ffffffff8416600090815260026020908152604080832061ffff87168452909152812080546060929190610e8f906131c0565b80601f0160208091040260200160405190810160405280929190818152602001828054610ebb906131c0565b8015610f085780601f10610edd57610100808354040283529160200191610f08565b820191906000526020600020905b815481529060010190602001808311610eeb57829003601f168201915b505050505090508051600003610f585783838080601f016020809104026020016040519081016040528093929190818152602001838380828437600092019190915250929450610d5d9350505050565b6000839003610f68579050610d5d565b60028310610fe657610faf84848080601f01602080910402602001604051908101604052809392919081815260200183838082843760009201919091525061203092505050565b80610fbd8460028188613415565b604051602001610fcf9392919061343f565b604051602081830303815290604052915050610d5d565b8383604051639a6d49cd60e01b8152600401610a4f929190613467565b610c96828261205c565b61101561176e565b6040516312a6505d60e21b81526001600160a01b037f00000000000000000000000000000000000000000000000000000000000000001690634a994174906110639085908590600401613496565b6020604051808303816000875af1158015611082573d6000803e3d6000fd5b505050506040513d601f19601f820116820180604052508101906110a69190613325565b6005555050565b6110b561176e565b60405163ca5eb5e160e01b81526001600160a01b0382811660048301527f0000000000000000000000000000000000000000000000000000000000000000169063ca5eb5e190602401600060405180830381600087803b15801561111857600080fd5b505af115801561112c573d6000803e3d6000fd5b5050505050565b610c968282612205565b61114561176e565b4781111561118c5760405162461bcd60e51b8152602060048201526014602482015273496e73756666696369656e742062616c616e636560601b6044820152606401610a4f565b600080546040516001600160a01b039091169183156108fc02918491818181858888f19350505050158015610c96573d6000803e3d6000fd5b6111cd61176e565b6001600160a01b0381166111f757604051631e4fbdf760e01b815260006004820152602401610a4f565b61120081611c19565b50565b600060208201803590600190839061121b908661307d565b63ffffffff1681526020810191909152604001600020541492915050565b63ffffffff811660009081526001602052604081205480610d4a5760405163f6ff4fb760e01b815263ffffffff84166004820152602401610a4f565b6040516324fd4c0560e01b815260009060609030906324fd4c05906112a0908a908a90600401613467565b600060405180830381865afa9250505080156112de57506040513d6000823e601f3d908101601f191682016040526112db919081019061350e565b60015b6113235760405162461bcd60e51b8152602060048201526016602482015275125b9d985b1a59081b595cdcd859d948199bdc9b585d60521b6044820152606401610a4f565b909250905060011961ffff8316016114015760405163307f6d5760e11b815230906360fedaae90611358908490600401612b80565b6040805180830381865afa925050508015611390575060408051601f3d908101601f1916820190925261138d91810190613270565b60015b6113f05760405162461bcd60e51b815260206004820152602b60248201527f496e76616c6964206172626974726174696f6e2061636b6e6f776c656467656d60448201526a195b9d081c185e5b1bd85960aa1b6064820152608401610a4f565b6113fa8282612205565b505061150e565b60021961ffff8316016114cf57604051635c2e5c2960e11b8152309063b85cb85290611431908490600401612b80565b6040805180830381865afa925050508015611469575060408051601f3d908101601f1916820190925261146691810190613270565b60015b6114c55760405162461bcd60e51b815260206004820152602760248201527f496e76616c6964206172626974726174696f6e2063616e63656c6174696f6e206044820152661c185e5b1bd85960ca1b6064820152608401610a4f565b6113fa828261205c565b60405162461bcd60e51b8152602060048201526014602482015273556e6b6e6f776e206d657373616765207479706560601b6044820152606401610a4f565b505050505050505050565b60008381526004602090815260408083206001600160a01b0386168452909152902083906005815460ff16600581111561155557611555613147565b146115725760405162461bcd60e51b8152600401610a4f90613239565b805460408051600460208201529081018790526001600160a01b03861660608201526101009091046001600160f81b03169060009060800160408051601f1981840301815290829052632f1c2cd560e21b82529150600090309063bc70b35490611604907f0000000000000000000000000000000000000000000000000000000000000000906004908b908201613554565b600060405180830381865afa158015611621573d6000803e3d6000fd5b505050506040513d6000823e601f3d908101601f19168201604052611649919081019061357d565b9050600061167a7f000000000000000000000000000000000000000000000000000000000000000084846000612657565b80519091504710156116ab5780516040516334b2107560e11b81526004810191909152476024820152604401610a4f565b845460ff1685556116e66001600160a01b038916857f0000000000000000000000000000000000000000000000000000000000000000612738565b61172c7f0000000000000000000000000000000000000000000000000000000000000000848460405180604001604052808660000151815260200160008152503061281a565b506040516001600160a01b038916908a907fe7700735be0b02f71ef1d623678daf36cd936af4c349a22ad9d5a8b217df0dd990600090a3505050505050505050565b6000546001600160a01b03163314610d455760405163118cdaa760e01b8152336004820152602401610a4f565b63ffffffff8216600081815260016020908152604091829020849055815192835282018390527f238399d427b947898edb290f5ff0f9109849b1c3ba196a42e35f00c50a54b98b910160405180910390a15050565b6000600162030d406040516020016118099291906135b1565b6040516020818303038152906040529050611825838383611519565b505050565b600060016203d0906040516020016118439291906135b1565b6040516020818303038152906040529050611825838383611c69565b60008381526007602052604090205460ff16156118be5760405162461bcd60e51b815260206004820152601760248201527f4469737075746520616c726561647920637265617465640000000000000000006044820152606401610a4f565b6000838152600460209081526040808320338452909152812090815460ff1660058111156118ee576118ee613147565b1461193b5760405162461bcd60e51b815260206004820152601d60248201527f4172626974726174696f6e20616c7265616479207265717565737465640000006044820152606401610a4f565b60405163f7434ea960e01b81526000906001600160a01b037f0000000000000000000000000000000000000000000000000000000000000000169063f7434ea99061198b90600390600401613312565b602060405180830381865afa1580156119a8573d6000803e3d6000fd5b505050506040513d601f19601f820116820180604052508101906119cc9190613325565b60408051600160208201529081018790523360608201526080810186905290915060009060a00160408051601f1981840301815290829052632f1c2cd560e21b82529150600090309063bc70b35490611a4e907f0000000000000000000000000000000000000000000000000000000000000000906001908a90600401613554565b600060405180830381865afa158015611a6b573d6000803e3d6000fd5b505050506040513d6000823e601f3d908101601f19168201604052611a93919081019061357d565b90506000611ac47f000000000000000000000000000000000000000000000000000000000000000084846000612657565b905083341015611b165760405162461bcd60e51b815260206004820152601c60248201527f496e73756666696369656e74206172626974726174696f6e20666565000000006044820152606401610a4f565b8051471015611b7f5760405162461bcd60e51b815260206004820152602f60248201527f496e73756666696369656e7420636f6e74726163742062616c616e636520666f60448201526e72204c617965725a65726f2066656560881b6064820152608401610a4f565b6001600160f81b033416610100026001178555604080518082019091528151815260006020820152611bd7907f000000000000000000000000000000000000000000000000000000000000000090859085903061281a565b50604051878152339089907f2067d1b3170fe803dd001b95b04f9d372eb9c3e5a48ed131a62962a7300bdb209060200160405180910390a35050505050505050565b600080546001600160a01b038381166001600160a01b0319831681178455604051919092169283917f8be0079c531659141344cd1fd0a4f28419497f9722a3daafe3b4186f6b6457e09190a35050565b60008381526004602090815260408083206001600160a01b0386168452909152902083906003815460ff166005811115611ca557611ca5613147565b1480611cc657506004815460ff166005811115611cc457611cc4613147565b145b611d095760405162461bcd60e51b8152602060048201526014602482015273111a5cdc1d5d19481b9bdd081c995cdbdb1d995960621b6044820152606401610a4f565b805460ff1916600417815560028101546000908103611d2a57600019611d3b565b60018260020154611d3b91906135e4565b60408051600560208201529081018890526060810182905290915060009060800160408051601f1981840301815290829052632f1c2cd560e21b82529150600090309063bc70b35490611db7907f0000000000000000000000000000000000000000000000000000000000000000906005908b90600401613554565b600060405180830381865afa158015611dd4573d6000803e3d6000fd5b505050506040513d6000823e601f3d908101601f19168201604052611dfc919081019061357d565b90506000611e2d7f000000000000000000000000000000000000000000000000000000000000000084846000612657565b8051909150471015611e5e5780516040516334b2107560e11b81526004810191909152476024820152604401610a4f565b611ea47f0000000000000000000000000000000000000000000000000000000000000000848460405180604001604052808660000151815260200160008152503061281a565b50604080518a8152602081018690527fba07eb273dd4b62b682a13480e2838bfbd6afab07919d6bcad9156af107f8c41910160405180910390a1505050505050505050565b60006001620493e0604051602001611f029291906135b1565b604051602081830303815290604052905061182583838361185f565b60005b8151811015611ff557611f50828281518110611f3f57611f3f613605565b602002602001015160400151612030565b818181518110611f6257611f62613605565b60200260200101516040015160026000848481518110611f8457611f84613605565b60200260200101516000015163ffffffff1663ffffffff1681526020019081526020016000206000848481518110611fbe57611fbe613605565b60200260200101516020015161ffff1661ffff1681526020019081526020016000209081611fec919061366b565b50600101611f21565b507fbe4864a8e820971c0247f5992e2da559595f7bf076a21cb5928d443d2a13b67481604051612025919061372a565b60405180910390a150565b600281015161ffff8116600314610c965781604051639a6d49cd60e01b8152600401610a4f9190612b80565b816120a95760405162461bcd60e51b815260206004820152601b60248201527f5175657374696f6e2049442063616e6e6f7420626520656d70747900000000006044820152606401610a4f565b6001600160a01b0381166120ff5760405162461bcd60e51b815260206004820181905260248201527f5265717565737465722063616e6e6f74206265207a65726f20616464726573736044820152606401610a4f565b60008281526004602090815260408083206001600160a01b0385168452909152902082906001815460ff16600581111561213b5761213b613147565b146121585760405162461bcd60e51b8152600401610a4f90613239565b805460008381526004602090815260408083206001600160a01b0388168085529252822082815560018101839055600201919091556101009091046001600160f81b0316906121c890827f0000000000000000000000000000000000000000000000000000000000000000612738565b6040516001600160a01b0385169086907fe7700735be0b02f71ef1d623678daf36cd936af4c349a22ad9d5a8b217df0dd990600090a35050505050565b816122525760405162461bcd60e51b815260206004820152601b60248201527f5175657374696f6e2049442063616e6e6f7420626520656d70747900000000006044820152606401610a4f565b6001600160a01b0381166122a85760405162461bcd60e51b815260206004820181905260248201527f5265717565737465722063616e6e6f74206265207a65726f20616464726573736044820152606401610a4f565b60008281526004602090815260408083206001600160a01b0385168452909152902082906001815460ff1660058111156122e4576122e4613147565b146123015760405162461bcd60e51b8152600401610a4f90613239565b60405163f7434ea960e01b81526000906001600160a01b037f0000000000000000000000000000000000000000000000000000000000000000169063f7434ea99061235190600390600401613312565b602060405180830381865afa15801561236e573d6000803e3d6000fd5b505050506040513d601f19601f820116820180604052508101906123929190613325565b825490915061010090046001600160f81b0316811161260f5760405163c13517e160e01b81526001600160a01b037f0000000000000000000000000000000000000000000000000000000000000000169063c13517e19083906123fe90600019906003906004016137b5565b60206040518083038185885af193505050508015612439575060408051601f3d908101601f1916820190925261243691810190613325565b60015b61248357815460ff191660051782556040516001600160a01b0385169086907f9beda0c81abc1c65da7685f113195974dfddb781dfde6263e5a1b13a5356ffad90600090a361112c565b6000818152600660209081526040808320878155600180820180546001600160a01b038c166001600160a01b031991821681179092558a875260078652848720805460ff191690931790925560088552838620805490921617905584845260099092528220439055845490919061250a9085906001600160f81b03610100909104166135e4565b600286556001860184905590508015612551576125516001600160a01b038816827f0000000000000000000000000000000000000000000000000000000000000000612738565b82876001600160a01b0316897fcf9bcbc2efae51060af73ef64119281007f63eada739f19c41c181d8350fa81460405160405180910390a4827f00000000000000000000000000000000000000000000000000000000000000006001600160a01b03167f8bd32f430ff060e6bd204709b3790c9807987263d3230c580dc80b5f89e27186886005546040516125ff929190918252602082015260606040820181905260009082015260800190565b60405180910390a350505061112c565b815460ff191660051782556040516001600160a01b0385169086907f9beda0c81abc1c65da7685f113195974dfddb781dfde6263e5a1b13a5356ffad90600090a35050505050565b60408051808201909152600080825260208201527f00000000000000000000000000000000000000000000000000000000000000006001600160a01b031663ddc28c586040518060a001604052808863ffffffff1681526020016126ba89611239565b8152602001878152602001868152602001851515815250306040518363ffffffff1660e01b81526004016126ef9291906137ce565b6040805180830381865afa15801561270b573d6000803e3d6000fd5b505050506040513d601f19601f8201168201806040525081019061272f9190613895565b95945050505050565b6040516001600160a01b0384169083156108fc029084906000818181858888f193505050501561276757505050565b806001600160a01b031663d0e30db0836040518263ffffffff1660e01b81526004016000604051808303818588803b1580156127a257600080fd5b505af11580156127b6573d6000803e3d6000fd5b505060405163a9059cbb60e01b81526001600160a01b038781166004830152602482018790528516935063a9059cbb92506044019050600060405180830381600087803b15801561280657600080fd5b505af1158015610abf573d6000803e3d6000fd5b612822612ae9565b60006128318460000151612925565b60208501519091501561284b5761284b846020015161294d565b7f00000000000000000000000000000000000000000000000000000000000000006001600160a01b0316632637a450826040518060a001604052808b63ffffffff16815260200161289b8c611239565b81526020018a815260200189815260200160008960200151111515815250866040518463ffffffff1660e01b81526004016128d79291906137ce565b60806040518083038185885af11580156128f5573d6000803e3d6000fd5b50505050506040513d601f19601f8201168201806040525081019061291a91906138b1565b979650505050505050565b6000813414612949576040516304fb820960e51b8152346004820152602401610a4f565b5090565b60007f00000000000000000000000000000000000000000000000000000000000000006001600160a01b031663e4fe1d946040518163ffffffff1660e01b8152600401602060405180830381865afa1580156129ad573d6000803e3d6000fd5b505050506040513d601f19601f820116820180604052508101906129d19190613907565b90506001600160a01b0381166129fa576040516329b99a9560e11b815260040160405180910390fd5b6040805133602482018190527f00000000000000000000000000000000000000000000000000000000000000006001600160a01b0381811660448501526064808501889052855180860390910181526084909401909452602080840180516001600160e01b03166323b872dd60e01b1781528451610c96968816958993610b2593889360009283929091839182885af180612a9b576040513d6000823e3d81fd5b50506000513d91508115612ab3578060011415612ac0565b6001600160a01b0384163b155b15610b2557604051635274afe760e01b81526001600160a01b0385166004820152602401610a4f565b60405180606001604052806000801916815260200160006001600160401b03168152602001612b2b604051806040016040528060008152602001600081525090565b905290565b60005b83811015612b4b578181015183820152602001612b33565b50506000910152565b60008151808452612b6c816020860160208601612b30565b601f01601f19169290920160200192915050565b602081526000612b936020830184612b54565b9392505050565b600060608284031215612bac57600080fd5b50919050565b60008083601f840112612bc457600080fd5b5081356001600160401b03811115612bdb57600080fd5b602083019150836020828501011115610add57600080fd5b6001600160a01b038116811461120057600080fd5b600080600080600080600060e0888a031215612c2357600080fd5b612c2d8989612b9a565b96506060880135955060808801356001600160401b0380821115612c5057600080fd5b612c5c8b838c01612bb2565b909750955060a08a01359150612c7182612bf3565b90935060c08901359080821115612c8757600080fd5b50612c948a828b01612bb2565b989b979a50959850939692959293505050565b60008060208385031215612cba57600080fd5b82356001600160401b03811115612cd057600080fd5b612cdc85828601612bb2565b90969095509350505050565b61ffff83168152604060208201526000610d5d6040830184612b54565b60008060008060608587031215612d1b57600080fd5b843593506020850135612d2d81612bf3565b925060408501356001600160401b03811115612d4857600080fd5b612d5487828801612bb2565b95989497509550505050565b60008060408385031215612d7357600080fd5b50508035926020909101359150565b803563ffffffff81168114612d9657600080fd5b919050565b60008060408385031215612dae57600080fd5b612db783612d82565b946020939093013593505050565b60008060408385031215612dd857600080fd5b823591506020830135612dea81612bf3565b809150509250929050565b61ffff8116811461120057600080fd5b60008060408385031215612e1857600080fd5b612e2183612d82565b91506020830135612dea81612df5565b60008060008060608587031215612e4757600080fd5b843593506020850135925060408501356001600160401b03811115612d4857600080fd5b634e487b7160e01b600052604160045260246000fd5b604051606081016001600160401b0381118282101715612ea357612ea3612e6b565b60405290565b604051601f8201601f191681016001600160401b0381118282101715612ed157612ed1612e6b565b604052919050565b60006001600160401b03821115612ef257612ef2612e6b565b50601f01601f191660200190565b600082601f830112612f1157600080fd5b8135612f24612f1f82612ed9565b612ea9565b818152846020838601011115612f3957600080fd5b816020850160208301376000918101602001919091529392505050565b600060208284031215612f6857600080fd5b81356001600160401b03811115612f7e57600080fd5b610d5d84828501612f00565b600060208284031215612f9c57600080fd5b5035919050565b60008060008060a08587031215612fb957600080fd5b612fc38686612b9a565b935060608501356001600160401b03811115612fde57600080fd5b612fea87828801612bb2565b9094509250506080850135612ffe81612bf3565b939692955090935050565b6000806020838503121561301c57600080fd5b82356001600160401b038082111561303357600080fd5b818501915085601f83011261304757600080fd5b81358181111561305657600080fd5b8660208260051b850101111561306b57600080fd5b60209290920196919550909350505050565b60006020828403121561308f57600080fd5b612b9382612d82565b600080600080606085870312156130ae57600080fd5b6130b785612d82565b93506020850135612d2d81612df5565b600080604083850312156130da57600080fd5b82356001600160401b03808211156130f157600080fd5b6130fd86838701612f00565b9350602085013591508082111561311357600080fd5b5061312085828601612f00565b9150509250929050565b60006020828403121561313c57600080fd5b8135612b9381612bf3565b634e487b7160e01b600052602160045260246000fd5b608081016006861061317f57634e487b7160e01b600052602160045260246000fd5b9481526001600160f81b03939093166020840152604083019190915260609091015290565b6000606082840312156131b657600080fd5b612b938383612b9a565b600181811c908216806131d457607f821691505b602082108103612bac57634e487b7160e01b600052602260045260246000fd5b6000806040838503121561320757600080fd5b823561321281612df5565b915060208301356001600160401b0381111561322d57600080fd5b61312085828601612f00565b6020808252601a908201527f496e76616c6964206172626974726174696f6e20737461747573000000000000604082015260600190565b6000806040838503121561328357600080fd5b825191506020830151612dea81612bf3565b600081546132a2816131c0565b8085526020600183811680156132bf57600181146132d957613307565b60ff1985168884015283151560051b880183019550613307565b866000528260002060005b858110156132ff5781548a82018601529083019084016132e4565b890184019650505b505050505092915050565b602081526000612b936020830184613295565b60006020828403121561333757600080fd5b5051919050565b60006001600160401b038084111561335857613358612e6b565b8360051b6020613369818301612ea9565b86815291850191818101903684111561338157600080fd5b865b848110156134095780358681111561339b5760008081fd5b880160603682900312156133af5760008081fd5b6133b7612e81565b6133c082612d82565b8152858201356133cf81612df5565b81870152604082810135898111156133e75760008081fd5b6133f336828601612f00565b9183019190915250845250918301918301613383565b50979650505050505050565b6000808585111561342557600080fd5b8386111561343257600080fd5b5050820193919092039150565b60008451613451818460208901612b30565b8201838582376000930192835250909392505050565b60208152816020820152818360408301376000818301604090810191909152601f909201601f19160101919050565b60608152600060608201526080602082015260006134b76080830185612b54565b828103604084015261272f8185612b54565b600082601f8301126134da57600080fd5b81516134e8612f1f82612ed9565b8181528460208386010111156134fd57600080fd5b610d5d826020830160208701612b30565b6000806040838503121561352157600080fd5b825161352c81612df5565b60208401519092506001600160401b0381111561354857600080fd5b613120858286016134c9565b63ffffffff8416815261ffff8316602082015260606040820152600061272f6060830184612b54565b60006020828403121561358f57600080fd5b81516001600160401b038111156135a557600080fd5b610d5d848285016134c9565b60f09290921b6001600160f01b031916825260801b6fffffffffffffffffffffffffffffffff1916600282015260120190565b81810381811115610d4a57634e487b7160e01b600052601160045260246000fd5b634e487b7160e01b600052603260045260246000fd5b601f821115611825576000816000526020600020601f850160051c810160208610156136445750805b601f850160051c820191505b8181101561366357828155600101613650565b505050505050565b81516001600160401b0381111561368457613684612e6b565b6136988161369284546131c0565b8461361b565b602080601f8311600181146136cd57600084156136b55750858301515b600019600386901b1c1916600185901b178555613663565b600085815260208120601f198616915b828110156136fc578886015182559484019460019091019084016136dd565b508582101561371a5787850151600019600388901b60f8161c191681555b5050505050600190811b01905550565b600060208083018184528085518083526040925060408601915060408160051b87010184880160005b838110156137a757888303603f190185528151805163ffffffff1684528781015161ffff1688850152860151606087850181905261379381860183612b54565b968901969450505090860190600101613753565b509098975050505050505050565b828152604060208201526000610d5d6040830184613295565b6040815263ffffffff8351166040820152602083015160608201526000604084015160a0608084015261380460e0840182612b54565b90506060850151603f198483030160a08501526138218282612b54565b60809690960151151560c08501525050506001600160a01b039190911660209091015290565b60006040828403121561385957600080fd5b604051604081018181106001600160401b038211171561387b5761387b612e6b565b604052825181526020928301519281019290925250919050565b6000604082840312156138a757600080fd5b612b938383613847565b6000608082840312156138c357600080fd5b6138cb612e81565b8251815260208301516001600160401b03811681146138e957600080fd5b60208201526138fb8460408501613847565b60408201529392505050565b60006020828403121561391957600080fd5b8151612b9381612bf356fea2646970667358221220b6efb9b6c015c5d06269bc861395ac4bc544c03065eadd4616016ab08a03580264736f6c63430008180033",
  "devdoc": {
    "details": "This contract is meant to be deployed to the Ethereum chains where Kleros is deployed.",
    "errors": {
      "OwnableInvalidOwner(address)": [
        {
          "details": "The owner is not a valid owner account. (eg. `address(0)`)"
        }
      ],
      "OwnableUnauthorizedAccount(address)": [
        {
          "details": "The caller account is not authorized to perform an operation."
        }
      ],
      "SafeERC20FailedOperation(address)": [
        {
          "details": "An operation with an ERC-20 token failed."
        }
      ]
    },
    "events": {
      "ArbitrationCanceled(bytes32,address)": {
        "params": {
          "_questionID": "The ID of the question with the request for arbitration.",
          "_requester": "The address of the arbitration requester."
        }
      },
      "ArbitrationCreated(bytes32,address,uint256)": {
        "params": {
          "_disputeID": "The ID of the dispute.",
          "_questionID": "The ID of the question with the request for arbitration.",
          "_requester": "The address of the arbitration requester."
        }
      },
      "ArbitrationFailed(bytes32,address)": {
        "details": "This will happen if there is an increase in the arbitration fees between the time the arbitration is made and the time it is acknowledged.",
        "params": {
          "_questionID": "The ID of the question with the request for arbitration.",
          "_requester": "The address of the arbitration requester."
        }
      },
      "ArbitrationRequested(bytes32,address,uint256)": {
        "params": {
          "_maxPrevious": "The maximum value of the current bond for the question. The arbitration request will get rejected if the current bond is greater than _maxPrevious. If set to 0, _maxPrevious is ignored.",
          "_questionID": "The ID of the question with the request for arbitration.",
          "_requester": "The address of the arbitration requester."
        }
      },
      "DisputeRequest(address,uint256,uint256,uint256,string)": {
        "details": "To be emitted when a dispute is created to link the correct meta-evidence to the disputeID.",
        "params": {
          "_arbitrator": "The arbitrator of the contract.",
          "_arbitratorDisputeID": "The identifier of the dispute in the Arbitrator contract.",
          "_externalDisputeID": "An identifier created outside Kleros by the protocol requesting arbitration.",
          "_templateId": "The identifier of the dispute template. Should not be used with _templateUri.",
          "_templateUri": "The URI to the dispute template. For example on IPFS: starting with '/ipfs/'. Should not be used with _templateId."
        }
      },
      "Ruling(address,uint256,uint256)": {
        "details": "To be raised when a ruling is given.",
        "params": {
          "_arbitrator": "The arbitrator giving the ruling.",
          "_disputeID": "The identifier of the dispute in the Arbitrator contract.",
          "_ruling": "The ruling which was given."
        }
      },
      "RulingRelayed(bytes32,bytes32)": {
        "params": {
          "_questionID": "The ID of the question with the ruling to relay.",
          "_ruling": "Ruling converted into Realitio format."
        }
      }
    },
    "kind": "dev",
    "methods": {
      "_decodeMessage(bytes)": {
        "details": "These are marked external to be called via try/catch for error handling."
      },
      "allowInitializePath((uint32,bytes32,uint64))": {
        "details": "This indicates to the endpoint that the OApp has enabled msgs for this particular path to be received.This defaults to assuming if a peer has been set, its initialized. Can be overridden by the OApp if there is other logic to determine this.",
        "params": {
          "origin": "The origin information containing the source endpoint and sender address."
        },
        "returns": {
          "_0": "Whether the path has been initialized."
        }
      },
      "changeDisputeTemplate(string,string)": {
        "params": {
          "_templateData": "The new dispute template data.",
          "_templateDataMappings": "The new dispute template data mappings."
        }
      },
      "combineOptions(uint32,uint16,bytes)": {
        "details": "If there is an enforced lzReceive option: - {gasLimit: 200k, msg.value: 1 ether} AND a caller supplies a lzReceive option: {gasLimit: 100k, msg.value: 0.5 ether} - The resulting options will be {gasLimit: 300k, msg.value: 1.5 ether} when the message is executed on the remote lzReceive() function.This presence of duplicated options is handled off-chain in the verifier/executor.",
        "params": {
          "_eid": "The endpoint ID.",
          "_extraOptions": "Additional options passed by the caller.",
          "_msgType": "The OAPP message type."
        },
        "returns": {
          "_0": "options The combination of caller specified options AND enforced options."
        }
      },
      "constructor": {
        "params": {
          "_arbitrator": "Arbitrator contract address.",
          "_arbitratorExtraData": "The extra data used to raise a dispute in the arbitrator.",
          "_endpoint": "The LayerZero endpoint address.",
          "_homeEid": "The endpoint ID where the home proxy is deployed.",
          "_templateData": "The dispute template data.",
          "_templateDataMappings": "The dispute template data mappings.",
          "_templateRegistry": "The dispute template registry.",
          "_wNative": "The address of the wrapped version of the native currency."
        }
      },
      "externalIDtoLocalID(uint256)": {
        "params": {
          "_externalDisputeID": "Dispute id as in arbitrator side."
        },
        "returns": {
          "_0": "localDisputeID Dispute id as in arbitrable contract."
        }
      },
      "getDisputeFee(bytes32)": {
        "returns": {
          "_0": "The fee to create a dispute."
        }
      },
      "handleFailedDisputeCreation(bytes32,address)": {
        "params": {
          "_questionID": "The ID of the question.",
          "_requester": "The address of the arbitration requester."
        }
      },
      "handleFailedDisputeCreationCustomParameters(bytes32,address,bytes)": {
        "params": {
          "_options": "LayerZero message execution options.",
          "_questionID": "The ID of the question.",
          "_requester": "The address of the arbitration requester."
        }
      },
      "isComposeMsgSender((uint32,bytes32,uint64),bytes,address)": {
        "details": "_origin The origin information containing the source endpoint and sender address.  - srcEid: The source chain endpoint ID.  - sender: The sender address on the src chain.  - nonce: The nonce of the message._message The lzReceive payload.Applications can optionally choose to implement separate composeMsg senders that are NOT the bridging layer.The default sender IS the OAppReceiver implementer.",
        "params": {
          "_sender": "The sender address."
        },
        "returns": {
          "_0": "isSender Is a valid sender."
        }
      },
      "lzReceive((uint32,bytes32,uint64),bytes32,bytes,address,bytes)": {
        "details": "Entry point for receiving messages or packets from the endpoint.Entry point for receiving msg/packet from the LayerZero endpoint.",
        "params": {
          "_executor": "The address of the executor for the received message.",
          "_extraData": "Additional arbitrary data provided by the corresponding executor.",
          "_guid": "The unique identifier for the received LayerZero message.",
          "_message": "The payload of the received message.",
          "_origin": "The origin information containing the source endpoint and sender address.  - srcEid: The source chain endpoint ID.  - sender: The sender address on the src chain.  - nonce: The nonce of the message."
        }
      },
      "nextNonce(uint32,bytes32)": {
        "details": "_srcEid The source endpoint ID._sender The sender address.The path nonce starts from 1. If 0 is returned it means that there is NO nonce ordered enforcement.Is required by the off-chain executor to determine the OApp expects msg execution is ordered.This is also enforced by the OApp.By default this is NOT enabled. ie. nextNonce is hardcoded to return 0.",
        "returns": {
          "nonce": "The next nonce."
        }
      },
      "numberOfRulingOptions(uint256)": {
        "returns": {
          "_0": "count The number of ruling options."
        }
      },
      "oAppVersion()": {
        "returns": {
          "receiverVersion": "The version of the OAppReceiver.sol implementation.",
          "senderVersion": "The version of the OAppSender.sol implementation."
        }
      },
      "owner()": {
        "details": "Returns the address of the current owner."
      },
      "questionIDToArbitrationID(bytes32)": {
        "params": {
          "_questionID": "The ID of the question."
        },
        "returns": {
          "_0": "The ID of the arbitration."
        }
      },
      "receiveArbitrationAcknowledgement(bytes32,address)": {
        "params": {
          "_questionID": "The ID of the question.",
          "_requester": "The requester."
        }
      },
      "receiveArbitrationCancelation(bytes32,address)": {
        "params": {
          "_questionID": "The ID of the question.",
          "_requester": "The requester."
        }
      },
      "relayRule(bytes32,address)": {
        "params": {
          "_questionID": "The ID of the question.",
          "_requester": "The address of the arbitration requester."
        }
      },
      "relayRuleCustomParameters(bytes32,address,bytes)": {
        "params": {
          "_options": "LayerZero message execution options.",
          "_questionID": "The ID of the question.",
          "_requester": "The address of the arbitration requester."
        }
      },
      "renounceOwnership()": {
        "details": "Leaves the contract without owner. It will not be possible to call `onlyOwner` functions. Can only be called by the current owner. NOTE: Renouncing ownership will leave the contract without an owner, thereby disabling any functionality that is only available to the owner."
      },
      "requestArbitration(bytes32,uint256)": {
        "params": {
          "_maxPrevious": "The maximum value of the current bond for the question. The arbitration request will get rejected if the current bond is greater than _maxPrevious. If set to 0, _maxPrevious is ignored.",
          "_questionID": "The ID of the question."
        }
      },
      "requestArbitrationCustomParameters(bytes32,uint256,bytes)": {
        "params": {
          "_maxPrevious": "The maximum value of the current bond for the question. The arbitration request will get rejected if the current bond is greater than _maxPrevious. If set to 0, _maxPrevious is ignored.",
          "_options": "LayerZero message execution options.",
          "_questionID": "The ID of the question."
        }
      },
      "rule(uint256,uint256)": {
        "params": {
          "_disputeID": "The ID of the dispute in the arbitrator.",
          "_ruling": "The ruling given by the arbitrator."
        }
      },
      "setDelegate(address)": {
        "details": "Only the owner/admin of the OApp can call this function.Provides the ability for a delegate to set configs, on behalf of the OApp, directly on the Endpoint contract.",
        "params": {
          "_delegate": "The address of the delegate to be set."
        }
      },
      "setEnforcedOptions((uint32,uint16,bytes)[])": {
        "details": "Sets the enforced options for specific endpoint and message type combinations.Only the owner/admin of the OApp can call this function.Provides a way for the OApp to enforce things like paying for PreCrime, AND/OR minimum dst lzReceive gas amounts etc.These enforced options can vary as the potential options/execution on the remote may differ as per the msgType. eg. Amount of lzReceive() gas necessary to deliver a lzCompose() message adds overhead you dont want to pay if you are only making a standard LayerZero message ie. lzReceive() WITHOUT sendCompose().",
        "params": {
          "_enforcedOptions": "An array of EnforcedOptionParam structures specifying enforced options."
        }
      },
      "setPeer(uint32,bytes32)": {
        "details": "Only the owner/admin of the OApp can call this function.Indicates that the peer is trusted to send LayerZero messages to this OApp.Set this to bytes32(0) to remove the peer address.Peer is a bytes32 to accommodate non-evm chains.",
        "params": {
          "_eid": "The endpoint ID.",
          "_peer": "The address of the peer to be associated with the corresponding endpoint."
        }
      },
      "transferOwnership(address)": {
        "details": "Transfers ownership of the contract to a new account (`newOwner`). Can only be called by the current owner."
      },
      "withdrawETH(uint256)": {
        "params": {
          "_amount": "The amount of ETH to withdraw."
        }
      }
    },
    "title": "Arbitration proxy for Realitio on the Arbitrator side (A.K.A. the Foreign Chain).",
    "version": 1
  },
  "userdoc": {
    "events": {
      "ArbitrationCanceled(bytes32,address)": {
        "notice": "Should be emitted when the arbitration is canceled by the Home Chain."
      },
      "ArbitrationCreated(bytes32,address,uint256)": {
        "notice": "Should be emitted when the dispute is created."
      },
      "ArbitrationFailed(bytes32,address)": {
        "notice": "Should be emitted when the dispute could not be created."
      },
      "ArbitrationRequested(bytes32,address,uint256)": {
        "notice": "Should be emitted when the arbitration is requested."
      },
      "RulingRelayed(bytes32,bytes32)": {
        "notice": "Should be emitted when the ruling is relayed to home proxy manually. Some implementations may not emit this event."
      }
    },
    "kind": "user",
    "methods": {
      "_decodeMessage(bytes)": {
        "notice": "External decoder functions for safe message parsing."
      },
      "allowInitializePath((uint32,bytes32,uint64))": {
        "notice": "Checks if the path initialization is allowed based on the provided origin."
      },
      "changeDisputeTemplate(string,string)": {
        "notice": "Allows the owner to change the dispute template."
      },
      "combineOptions(uint32,uint16,bytes)": {
        "notice": "Combines options for a given endpoint and message type."
      },
      "constructor": {
        "notice": "Creates an arbitration proxy on the foreign chain."
      },
      "endpoint()": {
        "notice": "Retrieves the LayerZero endpoint associated with the OApp."
      },
      "externalIDtoLocalID(uint256)": {
        "notice": "Maps external (arbitrator side) dispute id to local (arbitrable) dispute id."
      },
      "getDisputeFee(bytes32)": {
        "notice": "Gets the fee to create a dispute."
      },
      "handleFailedDisputeCreation(bytes32,address)": {
        "notice": "Cancels the arbitration in case the dispute could not be created. This version of the function uses recommended bridging parameters."
      },
      "handleFailedDisputeCreationCustomParameters(bytes32,address,bytes)": {
        "notice": "Cancels the arbitration in case the dispute could not be created. This function is to be used if the bridging with default parameters fail."
      },
      "isComposeMsgSender((uint32,bytes32,uint64),bytes,address)": {
        "notice": "Indicates whether an address is an approved composeMsg sender to the Endpoint."
      },
      "nextNonce(uint32,bytes32)": {
        "notice": "Retrieves the next nonce for a given source endpoint and sender address."
      },
      "numberOfRulingOptions(uint256)": {
        "notice": "Returns number of possible ruling options. Valid rulings are [0, return value]."
      },
      "oAppVersion()": {
        "notice": "Retrieves the OApp version information."
      },
      "peers(uint32)": {
        "notice": "Retrieves the peer (OApp) associated with a corresponding endpoint."
      },
      "questionIDToArbitrationID(bytes32)": {
        "notice": "Casts question ID into uint256 thus returning the related arbitration ID."
      },
      "receiveArbitrationAcknowledgement(bytes32,address)": {
        "notice": "Receives the acknowledgement of the arbitration request for the given question and requester. TRUSTED."
      },
      "receiveArbitrationCancelation(bytes32,address)": {
        "notice": "Receives the cancelation of the arbitration request for the given question and requester. TRUSTED."
      },
      "relayRule(bytes32,address)": {
        "notice": "Relays the ruling to home proxy. This version of the function uses recommended bridging parameters."
      },
      "relayRuleCustomParameters(bytes32,address,bytes)": {
        "notice": "Relays the ruling to home proxy. This function is to be used if the bridging with default parameters fail."
      },
      "requestArbitration(bytes32,uint256)": {
        "notice": "Requests arbitration for the given question and contested answer. This version of the function uses recommended bridging parameters. Note that the signature of this function can't be changed as it's required by Reality UI."
      },
      "requestArbitrationCustomParameters(bytes32,uint256,bytes)": {
        "notice": "Requests arbitration for the given question and contested answer. This function is to be used if the bridging with default parameters fail."
      },
      "rule(uint256,uint256)": {
        "notice": "Rules a specified dispute. Can only be called by the arbitrator."
      },
      "setDelegate(address)": {
        "notice": "Sets the delegate address for the OApp."
      },
      "setPeer(uint32,bytes32)": {
        "notice": "Sets the peer address (OApp instance) for a corresponding endpoint."
      },
      "withdrawETH(uint256)": {
        "notice": "Allows the owner to withdraw ETH from the contract."
      }
    },
    "version": 1
  },
  "storageLayout": {
    "storage": [
      {
        "astId": 1694,
        "contract": "src/RealitioForeignProxyLZ.sol:RealitioForeignProxyLZ",
        "label": "_owner",
        "offset": 0,
        "slot": "0",
        "type": "t_address"
      },
      {
        "astId": 946,
        "contract": "src/RealitioForeignProxyLZ.sol:RealitioForeignProxyLZ",
        "label": "peers",
        "offset": 0,
        "slot": "1",
        "type": "t_mapping(t_uint32,t_bytes32)"
      },
      {
        "astId": 1542,
        "contract": "src/RealitioForeignProxyLZ.sol:RealitioForeignProxyLZ",
        "label": "enforcedOptions",
        "offset": 0,
        "slot": "2",
        "type": "t_mapping(t_uint32,t_mapping(t_uint16,t_bytes_storage))"
      },
      {
        "astId": 2605,
        "contract": "src/RealitioForeignProxyLZ.sol:RealitioForeignProxyLZ",
        "label": "arbitratorExtraData",
        "offset": 0,
        "slot": "3",
        "type": "t_bytes_storage"
      },
      {
        "astId": 2617,
        "contract": "src/RealitioForeignProxyLZ.sol:RealitioForeignProxyLZ",
        "label": "arbitrationRequests",
        "offset": 0,
        "slot": "4",
        "type": "t_mapping(t_uint256,t_mapping(t_address,t_struct(ArbitrationRequest)2593_storage))"
      },
      {
        "astId": 2619,
        "contract": "src/RealitioForeignProxyLZ.sol:RealitioForeignProxyLZ",
        "label": "templateId",
        "offset": 0,
        "slot": "5",
        "type": "t_uint256"
      },
      {
        "astId": 2624,
        "contract": "src/RealitioForeignProxyLZ.sol:RealitioForeignProxyLZ",
        "label": "disputeIDToDisputeDetails",
        "offset": 0,
        "slot": "6",
        "type": "t_mapping(t_uint256,t_struct(DisputeDetails)2598_storage)"
      },
      {
        "astId": 2628,
        "contract": "src/RealitioForeignProxyLZ.sol:RealitioForeignProxyLZ",
        "label": "arbitrationIDToDisputeExists",
        "offset": 0,
        "slot": "7",
        "type": "t_mapping(t_uint256,t_bool)"
      },
      {
        "astId": 2632,
        "contract": "src/RealitioForeignProxyLZ.sol:RealitioForeignProxyLZ",
        "label": "arbitrationIDToRequester",
        "offset": 0,
        "slot": "8",
        "type": "t_mapping(t_uint256,t_address)"
      },
      {
        "astId": 2636,
        "contract": "src/RealitioForeignProxyLZ.sol:RealitioForeignProxyLZ",
        "label": "arbitrationCreatedBlock",
        "offset": 0,
        "slot": "9",
        "type": "t_mapping(t_uint256,t_uint256)"
      }
    ],
    "types": {
      "t_address": {
        "encoding": "inplace",
        "label": "address",
        "numberOfBytes": "20"
      },
      "t_bool": {
        "encoding": "inplace",
        "label": "bool",
        "numberOfBytes": "1"
      },
      "t_bytes32": {
        "encoding": "inplace",
        "label": "bytes32",
        "numberOfBytes": "32"
      },
      "t_bytes_storage": {
        "encoding": "bytes",
        "label": "bytes",
        "numberOfBytes": "32"
      },
      "t_enum(Status)2583": {
        "encoding": "inplace",
        "label": "enum RealitioForeignProxyLZ.Status",
        "numberOfBytes": "1"
      },
      "t_mapping(t_address,t_struct(ArbitrationRequest)2593_storage)": {
        "encoding": "mapping",
        "key": "t_address",
        "label": "mapping(address => struct RealitioForeignProxyLZ.ArbitrationRequest)",
        "numberOfBytes": "32",
        "value": "t_struct(ArbitrationRequest)2593_storage"
      },
      "t_mapping(t_uint16,t_bytes_storage)": {
        "encoding": "mapping",
        "key": "t_uint16",
        "label": "mapping(uint16 => bytes)",
        "numberOfBytes": "32",
        "value": "t_bytes_storage"
      },
      "t_mapping(t_uint256,t_address)": {
        "encoding": "mapping",
        "key": "t_uint256",
        "label": "mapping(uint256 => address)",
        "numberOfBytes": "32",
        "value": "t_address"
      },
      "t_mapping(t_uint256,t_bool)": {
        "encoding": "mapping",
        "key": "t_uint256",
        "label": "mapping(uint256 => bool)",
        "numberOfBytes": "32",
        "value": "t_bool"
      },
      "t_mapping(t_uint256,t_mapping(t_address,t_struct(ArbitrationRequest)2593_storage))": {
        "encoding": "mapping",
        "key": "t_uint256",
        "label": "mapping(uint256 => mapping(address => struct RealitioForeignProxyLZ.ArbitrationRequest))",
        "numberOfBytes": "32",
        "value": "t_mapping(t_address,t_struct(ArbitrationRequest)2593_storage)"
      },
      "t_mapping(t_uint256,t_struct(DisputeDetails)2598_storage)": {
        "encoding": "mapping",
        "key": "t_uint256",
        "label": "mapping(uint256 => struct RealitioForeignProxyLZ.DisputeDetails)",
        "numberOfBytes": "32",
        "value": "t_struct(DisputeDetails)2598_storage"
      },
      "t_mapping(t_uint256,t_uint256)": {
        "encoding": "mapping",
        "key": "t_uint256",
        "label": "mapping(uint256 => uint256)",
        "numberOfBytes": "32",
        "value": "t_uint256"
      },
      "t_mapping(t_uint32,t_bytes32)": {
        "encoding": "mapping",
        "key": "t_uint32",
        "label": "mapping(uint32 => bytes32)",
        "numberOfBytes": "32",
        "value": "t_bytes32"
      },
      "t_mapping(t_uint32,t_mapping(t_uint16,t_bytes_storage))": {
        "encoding": "mapping",
        "key": "t_uint32",
        "label": "mapping(uint32 => mapping(uint16 => bytes))",
        "numberOfBytes": "32",
        "value": "t_mapping(t_uint16,t_bytes_storage)"
      },
      "t_struct(ArbitrationRequest)2593_storage": {
        "encoding": "inplace",
        "label": "struct RealitioForeignProxyLZ.ArbitrationRequest",
        "members": [
          {
            "astId": 2586,
            "contract": "src/RealitioForeignProxyLZ.sol:RealitioForeignProxyLZ",
            "label": "status",
            "offset": 0,
            "slot": "0",
            "type": "t_enum(Status)2583"
          },
          {
            "astId": 2588,
            "contract": "src/RealitioForeignProxyLZ.sol:RealitioForeignProxyLZ",
            "label": "deposit",
            "offset": 1,
            "slot": "0",
            "type": "t_uint248"
          },
          {
            "astId": 2590,
            "contract": "src/RealitioForeignProxyLZ.sol:RealitioForeignProxyLZ",
            "label": "disputeID",
            "offset": 0,
            "slot": "1",
            "type": "t_uint256"
          },
          {
            "astId": 2592,
            "contract": "src/RealitioForeignProxyLZ.sol:RealitioForeignProxyLZ",
            "label": "answer",
            "offset": 0,
            "slot": "2",
            "type": "t_uint256"
          }
        ],
        "numberOfBytes": "96"
      },
      "t_struct(DisputeDetails)2598_storage": {
        "encoding": "inplace",
        "label": "struct RealitioForeignProxyLZ.DisputeDetails",
        "members": [
          {
            "astId": 2595,
            "contract": "src/RealitioForeignProxyLZ.sol:RealitioForeignProxyLZ",
            "label": "arbitrationID",
            "offset": 0,
            "slot": "0",
            "type": "t_uint256"
          },
          {
            "astId": 2597,
            "contract": "src/RealitioForeignProxyLZ.sol:RealitioForeignProxyLZ",
            "label": "requester",
            "offset": 0,
            "slot": "1",
            "type": "t_address"
          }
        ],
        "numberOfBytes": "64"
      },
      "t_uint16": {
        "encoding": "inplace",
        "label": "uint16",
        "numberOfBytes": "2"
      },
      "t_uint248": {
        "encoding": "inplace",
        "label": "uint248",
        "numberOfBytes": "31"
      },
      "t_uint256": {
        "encoding": "inplace",
        "label": "uint256",
        "numberOfBytes": "32"
      },
      "t_uint32": {
        "encoding": "inplace",
        "label": "uint32",
        "numberOfBytes": "4"
      }
    }
  }
}